{"abi":[{"type":"constructor","inputs":[{"name":"_predictionManagerAddress","type":"address","internalType":"address"},{"name":"_feedRegistryAddress","type":"address","internalType":"address"},{"name":"initialOwner","type":"address","internalType":"address"}],"stateMutability":"nonpayable"},{"type":"function","name":"feedRegistry","inputs":[],"outputs":[{"name":"","type":"address","internalType":"contract IFeedRegistry"}],"stateMutability":"view"},{"type":"function","name":"marketOracles","inputs":[{"name":"","type":"uint256","internalType":"uint256"}],"outputs":[{"name":"baseToken","type":"address","internalType":"address"},{"name":"quoteToken","type":"address","internalType":"address"},{"name":"priceThreshold","type":"uint256","internalType":"uint256"},{"name":"isRegistered","type":"bool","internalType":"bool"}],"stateMutability":"view"},{"type":"function","name":"maxPriceStalenessSeconds","inputs":[],"outputs":[{"name":"","type":"uint256","internalType":"uint256"}],"stateMutability":"view"},{"type":"function","name":"owner","inputs":[],"outputs":[{"name":"","type":"address","internalType":"address"}],"stateMutability":"view"},{"type":"function","name":"predictionManager","inputs":[],"outputs":[{"name":"","type":"address","internalType":"contract IPredictionManagerForResolver"}],"stateMutability":"view"},{"type":"function","name":"registerOracle","inputs":[{"name":"_marketId","type":"uint256","internalType":"uint256"},{"name":"_baseToken","type":"address","internalType":"address"},{"name":"_quoteToken","type":"address","internalType":"address"},{"name":"_priceThreshold","type":"uint256","internalType":"uint256"}],"outputs":[],"stateMutability":"nonpayable"},{"type":"function","name":"renounceOwnership","inputs":[],"outputs":[],"stateMutability":"nonpayable"},{"type":"function","name":"resolveMarket","inputs":[{"name":"_marketId","type":"uint256","internalType":"uint256"}],"outputs":[],"stateMutability":"nonpayable"},{"type":"function","name":"setMaxPriceStaleness","inputs":[{"name":"_newStalenessSeconds","type":"uint256","internalType":"uint256"}],"outputs":[],"stateMutability":"nonpayable"},{"type":"function","name":"transferOwnership","inputs":[{"name":"newOwner","type":"address","internalType":"address"}],"outputs":[],"stateMutability":"nonpayable"},{"type":"event","name":"MarketResolved","inputs":[{"name":"marketId","type":"uint256","indexed":true,"internalType":"uint256"},{"name":"price","type":"int256","indexed":false,"internalType":"int256"},{"name":"winningOutcome","type":"uint8","indexed":false,"internalType":"enum PredictionTypes.Outcome"}],"anonymous":false},{"type":"event","name":"MaxPriceStalenessSet","inputs":[{"name":"oldStaleness","type":"uint256","indexed":false,"internalType":"uint256"},{"name":"newStaleness","type":"uint256","indexed":false,"internalType":"uint256"}],"anonymous":false},{"type":"event","name":"OracleRegistered","inputs":[{"name":"marketId","type":"uint256","indexed":true,"internalType":"uint256"},{"name":"baseToken","type":"address","indexed":false,"internalType":"address"},{"name":"quoteToken","type":"address","indexed":false,"internalType":"address"},{"name":"priceThreshold","type":"uint256","indexed":false,"internalType":"uint256"}],"anonymous":false},{"type":"event","name":"OwnershipTransferred","inputs":[{"name":"previousOwner","type":"address","indexed":true,"internalType":"address"},{"name":"newOwner","type":"address","indexed":true,"internalType":"address"}],"anonymous":false},{"type":"error","name":"FeedRegistryNotSet","inputs":[]},{"type":"error","name":"InvalidPrice","inputs":[]},{"type":"error","name":"InvalidPriceThreshold","inputs":[]},{"type":"error","name":"InvalidRound","inputs":[]},{"type":"error","name":"InvalidTokenAddress","inputs":[]},{"type":"error","name":"OracleAlreadyRegistered","inputs":[{"name":"marketId","type":"uint256","internalType":"uint256"}]},{"type":"error","name":"OracleNotRegistered","inputs":[{"name":"marketId","type":"uint256","internalType":"uint256"}]},{"type":"error","name":"OwnableInvalidOwner","inputs":[{"name":"owner","type":"address","internalType":"address"}]},{"type":"error","name":"OwnableUnauthorizedAccount","inputs":[{"name":"account","type":"address","internalType":"address"}]},{"type":"error","name":"PredictionManagerZeroAddress","inputs":[]},{"type":"error","name":"PriceIsStale","inputs":[{"name":"marketId","type":"uint256","internalType":"uint256"},{"name":"lastUpdatedAt","type":"uint256","internalType":"uint256"},{"name":"currentBlockTimestamp","type":"uint256","internalType":"uint256"}]},{"type":"error","name":"ResolutionFailedInManager","inputs":[{"name":"marketId","type":"uint256","internalType":"uint256"}]},{"type":"error","name":"StaleRound","inputs":[]}],"bytecode":{"object":"0x60c03461014957601f610a4838819003918201601f19168301916001600160401b0383118484101761014d578084926060946040528339810103126101495761004781610161565b9061005460208201610161565b906001600160a01b039061006a90604001610161565b16918215610136575f80546001600160a01b031981168517825560405194916001600160a01b03909116907f8be0079c531659141344cd1fd0a4f28419497f9722a3daafe3b4186f6b6457e09080a36001600160a01b0316908115610127576001600160a01b03169081156101185760805260a052610e106002556108d29081610176823960805181818161013201526105f6015260a0518181816102240152818161040201526105780152f35b630f58058360e11b5f5260045ffd5b63f9e10fb560e01b5f5260045ffd5b631e4fbdf760e01b5f525f60045260245ffd5b5f80fd5b634e487b7160e01b5f52604160045260245ffd5b51906001600160a01b03821682036101495756fe6080806040526004361015610012575f80fd5b5f905f3560e01c9081634c8d1eda146107ab575080636399d03d1461050857806365b2d327146104b2578063715018a6146104585780638da5cb5b1461043157806390238c39146103ec578063d5258c7a1461017f578063d9c1408b14610161578063ee687a981461011c5763f2fde38b1461008c575f80fd5b34610119576020366003190112610119576004356001600160a01b03811690819003610115576100ba610876565b80156101015781546001600160a01b03198116821783556001600160a01b03167f8be0079c531659141344cd1fd0a4f28419497f9722a3daafe3b4186f6b6457e08380a380f35b631e4fbdf760e01b82526004829052602482fd5b5080fd5b80fd5b50346101195780600319360112610119576040517f00000000000000000000000000000000000000000000000000000000000000006001600160a01b03168152602090f35b50346101195780600319360112610119576020600254604051908152f35b5034610119576080366003190112610119576004356024356001600160a01b038116908181036103e8576044356001600160a01b0381169081810361039757606435926101ca610876565b858752600160205260ff6003604089200154166103d457841580156103cc575b6103bd5783156103ae5760405163d2edb6dd60e01b81526001600160a01b03918216600482015291166024820152602081806044810103817f00000000000000000000000000000000000000000000000000000000000000006001600160a01b03165afa9081156103a357869161035d575b506001600160a01b03161561034e576040516080810181811067ffffffffffffffff82111761033a5760409081528482526020808301848152838301868152600160608087018281528b8d52828652868d20975188546001600160a01b039182166001600160a01b0319918216178a559551938901805494909116939095169290921790935590516002860155516003909401805460ff191694151560ff16949094179093558151958652850192909252908301919091527f5189ceacc48007b03b28db0059c86af83c70ae1ba26577367984ef86c596c2d991a280f35b634e487b7160e01b87526041600452602487fd5b631a40131f60e11b8552600485fd5b90506020813d60201161039b575b8161037860209383610808565b8101031261039757516001600160a01b0381168103610397575f61025c565b8580fd5b3d915061036b565b6040513d88823e3d90fd5b6309524aff60e41b8752600487fd5b630f58058360e11b8752600487fd5b5082156101ea565b63917a7deb60e01b87526004869052602487fd5b8380fd5b50346101195780600319360112610119576040517f00000000000000000000000000000000000000000000000000000000000000006001600160a01b03168152602090f35b5034610119578060031936011261011957546040516001600160a01b039091168152602090f35b5034610119578060031936011261011957610471610876565b80546001600160a01b03198116825581906001600160a01b03167f8be0079c531659141344cd1fd0a4f28419497f9722a3daafe3b4186f6b6457e08280a380f35b5034610119576020366003190112610119577fe21c7294aea4443442e8d93c674d8430a17f35e245338666aece1e90b77af00c60406004356104f2610876565b600254908060025582519182526020820152a180f35b50346106c65760203660031901126106c657600435805f52600160205260405f2060ff600382015416156107985780546001820154600292830154925460405163bcfd032d60e01b81526001600160a01b0393841660048201529183166024830152929160a090829060449082907f0000000000000000000000000000000000000000000000000000000000000000165afa92831561078d575f935f945f935f9261072a575b5069ffffffffffffffffffff1690811561071b5769ffffffffffffffffffff161061070c575f8413156106fe578142034281116106ea57116106d0575081106106ca5760015b7f00000000000000000000000000000000000000000000000000000000000000006001600160a01b0316803b156106c6575f80916064604051809481936314139b4d60e01b835289600484015261064e6024840189610855565b8860448401525af190816106b1575b50610676576307d933f360e51b84526004839052602484fd5b7fa686fce7727b7dee0d2d24872642450c17ba558c72d62214c173a223ef75c2b8916106ad60409283519283526020830190610855565ba280f35b6106be9195505f90610808565b5f935f61065d565b5f80fd5b5f6105f4565b8363a46ac88160e01b5f526004526024524260445260645ffd5b634e487b7160e01b5f52601160045260245ffd5b62bfc92160e01b5f5260045ffd5b6304d2887160e01b5f5260045ffd5b6328ad4a9560e21b5f5260045ffd5b95505050905060a0833d60a011610785575b8161074960a09383610808565b810103126106c65761075a8361083e565b90602084015169ffffffffffffffffffff61077c60806060880151970161083e565b919593906105ae565b3d915061073c565b6040513d5f823e3d90fd5b50631788ec2b60e21b5f5260045260245ffd5b346106c65760203660031901126106c6576080906004355f52600160205260405f2060018060a01b038154169060018060a01b0360018201541660ff60036002840154930154169284526020840152604083015215156060820152f35b90601f8019910116810190811067ffffffffffffffff82111761082a57604052565b634e487b7160e01b5f52604160045260245ffd5b519069ffffffffffffffffffff821682036106c657565b9060038210156108625752565b634e487b7160e01b5f52602160045260245ffd5b5f546001600160a01b0316330361088957565b63118cdaa760e01b5f523360045260245ffdfea26469706673582212209bbcfddbbadbf93bd39655c16b07ecf8b6f52294c4bc9372b279b4ce5ab142fe64736f6c634300081a0033","linkReferences":{}},"methodIdentifiers":{"feedRegistry()":"90238c39","marketOracles(uint256)":"4c8d1eda","maxPriceStalenessSeconds()":"d9c1408b","owner()":"8da5cb5b","predictionManager()":"ee687a98","registerOracle(uint256,address,address,uint256)":"d5258c7a","renounceOwnership()":"715018a6","resolveMarket(uint256)":"6399d03d","setMaxPriceStaleness(uint256)":"65b2d327","transferOwnership(address)":"f2fde38b"},"id":134}