{"abi":[{"type":"constructor","inputs":[{"name":"_manager","type":"address","internalType":"contract IPoolManager"}],"stateMutability":"nonpayable"},{"type":"function","name":"manager","inputs":[],"outputs":[{"name":"","type":"address","internalType":"contract IPoolManager"}],"stateMutability":"view"},{"type":"function","name":"modifyLiquidity","inputs":[{"name":"key","type":"tuple","internalType":"struct PoolKey","components":[{"name":"currency0","type":"address","internalType":"Currency"},{"name":"currency1","type":"address","internalType":"Currency"},{"name":"fee","type":"uint24","internalType":"uint24"},{"name":"tickSpacing","type":"int24","internalType":"int24"},{"name":"hooks","type":"address","internalType":"contract IHooks"}]},{"name":"params","type":"tuple","internalType":"struct ModifyLiquidityParams","components":[{"name":"tickLower","type":"int24","internalType":"int24"},{"name":"tickUpper","type":"int24","internalType":"int24"},{"name":"liquidityDelta","type":"int256","internalType":"int256"},{"name":"salt","type":"bytes32","internalType":"bytes32"}]},{"name":"hookData","type":"bytes","internalType":"bytes"},{"name":"settleUsingBurn","type":"bool","internalType":"bool"},{"name":"takeClaims","type":"bool","internalType":"bool"}],"outputs":[{"name":"delta","type":"int256","internalType":"BalanceDelta"}],"stateMutability":"payable"},{"type":"function","name":"modifyLiquidity","inputs":[{"name":"key","type":"tuple","internalType":"struct PoolKey","components":[{"name":"currency0","type":"address","internalType":"Currency"},{"name":"currency1","type":"address","internalType":"Currency"},{"name":"fee","type":"uint24","internalType":"uint24"},{"name":"tickSpacing","type":"int24","internalType":"int24"},{"name":"hooks","type":"address","internalType":"contract IHooks"}]},{"name":"params","type":"tuple","internalType":"struct ModifyLiquidityParams","components":[{"name":"tickLower","type":"int24","internalType":"int24"},{"name":"tickUpper","type":"int24","internalType":"int24"},{"name":"liquidityDelta","type":"int256","internalType":"int256"},{"name":"salt","type":"bytes32","internalType":"bytes32"}]},{"name":"hookData","type":"bytes","internalType":"bytes"}],"outputs":[{"name":"delta","type":"int256","internalType":"BalanceDelta"}],"stateMutability":"payable"},{"type":"function","name":"unlockCallback","inputs":[{"name":"rawData","type":"bytes","internalType":"bytes"}],"outputs":[{"name":"","type":"bytes","internalType":"bytes"}],"stateMutability":"nonpayable"}],"bytecode":{"object":"0x60a034607357601f610e2138819003918201601f19168301916001600160401b03831184841017607757808492602094604052833981010312607357516001600160a01b0381168103607357608052604051610d95908161008c8239608051818181609701528181610567015261066b0152f35b5f80fd5b634e487b7160e01b5f52604160045260245ffdfe60806040526004361015610011575f80fd5b5f3560e01c80630a5b11e41461069a578063481c6a75146106565780635a6bcfda1461042b576391dd734614610045575f80fd5b346104145760203660031901126104145760043567ffffffffffffffff8111610414573660238201121561041457806004013567ffffffffffffffff81116104145781016024810190368211610414577f00000000000000000000000000000000000000000000000000000000000000009160018060a01b03831693843303610414576020818403126104145760248101359067ffffffffffffffff821161041457016101a081840312610414576040519161010083610765565b61010c602483016107ef565b835260a0601f198386030112610414576040519361012985610795565b610135604484016107ef565b8552610143606484016107ef565b6020860152608483013562ffffff8116810361041457604086015261016a60a48401610803565b606086015260c48301356001600160a01b03811681036104145760809160249183880152602086019687528460e319910301011261041457604051906101af826107b1565b6101bb60e48401610803565b82526101ca6101048401610803565b602083015261012483013560408301526101448301356060830152604084019182526101648301359667ffffffffffffffff881161041457610216604092602461029d9a870101610902565b9081606087015261026f5f6102426101a46102346101848a01610948565b9860808b01998a5201610948565b9560a089019687526102b18a5191519587519d8e9788968795632d35e7ed60e11b87526004870190610979565b8051600290810b60a48701526020820151900b60c4860152604081015160e486015260600151610104850152565b610140610124840152610144830190610955565b03925af1948515610420575f956103e6575b61032496508560801d600f0b86600f0b935f82126103b6575b5f8512610381575b505f8113610356575b505f8313610328575b8686604051906020820152602081526103106040826107cd565b604051918291602083526020830190610955565b0390f35b9351602001519251905161034c94901515936001600160a01b039283169216610c47565b5f808080806102f6565b8551518551845161037b939015159290916001600160a01b0390811691869116610c47565b5f6102ed565b86516020015186516103b0926001600160a01b0392831692909116856103a6896109bc565b9251151593610a07565b5f6102e4565b86515186516103e1916001600160a01b0390811691166103d5856109bc565b90868551151593610a07565b6102dc565b94506040863d604011610418575b81610401604093836107cd565b81010312610414576103249551946102c3565b5f80fd5b3d91506103f4565b6040513d5f823e3d90fd5b6101403660031901126104145761044136610811565b61044a36610898565b610124359167ffffffffffffffff8311610414576105405f92610474610562953690600401610902565b6040519161048183610765565b33835260208301948552604083019081526060830191825261051f608084019287845261050a60a08601938985526104d8604051998a986020808b015260018060a01b0390511660408a0152516060890190610979565b518051600290810b6101008901526020820151900b610120880152604081015161014088015260600151610160870152565b516101a06101808601526101e0850190610955565b915115156101a08401525115156101c083015203601f1981018352826107cd565b604051809381926348c8949160e01b8352602060048401526024830190610955565b0381837f00000000000000000000000000000000000000000000000000000000000000006001600160a01b03165af1908115610420575f916105dc575b50602081805181010312610414576020015147806105c3575b602082604051908152f35b5f80808093335af1156105d657816105b8565b33610cf6565b90503d805f833e6105ed81836107cd565b8101906020818303126104145780519067ffffffffffffffff8211610414570181601f8201121561041457805190610624826108e6565b9261063260405194856107cd565b8284526020838301011161041457815f9260208093018386015e830101528161059f565b34610414575f366003190112610414576040517f00000000000000000000000000000000000000000000000000000000000000006001600160a01b03168152602090f35b610180366003190112610414576106b036610811565b6106b936610898565b6101243567ffffffffffffffff8111610414576106da903690600401610902565b91610144359283151580940361041457610164359283151580940361041457610562945f9461051f6105409461050a6040519561071687610765565b3387526020870198895260408701908152606087019283526080870195865260a087019485526104d8604051998a986020808b015260018060a01b0390511660408a0152516060890190610979565b60c0810190811067ffffffffffffffff82111761078157604052565b634e487b7160e01b5f52604160045260245ffd5b60a0810190811067ffffffffffffffff82111761078157604052565b6080810190811067ffffffffffffffff82111761078157604052565b90601f8019910116810190811067ffffffffffffffff82111761078157604052565b35906001600160a01b038216820361041457565b35908160020b820361041457565b60a0906003190112610414576040519061082a82610795565b816004356001600160a01b03811681036104145781526024356001600160a01b038116810361041457602082015260443562ffffff811681036104145760408201526064358060020b8103610414576060820152608435906001600160a01b03821682036104145760800152565b60809060a319011261041457604051906108b1826107b1565b8160a4358060020b810361041457815260c4358060020b810361041457602082015260e4356040820152606061010435910152565b67ffffffffffffffff811161078157601f01601f191660200190565b81601f8201121561041457803590610919826108e6565b9261092760405194856107cd565b8284526020838301011161041457815f926020809301838601378301015290565b3590811515820361041457565b805180835260209291819084018484015e5f828201840152601f01601f1916010190565b80516001600160a01b03908116835260208083015182169084015260408083015162ffffff169084015260608083015160020b9084015260809182015116910152565b600160ff1b81146109cc575f0390565b634e487b7160e01b5f52601160045260245ffd5b90816020910312610414575180151581036104145790565b90816020910312610414575190565b9291935f14610a74576001600160a01b0316803b1561041457604051637a94c56560e11b81526001600160a01b03948516600482015293909216602484015260448301525f908290818381606481015b03925af1801561042057610a685750565b5f610a72916107cd565b565b90916001600160a01b031680610ae15750604051630476982d60e21b81529250602091839160049183916001600160a01b03165af1801561042057610ab65750565b610ad79060203d602011610ada575b610acf81836107cd565b8101906109f8565b50565b503d610ac5565b6001600160a01b0390911691823b1561041457604051632961046560e21b8152600481018390525f9490858160248183895af1801561042057610c32575b506001600160a01b031684308214610bd7576020929160649160405195869485936323b872dd60e01b8552600485015288602485015260448401525af18015610bcc57916020918493610b9f575b505b600460405180958193630476982d60e21b83525af1908115610b935750610ab65750565b604051903d90823e3d90fd5b610bbe90833d8511610bc5575b610bb681836107cd565b8101906109e0565b505f610b6d565b503d610bac565b6040513d85823e3d90fd5b9290506044602092604051948593849263a9059cbb60e01b845288600485015260248401525af18015610bcc57916020918493610c15575b50610b6f565b610c2b90833d8511610bc557610bb681836107cd565b505f610c0f565b610c3f9195505f906107cd565b5f935f610b1f565b9291935f14610c9b576001600160a01b0316803b1561041457604051630ab714fb60e11b81526001600160a01b03948516600482015293909216602484015260448301525f90829081838160648101610a57565b9092906001600160a01b0316803b1561041457604051630b0d9c0960e01b81526001600160a01b03938416600482015291909216602482015260448101929092525f908290606490829084905af1801561042057610a685750565b6040516390bfb86560e01b81526001600160a01b0390911660048201525f602482018190526080604483015260a03d601f01601f191690810160648401523d6084840152903d9060a484013e808201600460a482015260c4633d2cec6f60e21b91015260e40190fdfea264697066735822122062dab192fd900505df7e048f25a9ef0f56da9b4bcea031aa0f1bb2996136cc0c64736f6c634300081a0033","linkReferences":{}},"methodIdentifiers":{"manager()":"481c6a75","modifyLiquidity((address,address,uint24,int24,address),(int24,int24,int256,bytes32),bytes)":"5a6bcfda","modifyLiquidity((address,address,uint24,int24,address),(int24,int24,int256,bytes32),bytes,bool,bool)":"0a5b11e4","unlockCallback(bytes)":"91dd7346"},"id":84}