{"abi":[{"type":"function","name":"convertToUint","inputs":[{"name":"price","type":"int64","internalType":"int64"},{"name":"expo","type":"int32","internalType":"int32"},{"name":"targetDecimals","type":"uint8","internalType":"uint8"}],"outputs":[{"name":"","type":"uint256","internalType":"uint256"}],"stateMutability":"pure"}],"bytecode":{"object":"0x608080604052346019576101a2908161001e823930815050f35b5f80fdfe60806040526004361015610011575f80fd5b5f3560e01c63b55522b214610024575f80fd5b606036600319011261006c576004358060070b810361006c57602435908160030b820361006c5760443560ff8116810361006c57602092610064926100ac565b604051908152f35b5f80fd5b9060ff8091169116039060ff821161008457565b634e487b7160e01b5f52601160045260245ffd5b63ffffffff16604d811161008457600a0a90565b905f8260070b128015610160575b8015610152575b61006c5760030b5f03808060030b036100845760ff16908160ff841610155f14610119576100ff6101059267ffffffffffffffff60ff931694610070565b16610098565b908181029181830414901517156100845790565b916100ff60ff9161012993610070565b90811561013e5767ffffffffffffffff160490565b634e487b7160e01b5f52601260045260245ffd5b5060fe198160030b126100c1565b505f8160030b136100ba56fea26469706673582212203607c4b4908216bcb35df1d5c4e9a5c6fb3b70b0478a53980d7ff38e6589e12764736f6c634300081a0033","linkReferences":{}},"methodIdentifiers":{"convertToUint(int64,int32,uint8)":"b55522b2"},"id":132}