{"abi":[{"type":"constructor","inputs":[],"stateMutability":"nonpayable"},{"type":"function","name":"balances","inputs":[{"name":"","type":"address","internalType":"address"}],"outputs":[{"name":"","type":"uint256","internalType":"uint256"}],"stateMutability":"view"},{"type":"function","name":"burn","inputs":[{"name":"_tokenId","type":"uint256","internalType":"uint256"}],"outputs":[],"stateMutability":"nonpayable"},{"type":"function","name":"getPredictionDetails","inputs":[{"name":"_tokenId","type":"uint256","internalType":"uint256"}],"outputs":[{"name":"marketId","type":"uint256","internalType":"uint256"},{"name":"outcome","type":"uint8","internalType":"enum PredictionTypes.Outcome"},{"name":"convictionStake","type":"uint256","internalType":"uint256"},{"name":"owner","type":"address","internalType":"address"}],"stateMutability":"view"},{"type":"function","name":"lastCallerToBurn","inputs":[],"outputs":[{"name":"","type":"address","internalType":"address"}],"stateMutability":"view"},{"type":"function","name":"lastCallerToMint","inputs":[],"outputs":[{"name":"","type":"address","internalType":"address"}],"stateMutability":"view"},{"type":"function","name":"mint","inputs":[{"name":"_to","type":"address","internalType":"address"},{"name":"_marketId","type":"uint256","internalType":"uint256"},{"name":"_outcome","type":"uint8","internalType":"enum PredictionTypes.Outcome"},{"name":"_convictionStake","type":"uint256","internalType":"uint256"}],"outputs":[{"name":"tokenId","type":"uint256","internalType":"uint256"}],"stateMutability":"nonpayable"},{"type":"function","name":"nextTokenId","inputs":[],"outputs":[{"name":"","type":"uint256","internalType":"uint256"}],"stateMutability":"view"},{"type":"function","name":"nfts","inputs":[{"name":"","type":"uint256","internalType":"uint256"}],"outputs":[{"name":"marketId","type":"uint256","internalType":"uint256"},{"name":"outcome","type":"uint8","internalType":"enum PredictionTypes.Outcome"},{"name":"convictionStake","type":"uint256","internalType":"uint256"},{"name":"owner","type":"address","internalType":"address"},{"name":"exists","type":"bool","internalType":"bool"}],"stateMutability":"view"},{"type":"function","name":"owner","inputs":[],"outputs":[{"name":"","type":"address","internalType":"address"}],"stateMutability":"view"},{"type":"function","name":"ownerOf","inputs":[{"name":"_tokenId","type":"uint256","internalType":"uint256"}],"outputs":[{"name":"","type":"address","internalType":"address"}],"stateMutability":"view"},{"type":"function","name":"predictionPoolAddress","inputs":[],"outputs":[{"name":"","type":"address","internalType":"address"}],"stateMutability":"view"},{"type":"function","name":"renounceOwnership","inputs":[],"outputs":[],"stateMutability":"nonpayable"},{"type":"function","name":"setPredictionManager","inputs":[{"name":"_newAddress","type":"address","internalType":"address"}],"outputs":[],"stateMutability":"nonpayable"},{"type":"function","name":"setPredictionPoolAddress","inputs":[{"name":"_newAddress","type":"address","internalType":"address"}],"outputs":[],"stateMutability":"nonpayable"},{"type":"function","name":"setShouldRevertOnBurn","inputs":[{"name":"_revert","type":"bool","internalType":"bool"}],"outputs":[],"stateMutability":"nonpayable"},{"type":"function","name":"setShouldRevertOnGetPredictionDetails","inputs":[{"name":"_revert","type":"bool","internalType":"bool"}],"outputs":[],"stateMutability":"nonpayable"},{"type":"function","name":"setShouldRevertOnMint","inputs":[{"name":"_revert","type":"bool","internalType":"bool"}],"outputs":[],"stateMutability":"nonpayable"},{"type":"function","name":"shouldRevertOnBurn","inputs":[],"outputs":[{"name":"","type":"bool","internalType":"bool"}],"stateMutability":"view"},{"type":"function","name":"shouldRevertOnGetPredictionDetails","inputs":[],"outputs":[{"name":"","type":"bool","internalType":"bool"}],"stateMutability":"view"},{"type":"function","name":"shouldRevertOnMint","inputs":[],"outputs":[{"name":"","type":"bool","internalType":"bool"}],"stateMutability":"view"},{"type":"function","name":"transferFrom","inputs":[{"name":"_from","type":"address","internalType":"address"},{"name":"_to","type":"address","internalType":"address"},{"name":"_tokenId","type":"uint256","internalType":"uint256"}],"outputs":[],"stateMutability":"nonpayable"},{"type":"function","name":"transferOwnership","inputs":[{"name":"newOwner","type":"address","internalType":"address"}],"outputs":[],"stateMutability":"nonpayable"},{"type":"event","name":"NFTBurned","inputs":[{"name":"tokenId","type":"uint256","indexed":true,"internalType":"uint256"}],"anonymous":false},{"type":"event","name":"NFTMinted","inputs":[{"name":"to","type":"address","indexed":true,"internalType":"address"},{"name":"tokenId","type":"uint256","indexed":true,"internalType":"uint256"},{"name":"marketId","type":"uint256","indexed":false,"internalType":"uint256"},{"name":"outcome","type":"uint8","indexed":false,"internalType":"enum PredictionTypes.Outcome"},{"name":"convictionStake","type":"uint256","indexed":false,"internalType":"uint256"}],"anonymous":false},{"type":"event","name":"OwnershipTransferred","inputs":[{"name":"previousOwner","type":"address","indexed":true,"internalType":"address"},{"name":"newOwner","type":"address","indexed":true,"internalType":"address"}],"anonymous":false},{"type":"error","name":"NotPredictionPool","inputs":[]},{"type":"error","name":"OwnableInvalidOwner","inputs":[{"name":"owner","type":"address","internalType":"address"}]},{"type":"error","name":"OwnableUnauthorizedAccount","inputs":[{"name":"account","type":"address","internalType":"address"}]},{"type":"error","name":"TokenDoesNotExist","inputs":[{"name":"tokenId","type":"uint256","internalType":"uint256"}]}],"bytecode":{"object":"0x6080806040523460755733156062575f8054336001600160a01b0319821681178355916001600160a01b03909116907f8be0079c531659141344cd1fd0a4f28419497f9722a3daafe3b4186f6b6457e09080a35f600355610b53908161007a8239f35b631e4fbdf760e01b5f525f60045260245ffd5b5f80fdfe6080806040526004361015610012575f80fd5b5f3560e01c908163041ba86a14610a695781630aa8587314610a46575080631a9f656814610a215780631b31c186146109f957806323b872dd1461091d578063265aa621146108b357806327e235e31461087b57806337e810f51461083e5780633f2a54771461080157806342966c681461066e57806357ce48f2146106495780636352211e146105e7578063715018a6146105905780637331b67b146101e457806375794a3c146105735780638da5cb5b1461054c5780638f88833814610453578063a7a6be961461022c578063b9159827146101e4578063cd491c9b146101bc578063cdd97cab146101975763f2fde38b1461010e575f80fd5b3461019357602036600319011261019357610127610aa6565b61012f610af7565b6001600160a01b03168015610180575f80546001600160a01b03198116831782556001600160a01b0316907f8be0079c531659141344cd1fd0a4f28419497f9722a3daafe3b4186f6b6457e09080a3005b631e4fbdf760e01b5f525f60045260245ffd5b5f80fd5b34610193575f36600319011261019357602060ff60065460a81c166040519015158152f35b34610193575f366003190112610193576005546040516001600160a01b039091168152602090f35b346101935760203660031901126101935761022a610200610aa6565b610208610af7565b60018060a01b03166bffffffffffffffffffffffff60a01b6006541617600655565b005b3461019357608036600319011261019357610245610aa6565b6024356044359160038310156101935760065460643592906001600160a01b038116330361044457600480546001600160a01b0319163317905560a01c60ff166103ea57600354926040519060a0820182811067ffffffffffffffff8211176103d65760405282825260208201928684526040830191808352606084019560018060a01b031694858752608085019860018a52885f52600160205260405f20955186556001860191519760038910156103c25760209a60037f848dd416c62d8fba92ecbf7d84243d842b3f0128d4e91abb3802203cb52617c6986060986103b4968e9d60ff80198354169116179055516002820155019160018060a01b039060018060a01b03905116166bffffffffffffffffffffffff60a01b83541617825551151581549060ff60a01b9060a01b169060ff60a01b1916179055865f5260028a5260405f206103958154610ae9565b90556103a2600354610ae9565b60035560405193845289840190610abc565b6040820152a3604051908152f35b634e487b7160e01b5f52602160045260245ffd5b634e487b7160e01b5f52604160045260245ffd5b60405162461bcd60e51b815260206004820152602c60248201527f4d6f636b53776170436173744e46543a204d696e74207265766572746564206160448201526b1cc81a5b9cdd1c9d58dd195960a21b6064820152608490fd5b6381711c5f60e01b5f5260045ffd5b346101935760203660031901126101935760043560ff60065460b01c166104e157805f52600160205260405f20600381015460ff8160a01c16156104ce57608092508154916104b9600260ff600184015416920154916040519485526020850190610abc565b60408301526001600160a01b03166060820152f35b8263c927e5bf60e01b5f5260045260245ffd5b60405162461bcd60e51b815260206004820152603c60248201527f4d6f636b53776170436173744e46543a2047657450726564696374696f6e446560448201527f7461696c7320726576657274656420617320696e7374727563746564000000006064820152608490fd5b34610193575f366003190112610193575f546040516001600160a01b039091168152602090f35b34610193575f366003190112610193576020600354604051908152f35b34610193575f366003190112610193576105a8610af7565b5f80546001600160a01b0319811682556001600160a01b03167f8be0079c531659141344cd1fd0a4f28419497f9722a3daafe3b4186f6b6457e08280a3005b3461019357602036600319011261019357600435805f52600160205260ff600360405f20015460a01c1615610637575f526001602052602060018060a01b03600360405f20015416604051908152f35b63c927e5bf60e01b5f5260045260245ffd5b34610193575f36600319011261019357602060ff60065460b01c166040519015158152f35b3461019357602036600319011261019357600654600435906001600160a01b038116330361044457600580546001600160a01b0319163317905560a81c60ff166107a757805f526001602052600360405f20015460ff8160a01c1615610794576001600160a01b0316801561073a575f52600260205260405f206106f28154610ac9565b9055805f5260016020525f60036040822082815582600182015582600282015501557f3c176691ca154a2f6fe978a2a633a33ee77dbe2902e67a75400720845a4b2ce15f80a2005b60405162461bcd60e51b815260206004820152602c60248201527f4d6f636b53776170436173744e46543a204275726e696e6720746f6b656e207760448201526b34ba341037379037bbb732b960a11b6064820152608490fd5b5063c927e5bf60e01b5f5260045260245ffd5b60405162461bcd60e51b815260206004820152602c60248201527f4d6f636b53776170436173744e46543a204275726e207265766572746564206160448201526b1cc81a5b9cdd1c9d58dd195960a21b6064820152608490fd5b3461019357602036600319011261019357600435801515809103610193576006805460ff60a01b191660a09290921b60ff60a01b16919091179055005b3461019357602036600319011261019357600435801515809103610193576006805460ff60b01b191660b09290921b60ff60b01b16919091179055005b34610193576020366003190112610193576001600160a01b0361089c610aa6565b165f526002602052602060405f2054604051908152f35b34610193576020366003190112610193576004355f52600160205260a060405f2060ff81549181600182015416906108ff60036002830154920154926040519586526020860190610abc565b6040840152600180851b0381166060840152831c1615156080820152f35b3461019357606036600319011261019357610936610aa6565b6024356001600160a01b0381169081900361019357604435805f526001602052600360405f20019283549160ff8360a01c161561063757506001600160a01b0390811691168190036109c2575f52600260205260405f206109978154610ac9565b9055805f52600260205260405f206109af8154610ae9565b905581546001600160a01b031916179055005b60405162461bcd60e51b815260206004820152600f60248201526e2737ba103a37b5b2b71037bbb732b960891b6044820152606490fd5b34610193575f366003190112610193576004546040516001600160a01b039091168152602090f35b34610193575f36600319011261019357602060ff60065460a01c166040519015158152f35b34610193575f366003190112610193576006546001600160a01b03168152602090f35b3461019357602036600319011261019357600435801515809103610193576006805460ff60a81b191660a89290921b60ff60a81b16919091179055005b600435906001600160a01b038216820361019357565b9060038210156103c25752565b8015610ad5575f190190565b634e487b7160e01b5f52601160045260245ffd5b5f198114610ad55760010190565b5f546001600160a01b03163303610b0a57565b63118cdaa760e01b5f523360045260245ffdfea26469706673582212201dc716bff5c67a48378c9d9f0218fc059b408e2b1bf9116e4e3633accf9d590464736f6c634300081a0033","linkReferences":{}},"methodIdentifiers":{"balances(address)":"27e235e3","burn(uint256)":"42966c68","getPredictionDetails(uint256)":"8f888338","lastCallerToBurn()":"cd491c9b","lastCallerToMint()":"1b31c186","mint(address,uint256,uint8,uint256)":"a7a6be96","nextTokenId()":"75794a3c","nfts(uint256)":"265aa621","owner()":"8da5cb5b","ownerOf(uint256)":"6352211e","predictionPoolAddress()":"0aa85873","renounceOwnership()":"715018a6","setPredictionManager(address)":"b9159827","setPredictionPoolAddress(address)":"7331b67b","setShouldRevertOnBurn(bool)":"041ba86a","setShouldRevertOnGetPredictionDetails(bool)":"37e810f5","setShouldRevertOnMint(bool)":"3f2a5477","shouldRevertOnBurn()":"cdd97cab","shouldRevertOnGetPredictionDetails()":"57ce48f2","shouldRevertOnMint()":"1a9f6568","transferFrom(address,address,uint256)":"23b872dd","transferOwnership(address)":"f2fde38b"},"id":164}