{"abi":[{"type":"constructor","inputs":[{"name":"_validTimePeriod","type":"uint256","internalType":"uint256"},{"name":"_singleUpdateFeeInWei","type":"uint256","internalType":"uint256"}],"stateMutability":"nonpayable"},{"type":"function","name":"createPriceFeedUpdateData","inputs":[{"name":"id","type":"bytes32","internalType":"bytes32"},{"name":"price","type":"int64","internalType":"int64"},{"name":"conf","type":"uint64","internalType":"uint64"},{"name":"expo","type":"int32","internalType":"int32"},{"name":"emaPrice","type":"int64","internalType":"int64"},{"name":"emaConf","type":"uint64","internalType":"uint64"},{"name":"publishTime","type":"uint64","internalType":"uint64"},{"name":"prevPublishTime","type":"uint64","internalType":"uint64"}],"outputs":[{"name":"priceFeedData","type":"bytes","internalType":"bytes"}],"stateMutability":"pure"},{"type":"function","name":"createTwapPriceFeedUpdateData","inputs":[{"name":"id","type":"bytes32","internalType":"bytes32"},{"name":"startTime","type":"uint64","internalType":"uint64"},{"name":"endTime","type":"uint64","internalType":"uint64"},{"name":"price","type":"int64","internalType":"int64"},{"name":"conf","type":"uint64","internalType":"uint64"},{"name":"expo","type":"int32","internalType":"int32"},{"name":"downSlotsRatio","type":"uint32","internalType":"uint32"}],"outputs":[{"name":"twapData","type":"bytes","internalType":"bytes"}],"stateMutability":"pure"},{"type":"function","name":"getEmaPrice","inputs":[{"name":"id","type":"bytes32","internalType":"bytes32"}],"outputs":[{"name":"price","type":"tuple","internalType":"struct PythStructs.Price","components":[{"name":"price","type":"int64","internalType":"int64"},{"name":"conf","type":"uint64","internalType":"uint64"},{"name":"expo","type":"int32","internalType":"int32"},{"name":"publishTime","type":"uint256","internalType":"uint256"}]}],"stateMutability":"view"},{"type":"function","name":"getEmaPriceNoOlderThan","inputs":[{"name":"id","type":"bytes32","internalType":"bytes32"},{"name":"age","type":"uint256","internalType":"uint256"}],"outputs":[{"name":"price","type":"tuple","internalType":"struct PythStructs.Price","components":[{"name":"price","type":"int64","internalType":"int64"},{"name":"conf","type":"uint64","internalType":"uint64"},{"name":"expo","type":"int32","internalType":"int32"},{"name":"publishTime","type":"uint256","internalType":"uint256"}]}],"stateMutability":"view"},{"type":"function","name":"getEmaPriceUnsafe","inputs":[{"name":"id","type":"bytes32","internalType":"bytes32"}],"outputs":[{"name":"price","type":"tuple","internalType":"struct PythStructs.Price","components":[{"name":"price","type":"int64","internalType":"int64"},{"name":"conf","type":"uint64","internalType":"uint64"},{"name":"expo","type":"int32","internalType":"int32"},{"name":"publishTime","type":"uint256","internalType":"uint256"}]}],"stateMutability":"view"},{"type":"function","name":"getPrice","inputs":[{"name":"id","type":"bytes32","internalType":"bytes32"}],"outputs":[{"name":"price","type":"tuple","internalType":"struct PythStructs.Price","components":[{"name":"price","type":"int64","internalType":"int64"},{"name":"conf","type":"uint64","internalType":"uint64"},{"name":"expo","type":"int32","internalType":"int32"},{"name":"publishTime","type":"uint256","internalType":"uint256"}]}],"stateMutability":"view"},{"type":"function","name":"getPriceNoOlderThan","inputs":[{"name":"id","type":"bytes32","internalType":"bytes32"},{"name":"age","type":"uint256","internalType":"uint256"}],"outputs":[{"name":"price","type":"tuple","internalType":"struct PythStructs.Price","components":[{"name":"price","type":"int64","internalType":"int64"},{"name":"conf","type":"uint64","internalType":"uint64"},{"name":"expo","type":"int32","internalType":"int32"},{"name":"publishTime","type":"uint256","internalType":"uint256"}]}],"stateMutability":"view"},{"type":"function","name":"getPriceUnsafe","inputs":[{"name":"id","type":"bytes32","internalType":"bytes32"}],"outputs":[{"name":"price","type":"tuple","internalType":"struct PythStructs.Price","components":[{"name":"price","type":"int64","internalType":"int64"},{"name":"conf","type":"uint64","internalType":"uint64"},{"name":"expo","type":"int32","internalType":"int32"},{"name":"publishTime","type":"uint256","internalType":"uint256"}]}],"stateMutability":"view"},{"type":"function","name":"getUpdateFee","inputs":[{"name":"updateData","type":"bytes[]","internalType":"bytes[]"}],"outputs":[{"name":"feeAmount","type":"uint256","internalType":"uint256"}],"stateMutability":"view"},{"type":"function","name":"getValidTimePeriod","inputs":[],"outputs":[{"name":"","type":"uint256","internalType":"uint256"}],"stateMutability":"view"},{"type":"function","name":"parsePriceFeedUpdates","inputs":[{"name":"updateData","type":"bytes[]","internalType":"bytes[]"},{"name":"priceIds","type":"bytes32[]","internalType":"bytes32[]"},{"name":"minPublishTime","type":"uint64","internalType":"uint64"},{"name":"maxPublishTime","type":"uint64","internalType":"uint64"}],"outputs":[{"name":"feeds","type":"tuple[]","internalType":"struct PythStructs.PriceFeed[]","components":[{"name":"id","type":"bytes32","internalType":"bytes32"},{"name":"price","type":"tuple","internalType":"struct PythStructs.Price","components":[{"name":"price","type":"int64","internalType":"int64"},{"name":"conf","type":"uint64","internalType":"uint64"},{"name":"expo","type":"int32","internalType":"int32"},{"name":"publishTime","type":"uint256","internalType":"uint256"}]},{"name":"emaPrice","type":"tuple","internalType":"struct PythStructs.Price","components":[{"name":"price","type":"int64","internalType":"int64"},{"name":"conf","type":"uint64","internalType":"uint64"},{"name":"expo","type":"int32","internalType":"int32"},{"name":"publishTime","type":"uint256","internalType":"uint256"}]}]}],"stateMutability":"payable"},{"type":"function","name":"parsePriceFeedUpdatesUnique","inputs":[{"name":"updateData","type":"bytes[]","internalType":"bytes[]"},{"name":"priceIds","type":"bytes32[]","internalType":"bytes32[]"},{"name":"minPublishTime","type":"uint64","internalType":"uint64"},{"name":"maxPublishTime","type":"uint64","internalType":"uint64"}],"outputs":[{"name":"feeds","type":"tuple[]","internalType":"struct PythStructs.PriceFeed[]","components":[{"name":"id","type":"bytes32","internalType":"bytes32"},{"name":"price","type":"tuple","internalType":"struct PythStructs.Price","components":[{"name":"price","type":"int64","internalType":"int64"},{"name":"conf","type":"uint64","internalType":"uint64"},{"name":"expo","type":"int32","internalType":"int32"},{"name":"publishTime","type":"uint256","internalType":"uint256"}]},{"name":"emaPrice","type":"tuple","internalType":"struct PythStructs.Price","components":[{"name":"price","type":"int64","internalType":"int64"},{"name":"conf","type":"uint64","internalType":"uint64"},{"name":"expo","type":"int32","internalType":"int32"},{"name":"publishTime","type":"uint256","internalType":"uint256"}]}]}],"stateMutability":"payable"},{"type":"function","name":"parsePriceFeedUpdatesWithSlots","inputs":[{"name":"updateData","type":"bytes[]","internalType":"bytes[]"},{"name":"priceIds","type":"bytes32[]","internalType":"bytes32[]"},{"name":"minPublishTime","type":"uint64","internalType":"uint64"},{"name":"maxPublishTime","type":"uint64","internalType":"uint64"}],"outputs":[{"name":"feeds","type":"tuple[]","internalType":"struct PythStructs.PriceFeed[]","components":[{"name":"id","type":"bytes32","internalType":"bytes32"},{"name":"price","type":"tuple","internalType":"struct PythStructs.Price","components":[{"name":"price","type":"int64","internalType":"int64"},{"name":"conf","type":"uint64","internalType":"uint64"},{"name":"expo","type":"int32","internalType":"int32"},{"name":"publishTime","type":"uint256","internalType":"uint256"}]},{"name":"emaPrice","type":"tuple","internalType":"struct PythStructs.Price","components":[{"name":"price","type":"int64","internalType":"int64"},{"name":"conf","type":"uint64","internalType":"uint64"},{"name":"expo","type":"int32","internalType":"int32"},{"name":"publishTime","type":"uint256","internalType":"uint256"}]}]},{"name":"slots","type":"uint64[]","internalType":"uint64[]"}],"stateMutability":"payable"},{"type":"function","name":"parseTwapPriceFeedUpdates","inputs":[{"name":"updateData","type":"bytes[]","internalType":"bytes[]"},{"name":"priceIds","type":"bytes32[]","internalType":"bytes32[]"}],"outputs":[{"name":"twapPriceFeeds","type":"tuple[]","internalType":"struct PythStructs.TwapPriceFeed[]","components":[{"name":"id","type":"bytes32","internalType":"bytes32"},{"name":"startTime","type":"uint64","internalType":"uint64"},{"name":"endTime","type":"uint64","internalType":"uint64"},{"name":"twap","type":"tuple","internalType":"struct PythStructs.Price","components":[{"name":"price","type":"int64","internalType":"int64"},{"name":"conf","type":"uint64","internalType":"uint64"},{"name":"expo","type":"int32","internalType":"int32"},{"name":"publishTime","type":"uint256","internalType":"uint256"}]},{"name":"downSlotsRatio","type":"uint32","internalType":"uint32"}]}],"stateMutability":"payable"},{"type":"function","name":"priceFeedExists","inputs":[{"name":"id","type":"bytes32","internalType":"bytes32"}],"outputs":[{"name":"","type":"bool","internalType":"bool"}],"stateMutability":"view"},{"type":"function","name":"queryPriceFeed","inputs":[{"name":"id","type":"bytes32","internalType":"bytes32"}],"outputs":[{"name":"priceFeed","type":"tuple","internalType":"struct PythStructs.PriceFeed","components":[{"name":"id","type":"bytes32","internalType":"bytes32"},{"name":"price","type":"tuple","internalType":"struct PythStructs.Price","components":[{"name":"price","type":"int64","internalType":"int64"},{"name":"conf","type":"uint64","internalType":"uint64"},{"name":"expo","type":"int32","internalType":"int32"},{"name":"publishTime","type":"uint256","internalType":"uint256"}]},{"name":"emaPrice","type":"tuple","internalType":"struct PythStructs.Price","components":[{"name":"price","type":"int64","internalType":"int64"},{"name":"conf","type":"uint64","internalType":"uint64"},{"name":"expo","type":"int32","internalType":"int32"},{"name":"publishTime","type":"uint256","internalType":"uint256"}]}]}],"stateMutability":"view"},{"type":"function","name":"updatePriceFeeds","inputs":[{"name":"updateData","type":"bytes[]","internalType":"bytes[]"}],"outputs":[],"stateMutability":"payable"},{"type":"function","name":"updatePriceFeedsIfNecessary","inputs":[{"name":"updateData","type":"bytes[]","internalType":"bytes[]"},{"name":"priceIds","type":"bytes32[]","internalType":"bytes32[]"},{"name":"publishTimes","type":"uint64[]","internalType":"uint64[]"}],"outputs":[],"stateMutability":"payable"},{"type":"event","name":"PriceFeedUpdate","inputs":[{"name":"id","type":"bytes32","indexed":true,"internalType":"bytes32"},{"name":"publishTime","type":"uint64","indexed":false,"internalType":"uint64"},{"name":"price","type":"int64","indexed":false,"internalType":"int64"},{"name":"conf","type":"uint64","indexed":false,"internalType":"uint64"}],"anonymous":false},{"type":"event","name":"TwapPriceFeedUpdate","inputs":[{"name":"id","type":"bytes32","indexed":true,"internalType":"bytes32"},{"name":"startTime","type":"uint64","indexed":false,"internalType":"uint64"},{"name":"endTime","type":"uint64","indexed":false,"internalType":"uint64"},{"name":"twapPrice","type":"int64","indexed":false,"internalType":"int64"},{"name":"twapConf","type":"uint64","indexed":false,"internalType":"uint64"},{"name":"downSlotsRatio","type":"uint32","indexed":false,"internalType":"uint32"}],"anonymous":false},{"type":"error","name":"InsufficientFee","inputs":[]},{"type":"error","name":"InvalidArgument","inputs":[]},{"type":"error","name":"InvalidTwapUpdateDataSet","inputs":[]},{"type":"error","name":"NoFreshUpdate","inputs":[]},{"type":"error","name":"PriceFeedNotFound","inputs":[]},{"type":"error","name":"PriceFeedNotFoundWithinRange","inputs":[]},{"type":"error","name":"StalePrice","inputs":[]}],"bytecode":{"object":"0x608034605657601f61172c38819003918201601f19168301916001600160401b03831184841017605a578084926040948552833981010312605657602081519101516001556002556040516116bd908161006f8239f35b5f80fd5b634e487b7160e01b5f52604160045260245ffdfe60806040526004361015610011575f80fd5b5f3560e01c806331d98b3f14610be157806346aa817014610b775780634716e9c514610b47578063711a2e2814610b2e5780639474f45b14610b0557806396834ad314610acd578063a4ae35e014610ab4578063a6445b4b146109cc578063accca7f91461063c578063b5dcc91114610605578063b5ec0261146105d2578063b9256d281461055c578063caaf43f11461052e578063d47eed45146104eb578063d9b81c3c146103df578063e18910a3146103c2578063eb942158146101195763ef9e5e28146100df575f80fd5b6020366003190112610115576004356001600160401b0381116101155761010d610113913690600401610c3d565b906111b4565b005b5f80fd5b6040366003190112610115576004356001600160401b03811161011557610144903690600401610c3d565b906024356001600160401b03811161011557610164903690600401610c3d565b929091610171828261109b565b34106103b457610180846110c6565b9361018e6040519586610e6b565b808552601f1961019d826110c6565b015f5b8181106103785750505f5b81811061020357856040518091602082016020835281518091526020604084019201905f5b8181106101de575050500390f35b919350916020610100826101f56001948851610db8565b0194019101918493926101d0565b61020e818387610f03565b35908415610364578335601e19853603018112156101155784019182356001600160401b03811161011557602084019080360382136101155784016020810191906101009086900312610115576040519061026882610e35565b35815261027760408601610c83565b91602082019283526101006102a261029160608901610c83565b92604085019384526080890161111e565b966060840197885201359563ffffffff87168703610115576080830196875284835103610355576001966001600160401b03807fd8b7774079faf4ab389d4e48b46d54e2bb8b66dd0de0d718f61730a9f3c92977968f8a8160a09961030a836103109561134d565b5261134d565b505116935116915163ffffffff6001600160401b036020835160070b93015116925116926040519485526020850152604084015260608301526080820152a2016101ab565b630196224b60e41b5f5260045ffd5b634e487b7160e01b5f52603260045260245ffd5b60209060405161038781610e35565b5f81525f838201525f604082015261039d610e8c565b60608201525f608082015282828a010152016101a0565b62976f7560e21b5f5260045ffd5b34610115575f366003190112610115576020600254604051908152f35b3461011557610100366003190112610115576024358060070b80910361011557610407610c6d565b6064358060030b809103610115576084358060070b8091036101155760a435936001600160401b0385168095036101155760c435916001600160401b0383168093036101155760e435936001600160401b038516809503610115576104e7968460608095610473610fc7565b996004358b5260208b01918251526001600160401b036020835101911690528460408251015251015260408701928351526020835101526040825101525101526104c4604051926020840190610d0f565b61014082015261014081526104db61016082610e6b565b60405191829182610d8e565b0390f35b34610115576020366003190112610115576004356001600160401b038111610115576105266105206020923690600401610c3d565b9061109b565b604051908152f35b346101155760203660031901126101155761012061054d600435611033565b61055a6040518092610d0f565bf35b6060366003190112610115576004356001600160401b03811161011557610587903690600401610c3d565b6024356001600160401b038111610115576105a6903690600401610c3d565b60443593916001600160401b038511610115576105ca610113953690600401610c3d565b949093610f13565b346101155760203660031901126101155760206105fb6004355f525f60205260405f2054151590565b6040519015158152f35b346101155760203660031901126101155761061e610e8c565b50608061062f600254600435610eb0565b61055a6040518092610c0b565b61064536610c97565b939490929190610655868261109b565b34106103b457610664826110c6565b946106726040519687610e6b565b828652601f19610681846110c6565b015f5b8181106109b5575050610696836110c6565b6106a36040519182610e6b565b838152601f196106b2856110c6565b013660208301375f5b8481106106d857604051602080825281906104e79082018b610d3a565b5f5b898110610717575b506106ed818961134d565b51516106fa828789610f03565b3503610708576001016106bb565b6345805f5d60e01b5f5260045ffd5b610728818b879b98999a949b6110dd565b8101610140828203126101155761012061074561074c9284611176565b9201610c83565b906107578b8961134d565b52606060206107668c8a61134d565b5101510151908a6001600160401b03831680610782838961134d565b5261078d828b61134d565b51515f525f6020528984600260405f20015410610846575b6107b092915061134d565b51516107bd8c8b8d610f03565b35146107d4575b50959891979695506001016106da565b6001600160401b03849a99989b941690828211159283610832575b508261081f575b50505f036106e257986001829a5f610814858d9a9b9d9c969c61134d565b5152919a99986107c4565b6001600160401b03161090508b806107f6565b6001600160401b038816101592508d6107ef565b7fd06a6b7f4918494b3719217d1802786c1f5112a6c1d88fe2cfec00b4584f6aec91610872848361134d565b5161087d858461134d565b51515f525f6020526004606060405f20928051845581600185016020830151908151815467ffffffffffffffff60401b602085015160401b16906001600160401b03604086015160801b63ffffffff60801b169316906001600160601b0360a01b16171717905501516002850155604060038501910151908151815467ffffffffffffffff60401b602085015160401b16906001600160401b03604086015160801b63ffffffff60801b169316906001600160601b0360a01b16171717905501519101556109aa6001600160401b0360208061097761095c898861134d565b5151988261096a828a61134d565b5101515160070b9761134d565b510151015116604051938493849160409194936001600160401b039182606086019716855260070b602085015216910152565b0390a28a8d896107a5565b6020906109c0610fc7565b82828b01015201610684565b346101155760e0366003190112610115576024356001600160401b038116809103610115576109f9610c6d565b90606435918260070b80930361011557608435926001600160401b0384168094036101155760a435938460030b8095036101155760c4359263ffffffff8416809403610115576104e7956001600160401b039260405194610a5986610e06565b8552602085015260408401521680606083015260405193610a7985610e35565b60043585526020850152604084015260608301526080820152610aa3604051916020830190610db8565b61010081526104db61012082610e6b565b3461011557608061062f610ac736610d78565b90610ef5565b3461011557602036600319011261011557610ae6610e8c565b5060806020610af6600435611033565b015161055a6040518092610c0b565b3461011557602036600319011261011557610b1e610e8c565b5060806040610af6600435611033565b3461011557608061062f610b4136610d78565b90610eb0565b6104e7610b62610b5636610c97565b94939093929192611361565b50604051918291602083526020830190610d3a565b610b9a610b86610b5636610c97565b604051928392604084526040840190610d3a565b8281036020840152602080835192838152019201905f5b818110610bbf575050500390f35b82516001600160401b0316845285945060209384019390920191600101610bb1565b3461011557602036600319011261011557610bfa610e8c565b50608061062f600254600435610ef5565b60608091805160070b84526001600160401b036020820151166020850152604081015160030b60408501520151910152565b9181601f84011215610115578235916001600160401b038311610115576020808501948460051b01011161011557565b604435906001600160401b038216820361011557565b35906001600160401b038216820361011557565b6080600319820112610115576004356001600160401b0381116101155781610cc191600401610c3d565b92909291602435906001600160401b03821161011557610ce391600401610c3d565b90916044356001600160401b038116810361011557906064356001600160401b03811681036101155790565b9060a06040610d389380518452610d2e60208201516020860190610c0b565b0151910190610c0b565b565b90602080835192838152019201905f5b818110610d575750505090565b909192602061012082610d6d6001948851610d0f565b019401929101610d4a565b6040906003190112610115576004359060243590565b602060409281835280519182918282860152018484015e5f828201840152601f01601f1916010190565b63ffffffff608060e092805185526001600160401b0360208201511660208601526001600160401b036040820151166040860152610dfe60608201516060870190610c0b565b015116910152565b608081019081106001600160401b03821117610e2157604052565b634e487b7160e01b5f52604160045260245ffd5b60a081019081106001600160401b03821117610e2157604052565b606081019081106001600160401b03821117610e2157604052565b90601f801991011681019081106001600160401b03821117610e2157604052565b60405190610e9982610e06565b5f6060838281528260208201528260408201520152565b610ecd604091610ebe610e8c565b50610ec7610e8c565b50611033565b015190610ede606083015142611669565b11610ee65790565b630cd5fa0760e11b5f5260045ffd5b610ecd602091610ebe610e8c565b91908110156103645760051b0190565b92939093858103610fb8575f5b818110610f3657636f162bfd60e11b5f5260045ffd5b610f55610f44828487610f03565b355f525f60205260405f2054151590565b158015610f77575b610f6957600101610f20565b50505050610d3892506111b4565b5060606020610f90610f8a848689610f03565b35611033565b01510151610f9f828986610f03565b35906001600160401b0382168092036101155710610f5d565b63a9cb9e0d60e01b5f5260045ffd5b60405190610fd482610e50565b815f8152610fe0610e8c565b60208201526040610fef610e8c565b910152565b9060405161100181610e06565b60606001829480548060070b85526001600160401b038160401c16602086015260801c60030b60408501520154910152565b61103b610fc7565b50805f525f60205260405f20541561108c575f525f60205260405f2061108460036040519261106984610e50565b8054845261107960018201610ff4565b602085015201610ff4565b604082015290565b630295d7cd60e31b5f5260045ffd5b506001548181029181830414901517156110b25790565b634e487b7160e01b5f52601160045260245ffd5b6001600160401b038111610e215760051b60200190565b91908110156103645760051b81013590601e19813603018212156101155701908135916001600160401b038311610115576020018236038113610115579190565b91908260809103126101155760405161113681610e06565b809280358060070b810361011557825261115260208201610c83565b602083015260408101358060030b8103610115576040830152606090810135910152565b919061012083820312610115576040610fef81519261119484610e50565b60a08496803586526111a9836020830161111e565b60208701520161111e565b91906111c0818461109b565b34106103b4575f5b8181106111d55750509050565b6111e08183866110dd565b8101919061012081840312610115576001926111fb91611176565b80515f525f602052600260405f200154602082019060608251015111611224575b5050016111c8565b7fd06a6b7f4918494b3719217d1802786c1f5112a6c1d88fe2cfec00b4584f6aec9082515f525f60205260405f206113436001600160401b0380865196878555898501955194855196805497602088019867ffffffffffffffff60401b8a5160401b16908660408b015160801b63ffffffff60801b169316906001600160601b0360a01b161717179055600460608088019384516002850155604060038501910151908151815467ffffffffffffffff60401b602085015160401b169089604086015160801b63ffffffff60801b169316906001600160601b0360a01b16171717905501519101555116925160070b935116604051938493849160409194936001600160401b039182606086019716855260070b602085015216910152565b0390a25f8061121c565b80518210156103645760209160051b010190565b95939495929092611372848261109b565b34106103b457611381826110c6565b9061138f6040519283610e6b565b828252601f1961139e846110c6565b015f5b81811061164557505081976113b5846110c6565b6113c26040519182610e6b565b848152601f196113d1866110c6565b0136602083013780985f5b8681106113ee57505050505050505050565b5f5b89811061141e575b50611403818761134d565b515161141082898b610f03565b3503610708576001016113dc565b611429818b886110dd565b810161014082820312610115576101206107456114469284611176565b50611451838961134d565b5260606020611460848a61134d565b51015101516001600160401b0381168061147a858861134d565b52611485848a61134d565b51515f525f60205281600260405f20015410611517575b506114a7838961134d565b51516114b4848b8d610f03565b35146114c4575b506001016113f0565b806001600160401b03851611159081611503575b50806114fb575b5f036113f8576001905f6114f3848a61134d565b5152906114bb565b5060016114df565b90506001600160401b03861610155f6114d8565b611521848a61134d565b5161152c858b61134d565b51515f525f6020526004606060405f20928051845581600185016020830151908151815467ffffffffffffffff60401b602085015160401b16906001600160401b03604086015160801b63ffffffff60801b169316906001600160601b0360a01b16171717905501516002850155604060038501910151908151815467ffffffffffffffff60401b602085015160401b16906001600160401b03604086015160801b63ffffffff60801b169316906001600160601b0360a01b16171717905501519101557fd06a6b7f4918494b3719217d1802786c1f5112a6c1d88fe2cfec00b4584f6aec8961161c868261134d565b51519261163c6001600160401b036020806109778b8261096a828a61134d565b0390a25f61149c565b602090611650610fc7565b828287010152016113a1565b919082039182116110b257565b8181111561167e579061167b9161165c565b90565b61167b9161165c56fea2646970667358221220ce14856bec58ba7e6e429de69e47016374856b8507cc685fe9abcc6927fb675964736f6c634300081a0033","linkReferences":{}},"methodIdentifiers":{"createPriceFeedUpdateData(bytes32,int64,uint64,int32,int64,uint64,uint64,uint64)":"d9b81c3c","createTwapPriceFeedUpdateData(bytes32,uint64,uint64,int64,uint64,int32,uint32)":"a6445b4b","getEmaPrice(bytes32)":"b5dcc911","getEmaPriceNoOlderThan(bytes32,uint256)":"711a2e28","getEmaPriceUnsafe(bytes32)":"9474f45b","getPrice(bytes32)":"31d98b3f","getPriceNoOlderThan(bytes32,uint256)":"a4ae35e0","getPriceUnsafe(bytes32)":"96834ad3","getUpdateFee(bytes[])":"d47eed45","getValidTimePeriod()":"e18910a3","parsePriceFeedUpdates(bytes[],bytes32[],uint64,uint64)":"4716e9c5","parsePriceFeedUpdatesUnique(bytes[],bytes32[],uint64,uint64)":"accca7f9","parsePriceFeedUpdatesWithSlots(bytes[],bytes32[],uint64,uint64)":"46aa8170","parseTwapPriceFeedUpdates(bytes[],bytes32[])":"eb942158","priceFeedExists(bytes32)":"b5ec0261","queryPriceFeed(bytes32)":"caaf43f1","updatePriceFeeds(bytes[])":"ef9e5e28","updatePriceFeedsIfNecessary(bytes[],bytes32[],uint64[])":"b9256d28"},"id":129}