{"abi":[{"type":"constructor","inputs":[{"name":"initialOwner","type":"address","internalType":"address"}],"stateMutability":"nonpayable"},{"type":"receive","stateMutability":"payable"},{"type":"function","name":"owner","inputs":[],"outputs":[{"name":"","type":"address","internalType":"address"}],"stateMutability":"view"},{"type":"function","name":"renounceOwnership","inputs":[],"outputs":[],"stateMutability":"nonpayable"},{"type":"function","name":"transferOwnership","inputs":[{"name":"newOwner","type":"address","internalType":"address"}],"outputs":[],"stateMutability":"nonpayable"},{"type":"function","name":"withdraw","inputs":[{"name":"_amount","type":"uint256","internalType":"uint256"},{"name":"_to","type":"address","internalType":"address payable"}],"outputs":[],"stateMutability":"nonpayable"},{"type":"function","name":"withdrawAll","inputs":[{"name":"_to","type":"address","internalType":"address payable"}],"outputs":[],"stateMutability":"nonpayable"},{"type":"event","name":"FeeReceived","inputs":[{"name":"from","type":"address","indexed":true,"internalType":"address"},{"name":"amount","type":"uint256","indexed":false,"internalType":"uint256"}],"anonymous":false},{"type":"event","name":"OwnerWithdrawal","inputs":[{"name":"to","type":"address","indexed":true,"internalType":"address"},{"name":"amount","type":"uint256","indexed":false,"internalType":"uint256"}],"anonymous":false},{"type":"event","name":"OwnershipTransferred","inputs":[{"name":"previousOwner","type":"address","indexed":true,"internalType":"address"},{"name":"newOwner","type":"address","indexed":true,"internalType":"address"}],"anonymous":false},{"type":"error","name":"NotEnoughBalance","inputs":[{"name":"requested","type":"uint256","internalType":"uint256"},{"name":"available","type":"uint256","internalType":"uint256"}]},{"type":"error","name":"WithdrawalFailed","inputs":[]},{"type":"error","name":"ZeroAddress","inputs":[{"name":"message","type":"string","internalType":"string"}]}],"bytecode":{"object":"0x60803461013057601f6105f938819003918201601f19168301916001600160401b038311848410176101345780849260209460405283398101031261013057516001600160a01b0381168082036101305761005933610148565b338103610070575b60405161046a908161018f8239f35b5f54336001600160a01b03909116036100ec57156100985761009190610148565b5f80610061565b60405162461bcd60e51b815260206004820152602660248201527f4f776e61626c653a206e6577206f776e657220697320746865207a65726f206160448201526564647265737360d01b6064820152608490fd5b606460405162461bcd60e51b815260206004820152602060248201527f4f776e61626c653a2063616c6c6572206973206e6f7420746865206f776e65726044820152fd5b5f80fd5b634e487b7160e01b5f52604160045260245ffd5b5f80546001600160a01b039283166001600160a01b03198216811783559216907f8be0079c531659141344cd1fd0a4f28419497f9722a3daafe3b4186f6b6457e09080a356fe6080604052600436101561004d575b3615610018575f80fd5b3461001f57005b6040513481527fbb527541f6cc244ae00ab689f8c23d072a30a3b4176021df62ea1c2bac8aa22660203392a2005b5f3560e01c8062f714ce146102c6578063715018a61461026f5780638da5cb5b14610248578063f2fde38b1461017e5763fa09e6300361000e573461017a57602036600319011261017a576004356001600160a01b0381169081900361017a576100b56103dd565b801561012a57478015610114575f80808084865af16100d2610378565b50156101055760207fa919fadcfa556a012bab31b15f596ea7ccd397adbf10e15f176db9055ab361c491604051908152a2005b6327fcd9d160e01b5f5260045ffd5b634787a10360e11b5f528060045260245260445ffd5b60405163eac0d38960e01b815260206004820152602160248201527f5769746864726177616c20616464726573732063616e6e6f74206265207a65726044820152606f60f81b6064820152608490fd5b5f80fd5b3461017a57602036600319011261017a576004356001600160a01b0381169081900361017a576101ac6103dd565b80156101f4575f80546001600160a01b03198116831782556001600160a01b0316907f8be0079c531659141344cd1fd0a4f28419497f9722a3daafe3b4186f6b6457e09080a3005b60405162461bcd60e51b815260206004820152602660248201527f4f776e61626c653a206e6577206f776e657220697320746865207a65726f206160448201526564647265737360d01b6064820152608490fd5b3461017a575f36600319011261017a575f546040516001600160a01b039091168152602090f35b3461017a575f36600319011261017a576102876103dd565b5f80546001600160a01b0319811682556001600160a01b03167f8be0079c531659141344cd1fd0a4f28419497f9722a3daafe3b4186f6b6457e08280a3005b3461017a57604036600319011261017a576024356001600160a01b038116906004359082900361017a576102f86103dd565b811561012a574781156103335780821161031d57505f80808084865af16100d2610378565b90634787a10360e11b5f5260045260245260445ffd5b606460405163eac0d38960e01b815260206004820152602060248201527f5769746864726177616c20616d6f756e742063616e6e6f74206265207a65726f6044820152fd5b3d156103d8573d9067ffffffffffffffff82116103c45760405191601f8101601f19908116603f0116830167ffffffffffffffff8111848210176103c45760405282523d5f602084013e565b634e487b7160e01b5f52604160045260245ffd5b606090565b5f546001600160a01b031633036103f057565b606460405162461bcd60e51b815260206004820152602060248201527f4f776e61626c653a2063616c6c6572206973206e6f7420746865206f776e65726044820152fdfea26469706673582212201693a9fe77014c3fb456a087d91c10a690b5f05725a771e1b2abaf623bf708e164736f6c634300081a0033","linkReferences":{}},"methodIdentifiers":{"owner()":"8da5cb5b","renounceOwnership()":"715018a6","transferOwnership(address)":"f2fde38b","withdraw(uint256,address)":"00f714ce","withdrawAll(address)":"fa09e630"},"id":112}