{"abi":[{"type":"constructor","inputs":[],"stateMutability":"nonpayable"},{"type":"function","name":"decimals","inputs":[],"outputs":[{"name":"","type":"uint8","internalType":"uint8"}],"stateMutability":"pure"},{"type":"function","name":"description","inputs":[],"outputs":[{"name":"","type":"string","internalType":"string"}],"stateMutability":"pure"},{"type":"function","name":"getRoundData","inputs":[{"name":"_roundId","type":"uint80","internalType":"uint80"}],"outputs":[{"name":"","type":"uint80","internalType":"uint80"},{"name":"","type":"int256","internalType":"int256"},{"name":"","type":"uint256","internalType":"uint256"},{"name":"","type":"uint256","internalType":"uint256"},{"name":"","type":"uint80","internalType":"uint80"}],"stateMutability":"view"},{"type":"function","name":"latestRoundData","inputs":[],"outputs":[{"name":"","type":"uint80","internalType":"uint80"},{"name":"","type":"int256","internalType":"int256"},{"name":"","type":"uint256","internalType":"uint256"},{"name":"","type":"uint256","internalType":"uint256"},{"name":"","type":"uint80","internalType":"uint80"}],"stateMutability":"view"},{"type":"function","name":"latestRoundId","inputs":[],"outputs":[{"name":"","type":"uint80","internalType":"uint80"}],"stateMutability":"view"},{"type":"function","name":"rounds","inputs":[{"name":"","type":"uint80","internalType":"uint80"}],"outputs":[{"name":"roundId","type":"uint80","internalType":"uint80"},{"name":"answer","type":"int256","internalType":"int256"},{"name":"startedAt","type":"uint256","internalType":"uint256"},{"name":"updatedAt","type":"uint256","internalType":"uint256"},{"name":"answeredInRound","type":"uint80","internalType":"uint80"}],"stateMutability":"view"},{"type":"function","name":"setLatestAnswer","inputs":[{"name":"_answer","type":"int256","internalType":"int256"}],"outputs":[],"stateMutability":"nonpayable"},{"type":"function","name":"setLatestRoundData","inputs":[{"name":"_roundId","type":"uint80","internalType":"uint80"},{"name":"_answer","type":"int256","internalType":"int256"},{"name":"_startedAt","type":"uint256","internalType":"uint256"},{"name":"_updatedAt","type":"uint256","internalType":"uint256"},{"name":"_answeredInRound","type":"uint80","internalType":"uint80"}],"outputs":[],"stateMutability":"nonpayable"},{"type":"function","name":"setUpdatedAt","inputs":[{"name":"_updatedAt","type":"uint256","internalType":"uint256"}],"outputs":[],"stateMutability":"nonpayable"},{"type":"function","name":"version","inputs":[],"outputs":[{"name":"","type":"uint256","internalType":"uint256"}],"stateMutability":"pure"}],"bytecode":{"object":"0x60803461015f57600180546001600160501b0319168117905560a081016001600160401b0381118282101761014b5760409081526001808352642e90edd00060208085019182524285850181815260608701918252608087018581525f9586529490925294517fada5013122d395ba3c54772283fb069b10426056ef8ca54750cb9bb552a59e7d80546001600160501b039283166001600160501b03199182161790915592517fada5013122d395ba3c54772283fb069b10426056ef8ca54750cb9bb552a59e7e5590517fada5013122d395ba3c54772283fb069b10426056ef8ca54750cb9bb552a59e7f5593517fada5013122d395ba3c54772283fb069b10426056ef8ca54750cb9bb552a59e805590517fada5013122d395ba3c54772283fb069b10426056ef8ca54750cb9bb552a59e818054919094169116179091555161064690816101648239f35b634e487b7160e01b5f52604160045260245ffd5b5f80fdfe60806040526004361015610011575f80fd5b5f3560e01c806304ea97b01461051d57806311a8f413146104f75780631ecc7d88146104c55780632ede662f14610435578063313ce5671461041a5780634005e6811461024a57806354fd4d501461022f5780637284e416146101955780639a6fc8f5146100e05763feaf968c14610087575f80fd5b346100dc575f3660031901126100dc576100d86100a261058c565b604080516001600160501b03968716815260208101959095528401929092526060830152909116608082015290819060a0820190565b0390f35b5f80fd5b346100dc5760203660031901126100dc576001600160501b03610101610556565b165f525f60205260405f2061011461056c565b906100d860806001600160501b03835416928385526001810154948560208201526002820154908160408201526001600160501b036004600385015494856060850152015416938491015260405195869586936080936001600160501b0393979692978460a088019916875260208701526040860152606085015216910152565b346100dc575f3660031901126100dc576040516040810181811067ffffffffffffffff82111761021b5760405260178152604060208201917f4d6f636b204554482f5553442041676772656761746f7200000000000000000083528151928391602083525180918160208501528484015e5f828201840152601f01601f19168101030190f35b634e487b7160e01b5f52604160045260245ffd5b346100dc575f3660031901126100dc57602060405160018152f35b346100dc5760a03660031901126100dc57610263610556565b6024359060443560643590608435926001600160501b0384168094036100dc576001600160501b031693841561031957926004926001600160501b039492859387851960015416176001556102b661056c565b97808952602089019182526040890192835260608901938452608089019485525f525f602052848060405f209951161685198954161788555160018801555160028701555160038601555116920191166001600160501b03198254161790555f80f35b93506001600160501b0392600492849283196001541660015561033a61056c565b5f8082526020808301998a5260408301938452606083019485526080830195865281805252517fad3228b676f7d3cd4284a5443f17f1962b36e491b30a40b2405849e597ba5fb5805486191691861691909117815596517fad3228b676f7d3cd4284a5443f17f1962b36e491b30a40b2405849e597ba5fb655517fad3228b676f7d3cd4284a5443f17f1962b36e491b30a40b2405849e597ba5fb755517fad3228b676f7d3cd4284a5443f17f1962b36e491b30a40b2405849e597ba5fb8555191909301805469ffffffffffffffffffff19169190931691909116179055005b346100dc575f3660031901126100dc57602060405160088152f35b346100dc5760203660031901126100dc576001600160501b03610456610556565b165f525f60205260405f206001600160501b038154166100d86001830154926002810154906001600160501b0360046003830154920154169160405195869586936080936001600160501b0393979692978460a088019916875260208701526040860152606085015216910152565b346100dc5760203660031901126100dc576001600160501b03600154165f525f602052600435600360405f2001555f80f35b346100dc575f3660031901126100dc5760206001600160501b0360015416604051908152f35b346100dc5760203660031901126100dc576001600160501b03600154165f525f60205260405f2060043560018201556003429101555f80f35b600435906001600160501b03821682036100dc57565b6040519060a0820182811067ffffffffffffffff82111761021b57604052565b6001600160501b03600154165f525f60205260405f206105aa61056c565b9060806001600160501b03825416938484526001830154948560208601526002840154948560408201526001600160501b036004600387015496876060850152015416938491015280156105ff579493929190565b505f9450849350839250829150819056fea2646970667358221220bfd36030489393b1402c18b9979dd9ddfb0d8535c3aca47239eb171f7259703d64736f6c634300081a0033","linkReferences":{}},"methodIdentifiers":{"decimals()":"313ce567","description()":"7284e416","getRoundData(uint80)":"9a6fc8f5","latestRoundData()":"feaf968c","latestRoundId()":"11a8f413","rounds(uint80)":"2ede662f","setLatestAnswer(int256)":"04ea97b0","setLatestRoundData(uint80,int256,uint256,uint256,uint80)":"4005e681","setUpdatedAt(uint256)":"1ecc7d88","version()":"54fd4d50"},"id":161}