{"abi":[{"type":"constructor","inputs":[{"name":"_poolManager","type":"address","internalType":"contract IPoolManager"},{"name":"_predictionManagerAddress","type":"address","internalType":"address"}],"stateMutability":"nonpayable"},{"type":"receive","stateMutability":"payable"},{"type":"function","name":"afterAddLiquidity","inputs":[{"name":"sender","type":"address","internalType":"address"},{"name":"key","type":"tuple","internalType":"struct PoolKey","components":[{"name":"currency0","type":"address","internalType":"Currency"},{"name":"currency1","type":"address","internalType":"Currency"},{"name":"fee","type":"uint24","internalType":"uint24"},{"name":"tickSpacing","type":"int24","internalType":"int24"},{"name":"hooks","type":"address","internalType":"contract IHooks"}]},{"name":"params","type":"tuple","internalType":"struct ModifyLiquidityParams","components":[{"name":"tickLower","type":"int24","internalType":"int24"},{"name":"tickUpper","type":"int24","internalType":"int24"},{"name":"liquidityDelta","type":"int256","internalType":"int256"},{"name":"salt","type":"bytes32","internalType":"bytes32"}]},{"name":"delta","type":"int256","internalType":"BalanceDelta"},{"name":"feesAccrued","type":"int256","internalType":"BalanceDelta"},{"name":"hookData","type":"bytes","internalType":"bytes"}],"outputs":[{"name":"","type":"bytes4","internalType":"bytes4"},{"name":"","type":"int256","internalType":"BalanceDelta"}],"stateMutability":"nonpayable"},{"type":"function","name":"afterDonate","inputs":[{"name":"sender","type":"address","internalType":"address"},{"name":"key","type":"tuple","internalType":"struct PoolKey","components":[{"name":"currency0","type":"address","internalType":"Currency"},{"name":"currency1","type":"address","internalType":"Currency"},{"name":"fee","type":"uint24","internalType":"uint24"},{"name":"tickSpacing","type":"int24","internalType":"int24"},{"name":"hooks","type":"address","internalType":"contract IHooks"}]},{"name":"amount0","type":"uint256","internalType":"uint256"},{"name":"amount1","type":"uint256","internalType":"uint256"},{"name":"hookData","type":"bytes","internalType":"bytes"}],"outputs":[{"name":"","type":"bytes4","internalType":"bytes4"}],"stateMutability":"nonpayable"},{"type":"function","name":"afterInitialize","inputs":[{"name":"sender","type":"address","internalType":"address"},{"name":"key","type":"tuple","internalType":"struct PoolKey","components":[{"name":"currency0","type":"address","internalType":"Currency"},{"name":"currency1","type":"address","internalType":"Currency"},{"name":"fee","type":"uint24","internalType":"uint24"},{"name":"tickSpacing","type":"int24","internalType":"int24"},{"name":"hooks","type":"address","internalType":"contract IHooks"}]},{"name":"sqrtPriceX96","type":"uint160","internalType":"uint160"},{"name":"tick","type":"int24","internalType":"int24"}],"outputs":[{"name":"","type":"bytes4","internalType":"bytes4"}],"stateMutability":"nonpayable"},{"type":"function","name":"afterRemoveLiquidity","inputs":[{"name":"sender","type":"address","internalType":"address"},{"name":"key","type":"tuple","internalType":"struct PoolKey","components":[{"name":"currency0","type":"address","internalType":"Currency"},{"name":"currency1","type":"address","internalType":"Currency"},{"name":"fee","type":"uint24","internalType":"uint24"},{"name":"tickSpacing","type":"int24","internalType":"int24"},{"name":"hooks","type":"address","internalType":"contract IHooks"}]},{"name":"params","type":"tuple","internalType":"struct ModifyLiquidityParams","components":[{"name":"tickLower","type":"int24","internalType":"int24"},{"name":"tickUpper","type":"int24","internalType":"int24"},{"name":"liquidityDelta","type":"int256","internalType":"int256"},{"name":"salt","type":"bytes32","internalType":"bytes32"}]},{"name":"delta","type":"int256","internalType":"BalanceDelta"},{"name":"feesAccrued","type":"int256","internalType":"BalanceDelta"},{"name":"hookData","type":"bytes","internalType":"bytes"}],"outputs":[{"name":"","type":"bytes4","internalType":"bytes4"},{"name":"","type":"int256","internalType":"BalanceDelta"}],"stateMutability":"nonpayable"},{"type":"function","name":"afterSwap","inputs":[{"name":"sender","type":"address","internalType":"address"},{"name":"key","type":"tuple","internalType":"struct PoolKey","components":[{"name":"currency0","type":"address","internalType":"Currency"},{"name":"currency1","type":"address","internalType":"Currency"},{"name":"fee","type":"uint24","internalType":"uint24"},{"name":"tickSpacing","type":"int24","internalType":"int24"},{"name":"hooks","type":"address","internalType":"contract IHooks"}]},{"name":"params","type":"tuple","internalType":"struct SwapParams","components":[{"name":"zeroForOne","type":"bool","internalType":"bool"},{"name":"amountSpecified","type":"int256","internalType":"int256"},{"name":"sqrtPriceLimitX96","type":"uint160","internalType":"uint160"}]},{"name":"delta","type":"int256","internalType":"BalanceDelta"},{"name":"hookData","type":"bytes","internalType":"bytes"}],"outputs":[{"name":"","type":"bytes4","internalType":"bytes4"},{"name":"","type":"int128","internalType":"int128"}],"stateMutability":"nonpayable"},{"type":"function","name":"beforeAddLiquidity","inputs":[{"name":"sender","type":"address","internalType":"address"},{"name":"key","type":"tuple","internalType":"struct PoolKey","components":[{"name":"currency0","type":"address","internalType":"Currency"},{"name":"currency1","type":"address","internalType":"Currency"},{"name":"fee","type":"uint24","internalType":"uint24"},{"name":"tickSpacing","type":"int24","internalType":"int24"},{"name":"hooks","type":"address","internalType":"contract IHooks"}]},{"name":"params","type":"tuple","internalType":"struct ModifyLiquidityParams","components":[{"name":"tickLower","type":"int24","internalType":"int24"},{"name":"tickUpper","type":"int24","internalType":"int24"},{"name":"liquidityDelta","type":"int256","internalType":"int256"},{"name":"salt","type":"bytes32","internalType":"bytes32"}]},{"name":"hookData","type":"bytes","internalType":"bytes"}],"outputs":[{"name":"","type":"bytes4","internalType":"bytes4"}],"stateMutability":"nonpayable"},{"type":"function","name":"beforeDonate","inputs":[{"name":"sender","type":"address","internalType":"address"},{"name":"key","type":"tuple","internalType":"struct PoolKey","components":[{"name":"currency0","type":"address","internalType":"Currency"},{"name":"currency1","type":"address","internalType":"Currency"},{"name":"fee","type":"uint24","internalType":"uint24"},{"name":"tickSpacing","type":"int24","internalType":"int24"},{"name":"hooks","type":"address","internalType":"contract IHooks"}]},{"name":"amount0","type":"uint256","internalType":"uint256"},{"name":"amount1","type":"uint256","internalType":"uint256"},{"name":"hookData","type":"bytes","internalType":"bytes"}],"outputs":[{"name":"","type":"bytes4","internalType":"bytes4"}],"stateMutability":"nonpayable"},{"type":"function","name":"beforeInitialize","inputs":[{"name":"sender","type":"address","internalType":"address"},{"name":"key","type":"tuple","internalType":"struct PoolKey","components":[{"name":"currency0","type":"address","internalType":"Currency"},{"name":"currency1","type":"address","internalType":"Currency"},{"name":"fee","type":"uint24","internalType":"uint24"},{"name":"tickSpacing","type":"int24","internalType":"int24"},{"name":"hooks","type":"address","internalType":"contract IHooks"}]},{"name":"sqrtPriceX96","type":"uint160","internalType":"uint160"}],"outputs":[{"name":"","type":"bytes4","internalType":"bytes4"}],"stateMutability":"nonpayable"},{"type":"function","name":"beforeRemoveLiquidity","inputs":[{"name":"sender","type":"address","internalType":"address"},{"name":"key","type":"tuple","internalType":"struct PoolKey","components":[{"name":"currency0","type":"address","internalType":"Currency"},{"name":"currency1","type":"address","internalType":"Currency"},{"name":"fee","type":"uint24","internalType":"uint24"},{"name":"tickSpacing","type":"int24","internalType":"int24"},{"name":"hooks","type":"address","internalType":"contract IHooks"}]},{"name":"params","type":"tuple","internalType":"struct ModifyLiquidityParams","components":[{"name":"tickLower","type":"int24","internalType":"int24"},{"name":"tickUpper","type":"int24","internalType":"int24"},{"name":"liquidityDelta","type":"int256","internalType":"int256"},{"name":"salt","type":"bytes32","internalType":"bytes32"}]},{"name":"hookData","type":"bytes","internalType":"bytes"}],"outputs":[{"name":"","type":"bytes4","internalType":"bytes4"}],"stateMutability":"nonpayable"},{"type":"function","name":"beforeSwap","inputs":[{"name":"sender","type":"address","internalType":"address"},{"name":"key","type":"tuple","internalType":"struct PoolKey","components":[{"name":"currency0","type":"address","internalType":"Currency"},{"name":"currency1","type":"address","internalType":"Currency"},{"name":"fee","type":"uint24","internalType":"uint24"},{"name":"tickSpacing","type":"int24","internalType":"int24"},{"name":"hooks","type":"address","internalType":"contract IHooks"}]},{"name":"params","type":"tuple","internalType":"struct SwapParams","components":[{"name":"zeroForOne","type":"bool","internalType":"bool"},{"name":"amountSpecified","type":"int256","internalType":"int256"},{"name":"sqrtPriceLimitX96","type":"uint160","internalType":"uint160"}]},{"name":"hookData","type":"bytes","internalType":"bytes"}],"outputs":[{"name":"","type":"bytes4","internalType":"bytes4"},{"name":"","type":"int256","internalType":"BeforeSwapDelta"},{"name":"","type":"uint24","internalType":"uint24"}],"stateMutability":"nonpayable"},{"type":"function","name":"getHookPermissions","inputs":[],"outputs":[{"name":"permissions","type":"tuple","internalType":"struct Hooks.Permissions","components":[{"name":"beforeInitialize","type":"bool","internalType":"bool"},{"name":"afterInitialize","type":"bool","internalType":"bool"},{"name":"beforeAddLiquidity","type":"bool","internalType":"bool"},{"name":"afterAddLiquidity","type":"bool","internalType":"bool"},{"name":"beforeRemoveLiquidity","type":"bool","internalType":"bool"},{"name":"afterRemoveLiquidity","type":"bool","internalType":"bool"},{"name":"beforeSwap","type":"bool","internalType":"bool"},{"name":"afterSwap","type":"bool","internalType":"bool"},{"name":"beforeDonate","type":"bool","internalType":"bool"},{"name":"afterDonate","type":"bool","internalType":"bool"},{"name":"beforeSwapReturnDelta","type":"bool","internalType":"bool"},{"name":"afterSwapReturnDelta","type":"bool","internalType":"bool"},{"name":"afterAddLiquidityReturnDelta","type":"bool","internalType":"bool"},{"name":"afterRemoveLiquidityReturnDelta","type":"bool","internalType":"bool"}]}],"stateMutability":"pure"},{"type":"function","name":"poolManager","inputs":[],"outputs":[{"name":"","type":"address","internalType":"contract IPoolManager"}],"stateMutability":"view"},{"type":"function","name":"predictionManager","inputs":[],"outputs":[{"name":"","type":"address","internalType":"contract IPredictionManager"}],"stateMutability":"view"},{"type":"event","name":"PredictionAttempted","inputs":[{"name":"user","type":"address","indexed":true,"internalType":"address"},{"name":"poolId","type":"bytes32","indexed":true,"internalType":"PoolId"},{"name":"marketId","type":"uint256","indexed":false,"internalType":"uint256"},{"name":"outcome","type":"uint8","indexed":false,"internalType":"enum PredictionTypes.Outcome"},{"name":"convictionStake","type":"uint128","indexed":false,"internalType":"uint128"}],"anonymous":false},{"type":"event","name":"PredictionFailed","inputs":[{"name":"user","type":"address","indexed":true,"internalType":"address"},{"name":"poolId","type":"bytes32","indexed":true,"internalType":"PoolId"},{"name":"marketId","type":"uint256","indexed":false,"internalType":"uint256"},{"name":"outcome","type":"uint8","indexed":false,"internalType":"enum PredictionTypes.Outcome"},{"name":"convictionStake","type":"uint128","indexed":false,"internalType":"uint128"},{"name":"errorSelector","type":"bytes4","indexed":false,"internalType":"bytes4"}],"anonymous":false},{"type":"event","name":"PredictionRecorded","inputs":[{"name":"user","type":"address","indexed":true,"internalType":"address"},{"name":"poolId","type":"bytes32","indexed":true,"internalType":"PoolId"},{"name":"marketId","type":"uint256","indexed":false,"internalType":"uint256"},{"name":"outcome","type":"uint8","indexed":false,"internalType":"enum PredictionTypes.Outcome"},{"name":"convictionStake","type":"uint128","indexed":false,"internalType":"uint128"}],"anonymous":false},{"type":"error","name":"HookNotImplemented","inputs":[]},{"type":"error","name":"InvalidHookDataLength","inputs":[{"name":"actualLength","type":"uint256","internalType":"uint256"},{"name":"expectedLength","type":"uint256","internalType":"uint256"}]},{"type":"error","name":"NoConvictionStakeDeclaredInHookData","inputs":[]},{"type":"error","name":"NotPoolManager","inputs":[]},{"type":"error","name":"PredictionPoolZeroAddress","inputs":[]},{"type":"error","name":"PredictionRecordingFailed","inputs":[{"name":"reason","type":"string","internalType":"string"}]}],"bytecode":{"object":"0x60c0604052346102bc57604051601f61155e38819003918201601f19168301916001600160401b038311848410176102c05780849260409485528339810103126102bc578051906001600160a01b03821682036102bc57602001516001600160a01b03811691908290036102bc576080525f6101a061007c6102d4565b8281528260208201528260408201528260608201528260808201528260a08201528260c08201528260e0820152826101008201528261012082015282610140820152826101608201528261018082015201525f6101a06100da6102d4565b8281528260208201528260408201528260608201528260808201528260a08201528260c0820152600160e0820152826101008201528261012082015282610140820152826101608201528261018082015201526120003016158015906102af575b80156102a2575b8015610295575b8015610288575b801561027b575b801561026f575b801561025f575b8015610253575b8015610247575b801561023b575b801561022f575b8015610223575b8015610217575b6102045780156101f55760a05260405161126990816102f582396080518181816101a30152818161025a0152818161030c015281816103aa0152818161043c015281816104fc015281816107010152610763015260a0518181816107b50152610e2b0152f35b630fc73f1f60e01b5f5260045ffd5b630732d7b560e51b5f523060045260245ffd5b5060013016151561018f565b50600230161515610188565b50600430161515610181565b5060083016151561017a565b50601030161515610173565b5060203016151561016c565b5060403016151560011415610165565b5060803016151561015e565b5061010030161515610157565b5061020030161515610150565b5061040030161515610149565b5061080030161515610142565b506110003016151561013b565b5f80fd5b634e487b7160e01b5f52604160045260245ffd5b604051906101c082016001600160401b038111838210176102c05760405256fe6080604052600436101561001a575b3615610018575f80fd5b005b5f3560e01c806321d0ee70146100da578063259982e5146100da578063575e24b4146100d55780636c2bbe7e146100cb5780636fe7e6eb146100d05780639f063efc146100cb578063b47b2fb1146100c6578063b6a8b0fa146100b2578063c4e833ce146100c1578063dc4c90d3146100bc578063dc98354e146100b7578063e1b4af69146100b25763ee687a980361000e576107a0565b6104e9565b610730565b6106ec565b610605565b6103e7565b6102f9565b61036d565b610204565b610190565b6001600160a01b038116036100f057565b5f80fd5b60a09060231901126100f057602490565b9181601f840112156100f05782359167ffffffffffffffff83116100f057602083818601950101116100f057565b906101606003198301126100f05760043561014d816100df565b9160a06023198201126100f057602491608060c3198301126100f05760c491610144359067ffffffffffffffff82116100f05761018c91600401610105565b9091565b346100f05761019e36610133565b5050507f00000000000000000000000000000000000000000000000000000000000000006001600160a01b0316330391506101e4905057630a85dc2960e01b5f5260045ffd5b63570c108560e11b5f5260045ffd5b60609060c31901126100f05760c490565b346100f0576101403660031901126100f0576102216004356100df565b61022a366100f4565b50610234366101f3565b506101243567ffffffffffffffff81116100f057610256903690600401610105565b50507f00000000000000000000000000000000000000000000000000000000000000006001600160a01b031633036101e457630a85dc2960e01b5f5260045ffd5b906101a06003198301126100f0576004356102b1816100df565b9160a06023198201126100f057602491608060c48303126100f05760c49161014435916101643591610184359067ffffffffffffffff82116100f05761018c91600401610105565b346100f05761030736610297565b5050507f00000000000000000000000000000000000000000000000000000000000000006001600160a01b0316330393506101e49250505057630a85dc2960e01b5f5260045ffd5b60e435908160020b82036100f057565b35908160020b82036100f057565b346100f0576101003660031901126100f05761038a6004356100df565b610393366100f4565b5061039f60c4356100df565b6103a761034f565b507f00000000000000000000000000000000000000000000000000000000000000006001600160a01b031633036101e457630a85dc2960e01b5f5260045ffd5b346100f0576101603660031901126100f057600435610405816100df565b61040e366100f4565b610417366101f3565b506101443567ffffffffffffffff81116100f057610439903690600401610105565b917f00000000000000000000000000000000000000000000000000000000000000006001600160a01b031633036101e45761047393610d97565b604080516001600160e01b0319939093168352600f9190910b602083015290f35b0390f35b6101206003198201126100f0576004356104b1816100df565b9160a06023198301126100f05760249160c4359160e43591610104359067ffffffffffffffff82116100f05761018c91600401610105565b346100f0576104f736610498565b5050507f00000000000000000000000000000000000000000000000000000000000000006001600160a01b0316330392506101e491505057630a85dc2960e01b5f5260045ffd5b5f9103126100f057565b610603909291926101a0806101c083019561056584825115159052565b60208181015115159085015260408181015115159085015260608181015115159085015260808181015115159085015260a08181015115159085015260c08181015115159085015260e081810151151590850152610100818101511515908501526101208181015115159085015261014081810151151590850152610160818101511515908501526101808181015115159085015201511515910152565b565b346100f0575f3660031901126100f0575f6101a0604051610625816107f8565b8281528260208201528260408201528260608201528260808201528260a08201528260c08201528260e08201528261010082015282610120820152826101408201528261016082015282610180820152015261049461068261083c565b5f81525f60208201525f60408201525f60608201525f60808201525f60a08201525f60c08201526106b660e0820160019052565b5f6101008201525f6101208201525f6101408201525f6101608201525f6101808201525f6101a082015260405191829182610548565b346100f0575f3660031901126100f0576040517f00000000000000000000000000000000000000000000000000000000000000006001600160a01b03168152602090f35b346100f05760e03660031901126100f05761074c6004356100df565b610755366100f4565b5061076160c4356100df565b7f00000000000000000000000000000000000000000000000000000000000000006001600160a01b031633036101e457630a85dc2960e01b5f5260045ffd5b346100f0575f3660031901126100f0576040517f00000000000000000000000000000000000000000000000000000000000000006001600160a01b03168152602090f35b634e487b7160e01b5f52604160045260245ffd5b6101c0810190811067ffffffffffffffff82111761081557604052565b6107e4565b90601f8019910116810190811067ffffffffffffffff82111761081557604052565b604051906106036101c08361081a565b91908260a09103126100f05760405160a0810181811067ffffffffffffffff8211176108155760405280928035610882816100df565b82526020810135610892816100df565b6020830152604081013562ffffff811681036100f057608091829160408501526108be6060820161035f565b60608501520135916108cf836100df565b0152565b9060028210156108e05752565b634e487b7160e01b5f52602160045260245ffd5b9160409194936109176001600160801b03926060860197865260208601906108d3565b16910152565b908160209103126100f0575190565b6040513d5f823e3d90fd5b634e487b7160e01b5f52601160045260245ffd5b8181029291811591840414171561095e57565b610937565b906004820180921161095e57565b9190820180921161095e57565b67ffffffffffffffff811161081557601f01601f191660200190565b604051906109a960608361081a565b60248252633731b29d60e11b6040837f5377617043617374486f6f6b3a20616464726573732874686973292e62616c6160208201520152565b604051906109f160408361081a565b601d82527f5377617043617374486f6f6b3a20746f74616c457468546f53656e643a0000006020830152565b60405190610a2c60a08361081a565b6062825261149d60f11b6080837f5377617043617374486f6f6b3a206d73672e76616c756520726563656976656460208201527f206279205f616674657253776170202873686f756c6420626520746869732e6260408201527f616c616e636520696620686f6f6b20737461727473207769746820302045544860608201520152565b92936109176001600160801b03929695606094608087019860018060a01b03168752602087015260408601906108d3565b3d15610b0a573d90610af18261097e565b91610aff604051938461081a565b82523d5f602084013e565b606090565b60405190610b1e60408361081a565b601082526f2ab735b737bbb72837b7b622b93937b960811b6020830152565b60405190610b4c60608361081a565b603582527430b7103ab739b832b1b4b334b2b21032b93937b91760591b6040837f50726564696374696f6e4d616e6167657220726576657274656420776974682060208201520152565b60405190610ba560608361081a565b603882527f6e6f6e2d7374616e64617264206572726f7220646174612e00000000000000006040837f50726564696374696f6e4d616e6167657220726576657274656420776974682060208201520152565b60405190610c0660608361081a565b602f82526e309031bab9ba37b69032b93937b91760891b6040837f50726564696374696f6e4d616e6167657220726576657274656420776974682060208201520152565b60031981019190821161095e57565b90610c638261097e565b610c70604051918261081a565b8281528092610c81601f199161097e565b0190602036910137565b908151811015610c9c570160200190565b634e487b7160e01b5f52603260045260245ffd5b6020818303126100f05780519067ffffffffffffffff82116100f0570181601f820112156100f057805190610ce48261097e565b92610cf2604051948561081a565b828452602083830101116100f057815f9260208093018386015e8301015290565b805191908290602001825e015f815290565b926001600160801b0390610d4a606094979693976080870198875260208701906108d3565b1660408401526001600160e01b031916910152565b805180835260209291819084018484015e5f828201840152601f01601f1916010190565b906020610d94928181520190610d5f565b90565b909293919380156111ab57603181036111945750833593602160208201355f1a91013560801c92610dd2610dcb368761084c565b60a0902090565b6040516001600160a01b03851694919085907f4b0bf870a72b904fa9cd8c35eec73cdb739e4f6e2ea5b57d6076e2ddf492ded89080610e138a898e846108f4565b0390a384156111855760405163b2b85d9360e01b81527f00000000000000000000000000000000000000000000000000000000000000006001600160a01b03169190602081600481865afa801561118057610e7d610e8591610e8b935f91611151575b508961094b565b612710900490565b87610971565b610e9c47610e9761099a565b6111bc565b610ea881610e976109e2565b610eb434610e97610a1d565b823b156100f05786928986925f94610ee2604051978896879586946338299f1560e21b865260048601610aaf565b03925af19081611137575b506110e55750610efb610ae0565b94610f1a610f07610b0f565b6020815191012063ffffffff60e01b1690565b610f22610b3d565b8751909190600481106110855750505060208601516001600160e01b0319811662461bcd60e51b0361105857610f588751610c4a565b610f6181610c59565b905f5b81811061101f57505061101b97505f80516020611214833981519152939291610ff2610dcb610fdb610fe9610fa586602080610fff99518301019101610cb0565b6040517f50726564696374696f6e4d616e61676572204572726f723a200000000000000060208201529283916039830190610d13565b03601f19810183528261081a565b995b369061084c565b9660405194859485610d25565b0390a3604051639b964ca960e01b815291829160048301610d83565b0390fd5b80611045611037611031600194610963565b8d610c8b565b516001600160f81b03191690565b5f1a6110518286610c8b565b5301610f64565b61101b965090610fff5f805160206112148339815191529392610ff2610dcb61107f610bf7565b99610feb565b61101b9850969091966110b3575b5f80516020611214833981519152939291610ff2610dcb610fff93610feb565b955090610fff5f805160206112148339815191529392610ff2610dcb6110d7610b96565b999350505091929350611093565b9461112761111a610dcb7feaac43659a7f96f8a96efe670b9d0262f89f36e25d246fce7a8b4128a2bd0075959697369061084c565b95604051938493846108f4565b0390a363b47b2fb160e01b905f90565b806111455f61114b9361081a565b8061053e565b5f610eed565b611173915060203d602011611179575b61116b818361081a565b81019061091d565b5f610e76565b503d611161565b61092c565b638c10cabd60e01b5f5260045ffd5b636569eeb760e01b5f52600452603160245260445ffd5b5063b47b2fb160e01b93505f925050565b5f9190829161120060405180926111ec6020830195632d839cb360e21b8752604060248501526064840190610d5f565b90604483015203601f19810183528261081a565b51906a636f6e736f6c652e6c6f675afa5056feb05fa7d8d55f2201119132f3d6a144c7acdf9a731eb8975d5aefedb3a8d1735ca2646970667358221220dc07e2a5a09a5dfe383be55757e1788af2f5b72daffa9876a12d77b3d08e07ea64736f6c634300081a0033","linkReferences":{}},"methodIdentifiers":{"afterAddLiquidity(address,(address,address,uint24,int24,address),(int24,int24,int256,bytes32),int256,int256,bytes)":"9f063efc","afterDonate(address,(address,address,uint24,int24,address),uint256,uint256,bytes)":"e1b4af69","afterInitialize(address,(address,address,uint24,int24,address),uint160,int24)":"6fe7e6eb","afterRemoveLiquidity(address,(address,address,uint24,int24,address),(int24,int24,int256,bytes32),int256,int256,bytes)":"6c2bbe7e","afterSwap(address,(address,address,uint24,int24,address),(bool,int256,uint160),int256,bytes)":"b47b2fb1","beforeAddLiquidity(address,(address,address,uint24,int24,address),(int24,int24,int256,bytes32),bytes)":"259982e5","beforeDonate(address,(address,address,uint24,int24,address),uint256,uint256,bytes)":"b6a8b0fa","beforeInitialize(address,(address,address,uint24,int24,address),uint160)":"dc98354e","beforeRemoveLiquidity(address,(address,address,uint24,int24,address),(int24,int24,int256,bytes32),bytes)":"21d0ee70","beforeSwap(address,(address,address,uint24,int24,address),(bool,int256,uint160),bytes)":"575e24b4","getHookPermissions()":"c4e833ce","poolManager()":"dc4c90d3","predictionManager()":"ee687a98"},"id":110}