{"abi":[{"type":"function","name":"resolveMarket","inputs":[{"name":"","type":"uint256","internalType":"uint256"},{"name":"","type":"uint8","internalType":"enum PredictionTypes.Outcome"},{"name":"","type":"int256","internalType":"int256"}],"outputs":[],"stateMutability":"nonpayable"},{"type":"function","name":"resolveMarketCallCount","inputs":[],"outputs":[{"name":"","type":"uint256","internalType":"uint256"}],"stateMutability":"view"},{"type":"function","name":"resolveMarketCallCounts","inputs":[{"name":"","type":"address","internalType":"address"}],"outputs":[{"name":"","type":"uint256","internalType":"uint256"}],"stateMutability":"view"},{"type":"function","name":"setShouldRevertResolveMarket","inputs":[{"name":"_shouldRevert","type":"bool","internalType":"bool"}],"outputs":[],"stateMutability":"nonpayable"},{"type":"function","name":"shouldRevertResolveMarket","inputs":[],"outputs":[{"name":"","type":"bool","internalType":"bool"}],"stateMutability":"view"},{"type":"event","name":"MarketResolved","inputs":[{"name":"marketId","type":"uint256","indexed":true,"internalType":"uint256"},{"name":"winningOutcome","type":"uint8","indexed":false,"internalType":"enum PredictionTypes.Outcome"},{"name":"price","type":"int256","indexed":false,"internalType":"int256"},{"name":"totalPrizePool","type":"uint256","indexed":false,"internalType":"uint256"}],"anonymous":false}],"bytecode":{"object":"0x6080806040523460155761020e908161001a8239f35b5f80fdfe60806040526004361015610011575f80fd5b5f3560e01c806314139b4d146100fe5780634159af86146100c357806354ff5bf014610093578063ae875193146100715763d028062514610050575f80fd5b3461006d575f36600319011261006d576020600154604051908152f35b5f80fd5b3461006d575f36600319011261006d57602060ff600254166040519015158152f35b3461006d57602036600319011261006d5760043580151580910361006d5760ff8019600254169116176002555f80f35b3461006d57602036600319011261006d576004356001600160a01b0381169081900361006d575f525f602052602060405f2054604051908152f35b3461006d57606036600319011261006d576002602435101561006d57335f525f60205260405f2061012f81546101b6565b905561013c6001546101b6565b60015560ff6002541661014b57005b60405162461bcd60e51b815260206004820152603b60248201527f4d6f636b50726564696374696f6e4d616e616765723a205265736f6c76654d6160448201527f726b657420726576657274656420617320696e737472756374656400000000006064820152608490fd5b5f1981146101c45760010190565b634e487b7160e01b5f52601160045260245ffdfea264697066735822122017218f0920cfb83c7c2e6902dfc46e2bbb338d49539303d8b9954039680e7d4364736f6c634300081a0033","linkReferences":{}},"methodIdentifiers":{"resolveMarket(uint256,uint8,int256)":"14139b4d","resolveMarketCallCount()":"d0280625","resolveMarketCallCounts(address)":"4159af86","setShouldRevertResolveMarket(bool)":"54ff5bf0","shouldRevertResolveMarket()":"ae875193"},"id":127}