{"abi":[{"type":"constructor","inputs":[],"stateMutability":"nonpayable"},{"type":"function","name":"answer","inputs":[],"outputs":[{"name":"","type":"int256","internalType":"int256"}],"stateMutability":"view"},{"type":"function","name":"answeredInRound","inputs":[],"outputs":[{"name":"","type":"uint80","internalType":"uint80"}],"stateMutability":"view"},{"type":"function","name":"decimals","inputs":[],"outputs":[{"name":"","type":"uint8","internalType":"uint8"}],"stateMutability":"pure"},{"type":"function","name":"description","inputs":[],"outputs":[{"name":"","type":"string","internalType":"string"}],"stateMutability":"pure"},{"type":"function","name":"getRoundData","inputs":[{"name":"","type":"uint80","internalType":"uint80"}],"outputs":[{"name":"","type":"uint80","internalType":"uint80"},{"name":"","type":"int256","internalType":"int256"},{"name":"","type":"uint256","internalType":"uint256"},{"name":"","type":"uint256","internalType":"uint256"},{"name":"","type":"uint80","internalType":"uint80"}],"stateMutability":"view"},{"type":"function","name":"latestRoundData","inputs":[],"outputs":[{"name":"","type":"uint80","internalType":"uint80"},{"name":"","type":"int256","internalType":"int256"},{"name":"","type":"uint256","internalType":"uint256"},{"name":"","type":"uint256","internalType":"uint256"},{"name":"","type":"uint80","internalType":"uint80"}],"stateMutability":"view"},{"type":"function","name":"roundId","inputs":[],"outputs":[{"name":"","type":"uint80","internalType":"uint80"}],"stateMutability":"view"},{"type":"function","name":"setLatestAnswer","inputs":[{"name":"_answer","type":"int256","internalType":"int256"}],"outputs":[],"stateMutability":"nonpayable"},{"type":"function","name":"setLatestRoundData","inputs":[{"name":"_roundId","type":"uint80","internalType":"uint80"},{"name":"_answer","type":"int256","internalType":"int256"},{"name":"_startedAt","type":"uint256","internalType":"uint256"},{"name":"_updatedAt","type":"uint256","internalType":"uint256"},{"name":"_answeredInRound","type":"uint80","internalType":"uint80"}],"outputs":[],"stateMutability":"nonpayable"},{"type":"function","name":"setUpdatedAt","inputs":[{"name":"_updatedAt","type":"uint256","internalType":"uint256"}],"outputs":[],"stateMutability":"nonpayable"},{"type":"function","name":"startedAtTimestamp","inputs":[],"outputs":[{"name":"","type":"uint256","internalType":"uint256"}],"stateMutability":"view"},{"type":"function","name":"updatedAtTimestamp","inputs":[],"outputs":[{"name":"","type":"uint256","internalType":"uint256"}],"stateMutability":"view"},{"type":"function","name":"version","inputs":[],"outputs":[{"name":"","type":"uint256","internalType":"uint256"}],"stateMutability":"pure"}],"bytecode":{"object":"0x60808060405234604357642e90edd0005f55426001819055600255600380546001600160a01b0319166a01000000000000000000011790556103c090816100488239f35b5f80fdfe6080806040526004361015610012575f80fd5b5f3560e01c90816304ea97b0146103585781631ecc7d881461033f578163313ce56714610326575080634005e681146102b757806354fd4d501461029c5780637284e416146102025780638482c021146101e557806385bb7d69146101c95780638cd221c9146101a357806392cdac1f146101865780639a6fc8f514610145578063c22c24991461011c5763feaf968c146100ab575f80fd5b34610118575f366003190112610118576003545f54600254600154610114936001600160501b038082169493929160501c165b604080516001600160501b03968716815260208101959095528401929092526060830152909116608082015290819060a0820190565b0390f35b5f80fd5b34610118575f3660031901126101185760206001600160501b0360035460501c16604051908152f35b346101185760203660031901126101185761015e610374565b506003545f54600254600154610114936001600160501b038082169493929160501c166100de565b34610118575f366003190112610118576020600154604051908152f35b34610118575f3660031901126101185760206001600160501b0360035416604051908152f35b34610118575f3660031901126101185760205f54604051908152f35b34610118575f366003190112610118576020600254604051908152f35b34610118575f366003190112610118576040516040810181811067ffffffffffffffff8211176102885760405260178152604060208201917f4d6f636b204554482f5553442041676772656761746f7200000000000000000083528151928391602083525180918160208501528484015e5f828201840152601f01601f19168101030190f35b634e487b7160e01b5f52604160045260245ffd5b34610118575f36600319011261011857602060405160018152f35b346101185760a0366003190112610118576102d0610374565b6084356001600160501b0381168103610118576001600160501b03600354916024355f556044356002556064356001558160501b9060501b169216906bffffffffffffffffffffffff60a01b1617176003555f80f35b34610118575f3660031901126101185780600860209252f35b3461011857602036600319011261011857600435600155005b34610118576020366003190112610118576004355f5542600155005b600435906001600160501b03821682036101185756fea26469706673582212201d752f19deffd4f9d7d2930a71a83f2ba3a5d12cddb7202da86532beef96783464736f6c634300081a0033","linkReferences":{}},"methodIdentifiers":{"answer()":"85bb7d69","answeredInRound()":"c22c2499","decimals()":"313ce567","description()":"7284e416","getRoundData(uint80)":"9a6fc8f5","latestRoundData()":"feaf968c","roundId()":"8cd221c9","setLatestAnswer(int256)":"04ea97b0","setLatestRoundData(uint80,int256,uint256,uint256,uint80)":"4005e681","setUpdatedAt(uint256)":"1ecc7d88","startedAtTimestamp()":"8482c021","updatedAtTimestamp()":"92cdac1f","version()":"54fd4d50"},"id":126}