{"abi":[{"type":"constructor","inputs":[{"name":"initialOwner","type":"address","internalType":"address"},{"name":"_predictionManagerAddress","type":"address","internalType":"address"}],"stateMutability":"nonpayable"},{"type":"function","name":"claimReward","inputs":[{"name":"tokenId","type":"uint256","internalType":"uint256"}],"outputs":[],"stateMutability":"nonpayable"},{"type":"function","name":"owner","inputs":[],"outputs":[{"name":"","type":"address","internalType":"address"}],"stateMutability":"view"},{"type":"function","name":"predictionManager","inputs":[],"outputs":[{"name":"","type":"address","internalType":"contract IPredictionManagerForDistributor"}],"stateMutability":"view"},{"type":"function","name":"renounceOwnership","inputs":[],"outputs":[],"stateMutability":"nonpayable"},{"type":"function","name":"setPredictionManagerAddress","inputs":[{"name":"_newAddress","type":"address","internalType":"address"}],"outputs":[],"stateMutability":"nonpayable"},{"type":"function","name":"transferOwnership","inputs":[{"name":"newOwner","type":"address","internalType":"address"}],"outputs":[],"stateMutability":"nonpayable"},{"type":"event","name":"OwnershipTransferred","inputs":[{"name":"previousOwner","type":"address","indexed":true,"internalType":"address"},{"name":"newOwner","type":"address","indexed":true,"internalType":"address"}],"anonymous":false},{"type":"event","name":"PredictionManagerAddressSet","inputs":[{"name":"oldAddress","type":"address","indexed":true,"internalType":"address"},{"name":"newAddress","type":"address","indexed":true,"internalType":"address"}],"anonymous":false},{"type":"error","name":"ClaimFailedInPool","inputs":[]},{"type":"error","name":"ZeroAddress","inputs":[]}],"bytecode":{"object":"0x60803461019657601f61058738819003918201601f19168301916001600160401b0383118484101761019a57808492604094855283398101031261019657610052602061004b836101ae565b92016101ae565b61005b336101c2565b6001600160a01b0316801561018757600180546001600160a01b03191682179055604051905f7f67a10b89439c7dbac12e9df3769629552e5badab0be5390a49fd050be14d10e08180a36001600160a01b038216903382036100c7575b60405161037e90816102098239f35b5f54336001600160a01b03909116036101455750156100f1576100e9906101c2565b5f80806100b8565b60405162461bcd60e51b815260206004820152602660248201527f4f776e61626c653a206e6577206f776e657220697320746865207a65726f206160448201526564647265737360d01b6064820152608490fd5b62461bcd60e51b815260206004820181905260248201527f4f776e61626c653a2063616c6c6572206973206e6f7420746865206f776e65726044820152606490fd5b63d92e233d60e01b5f5260045ffd5b5f80fd5b634e487b7160e01b5f52604160045260245ffd5b51906001600160a01b038216820361019657565b5f80546001600160a01b039283166001600160a01b03198216811783559216907f8be0079c531659141344cd1fd0a4f28419497f9722a3daafe3b4186f6b6457e09080a356fe60806040526004361015610011575f80fd5b5f803560e01c8063701923021461026b578063715018a6146102145780638da5cb5b146101ed578063ae169a5014610155578063ee687a981461012c5763f2fde38b1461005c575f80fd5b34610129576020366003190112610129576004356001600160a01b038116908190036101255761008a6102f1565b80156100d15781546001600160a01b03198116821783556001600160a01b03167f8be0079c531659141344cd1fd0a4f28419497f9722a3daafe3b4186f6b6457e08380a380f35b60405162461bcd60e51b815260206004820152602660248201527f4f776e61626c653a206e6577206f776e657220697320746865207a65726f206160448201526564647265737360d01b6064820152608490fd5b5080fd5b80fd5b50346101295780600319360112610129576001546040516001600160a01b039091168152602090f35b50346101e95760203660031901126101e9576001546001600160a01b0316803b156101e9575f8091602460405180948193630ae169a560e41b835260043560048401525af190816101b8575b506101b557630b78979760e41b8152600490fd5b80f35b90915067ffffffffffffffff81116101d5576040525f905f6101a1565b634e487b7160e01b5f52604160045260245ffd5b5f80fd5b346101e9575f3660031901126101e9575f546040516001600160a01b039091168152602090f35b346101e9575f3660031901126101e95761022c6102f1565b5f80546001600160a01b0319811682556001600160a01b03167f8be0079c531659141344cd1fd0a4f28419497f9722a3daafe3b4186f6b6457e08280a3005b346101e95760203660031901126101e9576004356001600160a01b038116908190036101e9576102996102f1565b80156102e257600180546001600160a01b0319811683179091556001600160a01b03167f67a10b89439c7dbac12e9df3769629552e5badab0be5390a49fd050be14d10e05f80a3005b63d92e233d60e01b5f5260045ffd5b5f546001600160a01b0316330361030457565b606460405162461bcd60e51b815260206004820152602060248201527f4f776e61626c653a2063616c6c6572206973206e6f7420746865206f776e65726044820152fdfea26469706673582212206716c4136ca7d663564dd3b2683a1dd027f67e2ed1aed5f8c37c23a0546ea52864736f6c634300081a0033","linkReferences":{}},"methodIdentifiers":{"claimReward(uint256)":"ae169a50","owner()":"8da5cb5b","predictionManager()":"ee687a98","renounceOwnership()":"715018a6","setPredictionManagerAddress(address)":"70192302","transferOwnership(address)":"f2fde38b"},"id":109}