{"abi":[{"type":"function","name":"callerOfClaimReward","inputs":[],"outputs":[{"name":"","type":"address","internalType":"address"}],"stateMutability":"view"},{"type":"function","name":"claimReward","inputs":[{"name":"tokenId","type":"uint256","internalType":"uint256"}],"outputs":[],"stateMutability":"nonpayable"},{"type":"function","name":"claimRewardCalled","inputs":[],"outputs":[{"name":"","type":"bool","internalType":"bool"}],"stateMutability":"view"},{"type":"function","name":"lastTokenIdClaimed","inputs":[],"outputs":[{"name":"","type":"uint256","internalType":"uint256"}],"stateMutability":"view"},{"type":"function","name":"reset","inputs":[],"outputs":[],"stateMutability":"nonpayable"},{"type":"function","name":"setShouldRevertOnClaim","inputs":[{"name":"_shouldRevert","type":"bool","internalType":"bool"}],"outputs":[],"stateMutability":"nonpayable"},{"type":"function","name":"shouldRevertOnClaim","inputs":[],"outputs":[{"name":"","type":"bool","internalType":"bool"}],"stateMutability":"view"},{"type":"event","name":"ClaimRewardAttempted","inputs":[{"name":"tokenId","type":"uint256","indexed":false,"internalType":"uint256"},{"name":"caller","type":"address","indexed":false,"internalType":"address"}],"anonymous":false}],"bytecode":{"object":"0x60808060405234601557610271908161001a8239f35b5f80fdfe6080806040526004361015610012575f80fd5b5f3560e01c90816319a74d481461021c575080632d0f3e78146101ff578063350df594146101cf5780634d775da4146101a3578063a6e63d7914610182578063ae169a501461009b5763d826f88f14610069575f80fd5b34610097575f366003190112610097575f805460ff19168155600155600280546001600160a81b0319169055005b5f80fd5b346100975760203660031901126100975760ff6004357f5fae1a5308d9a823d09de05838664aa209fb45a0e73744b4ac362ad139053131604060025492610100600160a81b033360081b16610100600160a81b0319851617600255600185195f5416175f55806001558151908152336020820152a11661011757005b60405162461bcd60e51b815260206004820152603960248201527f4d6f636b50726564696374696f6e4d616e616765723a20436c61696d5265776160448201527f726420726576657274656420617320696e7374727563746564000000000000006064820152608490fd5b34610097575f36600319011261009757602060ff5f54166040519015158152f35b34610097575f3660031901126100975760025460405160089190911c6001600160a01b03168152602090f35b34610097576020366003190112610097576004358015158091036100975760ff8019600254169116176002555f80f35b34610097575f366003190112610097576020600154604051908152f35b34610097575f3660031901126100975760209060ff6002541615158152f3fea2646970667358221220ea6c2dd50a31d8094354f5de9d3a04d601a596aa931b9802676178d6260b13e364736f6c634300081a0033","linkReferences":{}},"methodIdentifiers":{"callerOfClaimReward()":"4d775da4","claimReward(uint256)":"ae169a50","claimRewardCalled()":"a6e63d79","lastTokenIdClaimed()":"2d0f3e78","reset()":"d826f88f","setShouldRevertOnClaim(bool)":"350df594","shouldRevertOnClaim()":"19a74d48"},"id":163}