{"abi":[{"type":"constructor","inputs":[],"stateMutability":"nonpayable"},{"type":"function","name":"balances","inputs":[{"name":"","type":"address","internalType":"address"}],"outputs":[{"name":"","type":"uint256","internalType":"uint256"}],"stateMutability":"view"},{"type":"function","name":"burn","inputs":[{"name":"_tokenId","type":"uint256","internalType":"uint256"}],"outputs":[],"stateMutability":"nonpayable"},{"type":"function","name":"getPredictionDetails","inputs":[{"name":"_tokenId","type":"uint256","internalType":"uint256"}],"outputs":[{"name":"marketId","type":"uint256","internalType":"uint256"},{"name":"outcome","type":"uint8","internalType":"enum PredictionTypes.Outcome"},{"name":"convictionStake","type":"uint256","internalType":"uint256"},{"name":"owner","type":"address","internalType":"address"}],"stateMutability":"view"},{"type":"function","name":"lastCallerToBurn","inputs":[],"outputs":[{"name":"","type":"address","internalType":"address"}],"stateMutability":"view"},{"type":"function","name":"lastCallerToMint","inputs":[],"outputs":[{"name":"","type":"address","internalType":"address"}],"stateMutability":"view"},{"type":"function","name":"mint","inputs":[{"name":"_to","type":"address","internalType":"address"},{"name":"_marketId","type":"uint256","internalType":"uint256"},{"name":"_outcome","type":"uint8","internalType":"enum PredictionTypes.Outcome"},{"name":"_convictionStake","type":"uint256","internalType":"uint256"}],"outputs":[{"name":"tokenId","type":"uint256","internalType":"uint256"}],"stateMutability":"nonpayable"},{"type":"function","name":"nextTokenId","inputs":[],"outputs":[{"name":"","type":"uint256","internalType":"uint256"}],"stateMutability":"view"},{"type":"function","name":"nfts","inputs":[{"name":"","type":"uint256","internalType":"uint256"}],"outputs":[{"name":"marketId","type":"uint256","internalType":"uint256"},{"name":"outcome","type":"uint8","internalType":"enum PredictionTypes.Outcome"},{"name":"convictionStake","type":"uint256","internalType":"uint256"},{"name":"owner","type":"address","internalType":"address"},{"name":"exists","type":"bool","internalType":"bool"}],"stateMutability":"view"},{"type":"function","name":"owner","inputs":[],"outputs":[{"name":"","type":"address","internalType":"address"}],"stateMutability":"view"},{"type":"function","name":"ownerOf","inputs":[{"name":"_tokenId","type":"uint256","internalType":"uint256"}],"outputs":[{"name":"","type":"address","internalType":"address"}],"stateMutability":"view"},{"type":"function","name":"predictionPoolAddress","inputs":[],"outputs":[{"name":"","type":"address","internalType":"address"}],"stateMutability":"view"},{"type":"function","name":"renounceOwnership","inputs":[],"outputs":[],"stateMutability":"nonpayable"},{"type":"function","name":"setPredictionPoolAddress","inputs":[{"name":"_newAddress","type":"address","internalType":"address"}],"outputs":[],"stateMutability":"nonpayable"},{"type":"function","name":"setShouldRevertOnBurn","inputs":[{"name":"_revert","type":"bool","internalType":"bool"}],"outputs":[],"stateMutability":"nonpayable"},{"type":"function","name":"setShouldRevertOnGetPredictionDetails","inputs":[{"name":"_revert","type":"bool","internalType":"bool"}],"outputs":[],"stateMutability":"nonpayable"},{"type":"function","name":"setShouldRevertOnMint","inputs":[{"name":"_revert","type":"bool","internalType":"bool"}],"outputs":[],"stateMutability":"nonpayable"},{"type":"function","name":"shouldRevertOnBurn","inputs":[],"outputs":[{"name":"","type":"bool","internalType":"bool"}],"stateMutability":"view"},{"type":"function","name":"shouldRevertOnGetPredictionDetails","inputs":[],"outputs":[{"name":"","type":"bool","internalType":"bool"}],"stateMutability":"view"},{"type":"function","name":"shouldRevertOnMint","inputs":[],"outputs":[{"name":"","type":"bool","internalType":"bool"}],"stateMutability":"view"},{"type":"function","name":"transferFrom","inputs":[{"name":"_from","type":"address","internalType":"address"},{"name":"_to","type":"address","internalType":"address"},{"name":"_tokenId","type":"uint256","internalType":"uint256"}],"outputs":[],"stateMutability":"nonpayable"},{"type":"function","name":"transferOwnership","inputs":[{"name":"newOwner","type":"address","internalType":"address"}],"outputs":[],"stateMutability":"nonpayable"},{"type":"event","name":"NFTBurned","inputs":[{"name":"tokenId","type":"uint256","indexed":true,"internalType":"uint256"}],"anonymous":false},{"type":"event","name":"NFTMinted","inputs":[{"name":"to","type":"address","indexed":true,"internalType":"address"},{"name":"tokenId","type":"uint256","indexed":true,"internalType":"uint256"},{"name":"marketId","type":"uint256","indexed":false,"internalType":"uint256"},{"name":"outcome","type":"uint8","indexed":false,"internalType":"enum PredictionTypes.Outcome"},{"name":"convictionStake","type":"uint256","indexed":false,"internalType":"uint256"}],"anonymous":false},{"type":"event","name":"OwnershipTransferred","inputs":[{"name":"previousOwner","type":"address","indexed":true,"internalType":"address"},{"name":"newOwner","type":"address","indexed":true,"internalType":"address"}],"anonymous":false},{"type":"error","name":"NotPredictionPool","inputs":[]},{"type":"error","name":"TokenDoesNotExist","inputs":[{"name":"tokenId","type":"uint256","internalType":"uint256"}]}],"bytecode":{"object":"0x60808060405234605d575f8054336001600160a01b0319821681178355916001600160a01b03909116907f8be0079c531659141344cd1fd0a4f28419497f9722a3daafe3b4186f6b6457e09080a35f600355610bb590816100628239f35b5f80fdfe6080806040526004361015610012575f80fd5b5f3560e01c908163041ba86a14610a9a5781630aa8587314610a77575080631a9f656814610a525780631b31c18614610a2a57806323b872dd1461094e578063265aa621146108e457806327e235e3146108ac57806337e810f51461086f5780633f2a54771461083257806342966c681461069f57806357ce48f21461067a5780636352211e14610618578063715018a6146105c15780637331b67b1461057e57806375794a3c146105615780638da5cb5b1461053a5780638f88833814610441578063a7a6be961461021a578063cd491c9b146101f2578063cdd97cab146101cd5763f2fde38b14610103575f80fd5b346101c95760203660031901126101c95761011c610ad7565b610124610b28565b6001600160a01b03168015610175575f80546001600160a01b03198116831782556001600160a01b0316907f8be0079c531659141344cd1fd0a4f28419497f9722a3daafe3b4186f6b6457e09080a3005b60405162461bcd60e51b815260206004820152602660248201527f4f776e61626c653a206e6577206f776e657220697320746865207a65726f206160448201526564647265737360d01b6064820152608490fd5b5f80fd5b346101c9575f3660031901126101c957602060ff60065460a81c166040519015158152f35b346101c9575f3660031901126101c9576005546040516001600160a01b039091168152602090f35b346101c95760803660031901126101c957610233610ad7565b6024356044359160028310156101c95760065460643592906001600160a01b038116330361043257600480546001600160a01b0319163317905560a01c60ff166103d857600354926040519060a0820182811067ffffffffffffffff8211176103c45760405282825260208201928684526040830191808352606084019560018060a01b031694858752608085019860018a52885f52600160205260405f20955186556001860191519760028910156103b05760209a60037f848dd416c62d8fba92ecbf7d84243d842b3f0128d4e91abb3802203cb52617c6986060986103a2968e9d60ff80198354169116179055516002820155019160018060a01b039060018060a01b03905116166bffffffffffffffffffffffff60a01b83541617825551151581549060ff60a01b9060a01b169060ff60a01b1916179055865f5260028a5260405f206103838154610b1a565b9055610390600354610b1a565b60035560405193845289840190610aed565b6040820152a3604051908152f35b634e487b7160e01b5f52602160045260245ffd5b634e487b7160e01b5f52604160045260245ffd5b60405162461bcd60e51b815260206004820152602c60248201527f4d6f636b53776170436173744e46543a204d696e74207265766572746564206160448201526b1cc81a5b9cdd1c9d58dd195960a21b6064820152608490fd5b6381711c5f60e01b5f5260045ffd5b346101c95760203660031901126101c95760043560ff60065460b01c166104cf57805f52600160205260405f20600381015460ff8160a01c16156104bc57608092508154916104a7600260ff600184015416920154916040519485526020850190610aed565b60408301526001600160a01b03166060820152f35b8263c927e5bf60e01b5f5260045260245ffd5b60405162461bcd60e51b815260206004820152603c60248201527f4d6f636b53776170436173744e46543a2047657450726564696374696f6e446560448201527f7461696c7320726576657274656420617320696e7374727563746564000000006064820152608490fd5b346101c9575f3660031901126101c9575f546040516001600160a01b039091168152602090f35b346101c9575f3660031901126101c9576020600354604051908152f35b346101c95760203660031901126101c957610597610ad7565b61059f610b28565b600680546001600160a01b0319166001600160a01b0392909216919091179055005b346101c9575f3660031901126101c9576105d9610b28565b5f80546001600160a01b0319811682556001600160a01b03167f8be0079c531659141344cd1fd0a4f28419497f9722a3daafe3b4186f6b6457e08280a3005b346101c95760203660031901126101c957600435805f52600160205260ff600360405f20015460a01c1615610668575f526001602052602060018060a01b03600360405f20015416604051908152f35b63c927e5bf60e01b5f5260045260245ffd5b346101c9575f3660031901126101c957602060ff60065460b01c166040519015158152f35b346101c95760203660031901126101c957600654600435906001600160a01b038116330361043257600580546001600160a01b0319163317905560a81c60ff166107d857805f526001602052600360405f20015460ff8160a01c16156107c5576001600160a01b0316801561076b575f52600260205260405f206107238154610afa565b9055805f5260016020525f60036040822082815582600182015582600282015501557f3c176691ca154a2f6fe978a2a633a33ee77dbe2902e67a75400720845a4b2ce15f80a2005b60405162461bcd60e51b815260206004820152602c60248201527f4d6f636b53776170436173744e46543a204275726e696e6720746f6b656e207760448201526b34ba341037379037bbb732b960a11b6064820152608490fd5b5063c927e5bf60e01b5f5260045260245ffd5b60405162461bcd60e51b815260206004820152602c60248201527f4d6f636b53776170436173744e46543a204275726e207265766572746564206160448201526b1cc81a5b9cdd1c9d58dd195960a21b6064820152608490fd5b346101c95760203660031901126101c9576004358015158091036101c9576006805460ff60a01b191660a09290921b60ff60a01b16919091179055005b346101c95760203660031901126101c9576004358015158091036101c9576006805460ff60b01b191660b09290921b60ff60b01b16919091179055005b346101c95760203660031901126101c9576001600160a01b036108cd610ad7565b165f526002602052602060405f2054604051908152f35b346101c95760203660031901126101c9576004355f52600160205260a060405f2060ff815491816001820154169061093060036002830154920154926040519586526020860190610aed565b6040840152600180851b0381166060840152831c1615156080820152f35b346101c95760603660031901126101c957610967610ad7565b6024356001600160a01b038116908190036101c957604435805f526001602052600360405f20019283549160ff8360a01c161561066857506001600160a01b0390811691168190036109f3575f52600260205260405f206109c88154610afa565b9055805f52600260205260405f206109e08154610b1a565b905581546001600160a01b031916179055005b60405162461bcd60e51b815260206004820152600f60248201526e2737ba103a37b5b2b71037bbb732b960891b6044820152606490fd5b346101c9575f3660031901126101c9576004546040516001600160a01b039091168152602090f35b346101c9575f3660031901126101c957602060ff60065460a01c166040519015158152f35b346101c9575f3660031901126101c9576006546001600160a01b03168152602090f35b346101c95760203660031901126101c9576004358015158091036101c9576006805460ff60a81b191660a89290921b60ff60a81b16919091179055005b600435906001600160a01b03821682036101c957565b9060028210156103b05752565b8015610b06575f190190565b634e487b7160e01b5f52601160045260245ffd5b5f198114610b065760010190565b5f546001600160a01b03163303610b3b57565b606460405162461bcd60e51b815260206004820152602060248201527f4f776e61626c653a2063616c6c6572206973206e6f7420746865206f776e65726044820152fdfea2646970667358221220771c6b86202d3464ce0f1bd6340a1608b9602e3b08fa48f8c84ce508cc72e36664736f6c634300081a0033","linkReferences":{}},"methodIdentifiers":{"balances(address)":"27e235e3","burn(uint256)":"42966c68","getPredictionDetails(uint256)":"8f888338","lastCallerToBurn()":"cd491c9b","lastCallerToMint()":"1b31c186","mint(address,uint256,uint8,uint256)":"a7a6be96","nextTokenId()":"75794a3c","nfts(uint256)":"265aa621","owner()":"8da5cb5b","ownerOf(uint256)":"6352211e","predictionPoolAddress()":"0aa85873","renounceOwnership()":"715018a6","setPredictionPoolAddress(address)":"7331b67b","setShouldRevertOnBurn(bool)":"041ba86a","setShouldRevertOnGetPredictionDetails(bool)":"37e810f5","setShouldRevertOnMint(bool)":"3f2a5477","shouldRevertOnBurn()":"cdd97cab","shouldRevertOnGetPredictionDetails()":"57ce48f2","shouldRevertOnMint()":"1a9f6568","transferFrom(address,address,uint256)":"23b872dd","transferOwnership(address)":"f2fde38b"},"id":129}