{"abi":[{"type":"constructor","inputs":[{"name":"_predictionManagerAddress","type":"address","internalType":"address"},{"name":"_feedRegistryAddress","type":"address","internalType":"address"},{"name":"initialOwner","type":"address","internalType":"address"}],"stateMutability":"nonpayable"},{"type":"function","name":"feedRegistry","inputs":[],"outputs":[{"name":"","type":"address","internalType":"contract IFeedRegistry"}],"stateMutability":"view"},{"type":"function","name":"marketOracles","inputs":[{"name":"","type":"uint256","internalType":"uint256"}],"outputs":[{"name":"baseToken","type":"address","internalType":"address"},{"name":"quoteToken","type":"address","internalType":"address"},{"name":"priceThreshold","type":"uint256","internalType":"uint256"},{"name":"isRegistered","type":"bool","internalType":"bool"}],"stateMutability":"view"},{"type":"function","name":"maxPriceStalenessSeconds","inputs":[],"outputs":[{"name":"","type":"uint256","internalType":"uint256"}],"stateMutability":"view"},{"type":"function","name":"owner","inputs":[],"outputs":[{"name":"","type":"address","internalType":"address"}],"stateMutability":"view"},{"type":"function","name":"predictionManager","inputs":[],"outputs":[{"name":"","type":"address","internalType":"contract IPredictionManagerForResolver"}],"stateMutability":"view"},{"type":"function","name":"registerOracle","inputs":[{"name":"_marketId","type":"uint256","internalType":"uint256"},{"name":"_baseToken","type":"address","internalType":"address"},{"name":"_quoteToken","type":"address","internalType":"address"},{"name":"_priceThreshold","type":"uint256","internalType":"uint256"}],"outputs":[],"stateMutability":"nonpayable"},{"type":"function","name":"renounceOwnership","inputs":[],"outputs":[],"stateMutability":"nonpayable"},{"type":"function","name":"resolveMarket","inputs":[{"name":"_marketId","type":"uint256","internalType":"uint256"}],"outputs":[],"stateMutability":"nonpayable"},{"type":"function","name":"setMaxPriceStaleness","inputs":[{"name":"_newStalenessSeconds","type":"uint256","internalType":"uint256"}],"outputs":[],"stateMutability":"nonpayable"},{"type":"function","name":"transferOwnership","inputs":[{"name":"newOwner","type":"address","internalType":"address"}],"outputs":[],"stateMutability":"nonpayable"},{"type":"event","name":"MarketResolved","inputs":[{"name":"marketId","type":"uint256","indexed":true,"internalType":"uint256"},{"name":"price","type":"int256","indexed":false,"internalType":"int256"},{"name":"winningOutcome","type":"uint8","indexed":false,"internalType":"enum PredictionTypes.Outcome"}],"anonymous":false},{"type":"event","name":"MaxPriceStalenessSet","inputs":[{"name":"oldStaleness","type":"uint256","indexed":false,"internalType":"uint256"},{"name":"newStaleness","type":"uint256","indexed":false,"internalType":"uint256"}],"anonymous":false},{"type":"event","name":"OracleRegistered","inputs":[{"name":"marketId","type":"uint256","indexed":true,"internalType":"uint256"},{"name":"baseToken","type":"address","indexed":false,"internalType":"address"},{"name":"quoteToken","type":"address","indexed":false,"internalType":"address"},{"name":"priceThreshold","type":"uint256","indexed":false,"internalType":"uint256"}],"anonymous":false},{"type":"event","name":"OwnershipTransferred","inputs":[{"name":"previousOwner","type":"address","indexed":true,"internalType":"address"},{"name":"newOwner","type":"address","indexed":true,"internalType":"address"}],"anonymous":false},{"type":"error","name":"InvalidTokenAddress","inputs":[]},{"type":"error","name":"OracleAlreadyRegistered","inputs":[{"name":"marketId","type":"uint256","internalType":"uint256"}]},{"type":"error","name":"OracleNotRegistered","inputs":[{"name":"marketId","type":"uint256","internalType":"uint256"}]},{"type":"error","name":"PredictionManagerZeroAddress","inputs":[]},{"type":"error","name":"PriceIsStale","inputs":[{"name":"marketId","type":"uint256","internalType":"uint256"},{"name":"lastUpdatedAt","type":"uint256","internalType":"uint256"},{"name":"currentBlockTimestamp","type":"uint256","internalType":"uint256"}]},{"type":"error","name":"ResolutionFailedInManager","inputs":[{"name":"marketId","type":"uint256","internalType":"uint256"}]}],"bytecode":{"object":"0x60c0346100f157601f6109fe38819003918201601f19168301916001600160401b038311848410176100f5578084926060946040528339810103126100f15761004781610109565b61005f604061005860208501610109565b9301610109565b906100693361011d565b6001600160a01b03169182156100e2576001600160a01b031680156100d35761009d9260805260a052610e1060025561011d565b60405161089a9081610164823960805181818161017201526105c8015260a05181818161025e0152818161040601526105740152f35b630f58058360e11b5f5260045ffd5b63f9e10fb560e01b5f5260045ffd5b5f80fd5b634e487b7160e01b5f52604160045260245ffd5b51906001600160a01b03821682036100f157565b5f80546001600160a01b039283166001600160a01b03198216811783559216907f8be0079c531659141344cd1fd0a4f28419497f9722a3daafe3b4186f6b6457e09080a356fe6080806040526004361015610012575f80fd5b5f905f3560e01c9081634c8d1eda14610742575080636399d03d1461050c57806365b2d327146104b6578063715018a61461045c5780638da5cb5b1461043557806390238c39146103f0578063d5258c7a146101bf578063d9c1408b146101a1578063ee687a981461015c5763f2fde38b1461008c575f80fd5b34610159576020366003190112610159576004356001600160a01b03811690819003610155576100ba61080d565b80156101015781546001600160a01b03198116821783556001600160a01b03167f8be0079c531659141344cd1fd0a4f28419497f9722a3daafe3b4186f6b6457e08380a380f35b60405162461bcd60e51b815260206004820152602660248201527f4f776e61626c653a206e6577206f776e657220697320746865207a65726f206160448201526564647265737360d01b6064820152608490fd5b5080fd5b80fd5b50346101595780600319360112610159576040517f00000000000000000000000000000000000000000000000000000000000000006001600160a01b03168152602090f35b50346101595780600319360112610159576020600254604051908152f35b5034610159576080366003190112610159576004356024356001600160a01b038116908181036103ec576044356001600160a01b038116908181036103aa576064359261020a61080d565b858752600160205260ff6003604089200154166103d857841580156103d0575b6103c15760405163d2edb6dd60e01b81526001600160a01b03918216600482015291166024820152602081806044810103817f00000000000000000000000000000000000000000000000000000000000000006001600160a01b03165afa80156103b657610377575b506040516080810181811067ffffffffffffffff8211176103635760409081528482526020808301848152838301868152600160608087018281528b8d52828652868d20975188546001600160a01b039182166001600160a01b0319918216178a559551938901805494909116939095169290921790935590516002860155516003909401805460ff191694151560ff16949094179093558151958652850192909252908301919091527f5189ceacc48007b03b28db0059c86af83c70ae1ba26577367984ef86c596c2d991a280f35b634e487b7160e01b87526041600452602487fd5b6020813d6020116103ae575b816103906020938361079f565b810103126103aa57516001600160a01b0381168114610293575b8580fd5b3d9150610383565b6040513d88823e3d90fd5b630f58058360e11b8752600487fd5b50821561022a565b63917a7deb60e01b87526004869052602487fd5b8380fd5b50346101595780600319360112610159576040517f00000000000000000000000000000000000000000000000000000000000000006001600160a01b03168152602090f35b5034610159578060031936011261015957546040516001600160a01b039091168152602090f35b503461015957806003193601126101595761047561080d565b80546001600160a01b03198116825581906001600160a01b03167f8be0079c531659141344cd1fd0a4f28419497f9722a3daafe3b4186f6b6457e08280a380f35b5034610159576020366003190112610159577fe21c7294aea4443442e8d93c674d8430a17f35e245338666aece1e90b77af00c60406004356104f661080d565b600254908060025582519182526020820152a180f35b503461069857602036600319011261069857600435805f52600160205260405f2060ff6003820154161561072f578054600182015460405163bcfd032d60e01b81526001600160a01b0392831660048201529082166024820152919060a090839060449082907f0000000000000000000000000000000000000000000000000000000000000000165afa8015610724575f925f916106d0575b508042034281116106bc57600254106106a2575060020154811061069c5760015b7f00000000000000000000000000000000000000000000000000000000000000006001600160a01b0316803b15610698575f80916064604051809481936314139b4d60e01b835289600484015261062060248401896107ec565b8860448401525af19081610683575b50610648576307d933f360e51b84526004839052602484fd5b7fa686fce7727b7dee0d2d24872642450c17ba558c72d62214c173a223ef75c2b89161067f604092835192835260208301906107ec565ba280f35b6106909195505f9061079f565b5f935f61062f565b5f80fd5b5f6105c6565b8363a46ac88160e01b5f526004526024524260445260645ffd5b634e487b7160e01b5f52601160045260245ffd5b92505060a0823d60a01161071c575b816106ec60a0938361079f565b81010312610698576106fd826107d5565b5060208201516107146080606085015194016107d5565b50915f6105a5565b3d91506106df565b6040513d5f823e3d90fd5b50631788ec2b60e21b5f5260045260245ffd5b34610698576020366003190112610698576080906004355f52600160205260405f2060018060a01b038154169060018060a01b0360018201541660ff60036002840154930154169284526020840152604083015215156060820152f35b90601f8019910116810190811067ffffffffffffffff8211176107c157604052565b634e487b7160e01b5f52604160045260245ffd5b519069ffffffffffffffffffff8216820361069857565b9060028210156107f95752565b634e487b7160e01b5f52602160045260245ffd5b5f546001600160a01b0316330361082057565b606460405162461bcd60e51b815260206004820152602060248201527f4f776e61626c653a2063616c6c6572206973206e6f7420746865206f776e65726044820152fdfea26469706673582212205781ab416b088485354e404b08d2e9ea35d2b75f31f140c8233d941e43fd0d1e64736f6c634300081a0033","linkReferences":{}},"methodIdentifiers":{"feedRegistry()":"90238c39","marketOracles(uint256)":"4c8d1eda","maxPriceStalenessSeconds()":"d9c1408b","owner()":"8da5cb5b","predictionManager()":"ee687a98","registerOracle(uint256,address,address,uint256)":"d5258c7a","renounceOwnership()":"715018a6","resolveMarket(uint256)":"6399d03d","setMaxPriceStaleness(uint256)":"65b2d327","transferOwnership(address)":"f2fde38b"},"id":107}