{"abi":[{"type":"constructor","inputs":[{"name":"_initialOwner","type":"address","internalType":"address"},{"name":"_name","type":"string","internalType":"string"},{"name":"_symbol","type":"string","internalType":"string"}],"stateMutability":"nonpayable"},{"type":"function","name":"approve","inputs":[{"name":"to","type":"address","internalType":"address"},{"name":"tokenId","type":"uint256","internalType":"uint256"}],"outputs":[],"stateMutability":"nonpayable"},{"type":"function","name":"balanceOf","inputs":[{"name":"owner","type":"address","internalType":"address"}],"outputs":[{"name":"","type":"uint256","internalType":"uint256"}],"stateMutability":"view"},{"type":"function","name":"burn","inputs":[{"name":"_tokenId","type":"uint256","internalType":"uint256"}],"outputs":[],"stateMutability":"nonpayable"},{"type":"function","name":"getApproved","inputs":[{"name":"tokenId","type":"uint256","internalType":"uint256"}],"outputs":[{"name":"","type":"address","internalType":"address"}],"stateMutability":"view"},{"type":"function","name":"getPredictionDetails","inputs":[{"name":"_tokenId","type":"uint256","internalType":"uint256"}],"outputs":[{"name":"marketId","type":"uint256","internalType":"uint256"},{"name":"outcome","type":"uint8","internalType":"enum PredictionTypes.Outcome"},{"name":"convictionStake","type":"uint256","internalType":"uint256"},{"name":"owner_","type":"address","internalType":"address"}],"stateMutability":"view"},{"type":"function","name":"isApprovedForAll","inputs":[{"name":"owner","type":"address","internalType":"address"},{"name":"operator","type":"address","internalType":"address"}],"outputs":[{"name":"","type":"bool","internalType":"bool"}],"stateMutability":"view"},{"type":"function","name":"mint","inputs":[{"name":"_to","type":"address","internalType":"address"},{"name":"_marketId","type":"uint256","internalType":"uint256"},{"name":"_outcome","type":"uint8","internalType":"enum PredictionTypes.Outcome"},{"name":"_convictionStake","type":"uint256","internalType":"uint256"}],"outputs":[{"name":"","type":"uint256","internalType":"uint256"}],"stateMutability":"nonpayable"},{"type":"function","name":"name","inputs":[],"outputs":[{"name":"","type":"string","internalType":"string"}],"stateMutability":"view"},{"type":"function","name":"owner","inputs":[],"outputs":[{"name":"","type":"address","internalType":"address"}],"stateMutability":"view"},{"type":"function","name":"ownerOf","inputs":[{"name":"tokenId","type":"uint256","internalType":"uint256"}],"outputs":[{"name":"","type":"address","internalType":"address"}],"stateMutability":"view"},{"type":"function","name":"predictionManagerAddress","inputs":[],"outputs":[{"name":"","type":"address","internalType":"address"}],"stateMutability":"view"},{"type":"function","name":"renounceOwnership","inputs":[],"outputs":[],"stateMutability":"nonpayable"},{"type":"function","name":"safeTransferFrom","inputs":[{"name":"from","type":"address","internalType":"address"},{"name":"to","type":"address","internalType":"address"},{"name":"tokenId","type":"uint256","internalType":"uint256"}],"outputs":[],"stateMutability":"nonpayable"},{"type":"function","name":"safeTransferFrom","inputs":[{"name":"from","type":"address","internalType":"address"},{"name":"to","type":"address","internalType":"address"},{"name":"tokenId","type":"uint256","internalType":"uint256"},{"name":"data","type":"bytes","internalType":"bytes"}],"outputs":[],"stateMutability":"nonpayable"},{"type":"function","name":"setApprovalForAll","inputs":[{"name":"operator","type":"address","internalType":"address"},{"name":"approved","type":"bool","internalType":"bool"}],"outputs":[],"stateMutability":"nonpayable"},{"type":"function","name":"setPredictionManagerAddress","inputs":[{"name":"_newPredictionManagerAddress","type":"address","internalType":"address"}],"outputs":[],"stateMutability":"nonpayable"},{"type":"function","name":"supportsInterface","inputs":[{"name":"interfaceId","type":"bytes4","internalType":"bytes4"}],"outputs":[{"name":"","type":"bool","internalType":"bool"}],"stateMutability":"view"},{"type":"function","name":"symbol","inputs":[],"outputs":[{"name":"","type":"string","internalType":"string"}],"stateMutability":"view"},{"type":"function","name":"tokenPredictionMetadata","inputs":[{"name":"","type":"uint256","internalType":"uint256"}],"outputs":[{"name":"marketId","type":"uint128","internalType":"uint128"},{"name":"mintedAt","type":"uint64","internalType":"uint64"},{"name":"convictionStake","type":"uint128","internalType":"uint128"},{"name":"outcome","type":"uint8","internalType":"enum PredictionTypes.Outcome"}],"stateMutability":"view"},{"type":"function","name":"tokenURI","inputs":[{"name":"_tokenId","type":"uint256","internalType":"uint256"}],"outputs":[{"name":"","type":"string","internalType":"string"}],"stateMutability":"view"},{"type":"function","name":"totalSupply","inputs":[],"outputs":[{"name":"","type":"uint256","internalType":"uint256"}],"stateMutability":"view"},{"type":"function","name":"transferFrom","inputs":[{"name":"from","type":"address","internalType":"address"},{"name":"to","type":"address","internalType":"address"},{"name":"tokenId","type":"uint256","internalType":"uint256"}],"outputs":[],"stateMutability":"nonpayable"},{"type":"function","name":"transferOwnership","inputs":[{"name":"newOwner","type":"address","internalType":"address"}],"outputs":[],"stateMutability":"nonpayable"},{"type":"event","name":"Approval","inputs":[{"name":"owner","type":"address","indexed":true,"internalType":"address"},{"name":"approved","type":"address","indexed":true,"internalType":"address"},{"name":"tokenId","type":"uint256","indexed":true,"internalType":"uint256"}],"anonymous":false},{"type":"event","name":"ApprovalForAll","inputs":[{"name":"owner","type":"address","indexed":true,"internalType":"address"},{"name":"operator","type":"address","indexed":true,"internalType":"address"},{"name":"approved","type":"bool","indexed":false,"internalType":"bool"}],"anonymous":false},{"type":"event","name":"OwnershipTransferred","inputs":[{"name":"previousOwner","type":"address","indexed":true,"internalType":"address"},{"name":"newOwner","type":"address","indexed":true,"internalType":"address"}],"anonymous":false},{"type":"event","name":"PositionNFTBurned","inputs":[{"name":"tokenId","type":"uint256","indexed":true,"internalType":"uint256"}],"anonymous":false},{"type":"event","name":"PositionNFTMinted","inputs":[{"name":"owner","type":"address","indexed":true,"internalType":"address"},{"name":"tokenId","type":"uint256","indexed":true,"internalType":"uint256"},{"name":"marketId","type":"uint256","indexed":false,"internalType":"uint256"},{"name":"outcome","type":"uint8","indexed":false,"internalType":"enum PredictionTypes.Outcome"},{"name":"convictionStake","type":"uint256","indexed":false,"internalType":"uint256"}],"anonymous":false},{"type":"event","name":"PredictionManagerAddressSet","inputs":[{"name":"oldAddress","type":"address","indexed":true,"internalType":"address"},{"name":"newAddress","type":"address","indexed":true,"internalType":"address"}],"anonymous":false},{"type":"event","name":"Transfer","inputs":[{"name":"from","type":"address","indexed":true,"internalType":"address"},{"name":"to","type":"address","indexed":true,"internalType":"address"},{"name":"tokenId","type":"uint256","indexed":true,"internalType":"uint256"}],"anonymous":false},{"type":"error","name":"ERC721IncorrectOwner","inputs":[{"name":"sender","type":"address","internalType":"address"},{"name":"tokenId","type":"uint256","internalType":"uint256"},{"name":"owner","type":"address","internalType":"address"}]},{"type":"error","name":"ERC721InsufficientApproval","inputs":[{"name":"operator","type":"address","internalType":"address"},{"name":"tokenId","type":"uint256","internalType":"uint256"}]},{"type":"error","name":"ERC721InvalidApprover","inputs":[{"name":"approver","type":"address","internalType":"address"}]},{"type":"error","name":"ERC721InvalidOperator","inputs":[{"name":"operator","type":"address","internalType":"address"}]},{"type":"error","name":"ERC721InvalidOwner","inputs":[{"name":"owner","type":"address","internalType":"address"}]},{"type":"error","name":"ERC721InvalidReceiver","inputs":[{"name":"receiver","type":"address","internalType":"address"}]},{"type":"error","name":"ERC721InvalidSender","inputs":[{"name":"sender","type":"address","internalType":"address"}]},{"type":"error","name":"ERC721NonexistentToken","inputs":[{"name":"tokenId","type":"uint256","internalType":"uint256"}]},{"type":"error","name":"InvalidConvictionStake","inputs":[]},{"type":"error","name":"NonExistentToken","inputs":[{"name":"tokenId","type":"uint256","internalType":"uint256"}]},{"type":"error","name":"NotPredictionManager","inputs":[]},{"type":"error","name":"OwnableInvalidOwner","inputs":[{"name":"owner","type":"address","internalType":"address"}]},{"type":"error","name":"OwnableUnauthorizedAccount","inputs":[{"name":"account","type":"address","internalType":"address"}]},{"type":"error","name":"ZeroAddress","inputs":[]}],"bytecode":{"object":"0x60806040523461038557611e478038038061001981610389565b9283398101906060818303126103855780516001600160a01b03811691908290036103855760208101516001600160401b038111610385578361005d9183016103ae565b60408201519093906001600160401b0381116103855761007d92016103ae565b82519091906001600160401b038111610299575f54600181811c9116801561037b575b602082101461027b57601f8111610319575b506020601f82116001146102b857819293945f926102ad575b50508160011b915f199060031b1c1916175f555b81516001600160401b03811161029957600154600181811c9116801561028f575b602082101461027b57601f8111610218575b50602092601f82116001146101b757928192935f926101ac575b50508160011b915f199060031b1c1916176001555b801561019957600680546001600160a01b03198116831790915560405191906001600160a01b03167f8be0079c531659141344cd1fd0a4f28419497f9722a3daafe3b4186f6b6457e05f80a3611a4790816104008239f35b631e4fbdf760e01b5f525f60045260245ffd5b015190505f8061012c565b601f1982169360015f52805f20915f5b86811061020057508360019596106101e8575b505050811b01600155610141565b01515f1960f88460031b161c191690555f80806101da565b919260206001819286850151815501940192016101c7565b60015f527fb10e2d527612073b26eecdfd717e6a320cf44b4afac2b0732d9fcbe2b7fa0cf6601f830160051c81019160208410610271575b601f0160051c01905b8181106102665750610112565b5f8155600101610259565b9091508190610250565b634e487b7160e01b5f52602260045260245ffd5b90607f1690610100565b634e487b7160e01b5f52604160045260245ffd5b015190505f806100cb565b601f198216905f8052805f20915f5b818110610301575095836001959697106102e9575b505050811b015f556100df565b01515f1960f88460031b161c191690555f80806102dc565b9192602060018192868b0151815501940192016102c7565b5f80527f290decd9548b62a8d60345a988386fc84ba6bc95484008f6362f93160ef3e563601f830160051c81019160208410610371575b601f0160051c01905b81811061036657506100b2565b5f8155600101610359565b9091508190610350565b90607f16906100a0565b5f80fd5b6040519190601f01601f191682016001600160401b0381118382101761029957604052565b81601f82011215610385578051906001600160401b038211610299576103dd601f8301601f1916602001610389565b928284526020838301011161038557815f9260208093018386015e830101529056fe6080806040526004361015610012575f80fd5b5f3560e01c90816301ffc9a7146112705750806306fdde03146111b8578063081812fc1461117c578063095ea7b31461109257806318160ddd1461107557806323b872dd1461105e57806342842e0e1461103557806342966c6814610f0a5780636352211e14610eda5780637019230214610e6757806370a0823114610e16578063715018a614610dbb578063854ec60814610d4f5780638da5cb5b14610d275780638f88833814610c9e57806395d89b4114610b96578063a22cb46514610afb578063a7a6be961461088f578063b88d4fde14610805578063c87b56dd14610222578063e985e9c5146101cb578063ef9e745f146101a35763f2fde38b14610119575f80fd5b3461019f57602036600319011261019f576101326112ff565b61013a6116ee565b6001600160a01b0316801561018c57600680546001600160a01b0319811683179091556001600160a01b03167f8be0079c531659141344cd1fd0a4f28419497f9722a3daafe3b4186f6b6457e05f80a3005b631e4fbdf760e01b5f525f60045260245ffd5b5f80fd5b3461019f575f36600319011261019f576007546040516001600160a01b039091168152602090f35b3461019f57604036600319011261019f576101e46112ff565b6101ec611315565b9060018060a01b03165f52600560205260405f209060018060a01b03165f52602052602060ff60405f2054166040519015158152f35b3461019f57602036600319011261019f576004355f818152600260205260409020546001600160a01b0316156107f357805f52600860205260405f2060405161026a81611372565b60018254926001600160801b038416835267ffffffffffffffff602084019460801c168452015460408201906001600160801b03811682526102b660ff606085019260801c1682611580565b805160038110156107df5761077657506102f16040516102d76040826113a2565b6007815266084cac2e4d2e6d60cb1b602082015294611747565b92604051928360208101957f226e616d65223a2022537761704361737420506f736974696f6e204e46542023875280516020819201604084015e8101601160f91b604082015203604001601e198101855260010161034f90856113a2565b60405161035d60a0826113a2565b6072815260208101917f226465736372697074696f6e223a2022412053776170436173742070726564698352604082017f6374696f6e20706f736974696f6e204e465420726570726573656e74696e67209052606082017f612075736572277320636f6e76696374696f6e206f6e20612073706563696669905271319036b0b935b2ba1037baba31b7b6b2971160711b6080830152516001600160801b03169660409788519061040d8a836113a2565b600982526813585c9ad95d08125160ba1b602083015261042c90611747565b6104359161188f565b938851956104438a886113a2565b601187526020870170507265646963746564204f7574636f6d6560781b81528a5193849160208301996f3d913a3930b4ba2fba3cb832911d101160811b8b52518091603085015e82016c111610113b30b63ab2911d101160991b603082015281516020819301603d83015e0160300161227d60f01b600d82015203600d01601d19810184526002016104d590846113a2565b516001600160801b03168951906104ec8b836113a2565b6016825275436f6e76696374696f6e205374616b6520285765692960501b602083015261051890611747565b6105219161188f565b905167ffffffffffffffff1689519061053a8b836113a2565b601382527204d696e7465642041742054696d657374616d7606c1b602083015261056390611747565b61056c9161188f565b9089519687936020850197805160208192018a5e85019060208201600b60fa1b9052518092602183015e0160200160018101600b60fa1b905281516020819301600283015e0160010160018101600b60fa1b905281516020819301600283015e01600101600181015f905203600101601f19810185526105ec90856113a2565b8651809360208201956e2261747472696275746573223a205b60881b8752518091602f84015e8101602f8101605d60f81b905203602f01601e198101845260010161063790846113a2565b865195869560208701607b60f81b9052518091602188015e85019060218201600b60fa1b9052518092602283015e016021019060018201600b60fa1b9052518092600283015e0160010160018101607d60f81b905203600101601e19810182526001016106a490826113a2565b81516106b16060826113a2565b8281527f4142434445464748494a4b4c4d4e4f505152535455565758595a61626364656660208201527f6768696a6b6c6d6e6f707172737475767778797a303132333435363738392b2f8184015261070891611905565b9080518092602082017f646174613a6170706c69636174696f6e2f6a736f6e3b6261736536342c000000905280516020819201603d84015e8101603d81015f905203603d01601f198101835261075e90836113a2565b5180916020825260208201610772916112db565b0390f35b5160038110156107df576001036107b2576102f16040516107986040826113a2565b6007815266084ead8d8d2e6d60cb1b602082015294611747565b6102f16040516107c36040826113a2565b6009815268155b9919599a5b995960ba1b602082015294611747565b634e487b7160e01b5f52602160045260245ffd5b6338077a2b60e01b5f5260045260245ffd5b3461019f57608036600319011261019f5761081e6112ff565b610826611315565b6064359167ffffffffffffffff831161019f573660238401121561019f57826004013591610853836113c4565b9261086160405194856113a2565b808452366024828701011161019f576020815f92602461088d980183880137850101526044359161158c565b005b3461019f57608036600319011261019f576108a86112ff565b604435602435600382101561019f5760075460643593906001600160a01b03163303610aec576001600160a01b03168015610add578315610ace576009549260018401600955835f52600260205260018060a01b0360405f2054168015159081610a9b575b83610a83575b855f52600260205260405f20846bffffffffffffffffffffffff60a01b8254161790558584827fddf252ad1be2c89b69c2b068fc378daa952ba7f163c4a11628f55a4df523b3ef5f80a450610a705760405161096e81611372565b6001600160801b03841681526020810167ffffffffffffffff421681526001600160801b038060016040850194828b16865260608101946109af8887611580565b8a5f526008602052838060405f209351161684198354161782555181549067ffffffffffffffff60801b9060801b169067ffffffffffffffff60801b191617815501935116166001600160801b0319835416178255519360038510156107df57602096610a627e18ea8bf2dcc7c597d58637b6ee0862fe5a2918dd89c2294da47277d40dffef94606094899881549060ff60801b9060801b169060ff60801b191617905560405193845289840190611365565b6040820152a3604051908152f35b6339e3563760e11b5f525f60045260245ffd5b835f52600360205260405f2060018154019055610913565b5f86815260046020526040902080546001600160a01b0319169055805f52600360205260405f205f19815401905561090d565b63eaf0162f60e01b5f5260045ffd5b63d92e233d60e01b5f5260045ffd5b63d5eceddd60e01b5f5260045ffd5b3461019f57604036600319011261019f57610b146112ff565b6024359081151580920361019f576001600160a01b0316908115610b8357335f52600560205260405f20825f5260205260405f2060ff1981541660ff83161790556040519081527f17307eab39ab6107e8899845ad3d59bd9653f200f220920489ca2b5937696c3160203392a3005b50630b61174360e31b5f5260045260245ffd5b3461019f575f36600319011261019f576040515f6001548060011c90600181168015610c94575b602083108114610c8057828552908115610c5c5750600114610bfe575b61077283610bea818503826113a2565b6040519182916020835260208301906112db565b91905060015f527fb10e2d527612073b26eecdfd717e6a320cf44b4afac2b0732d9fcbe2b7fa0cf6915f905b808210610c4257509091508101602001610bea610bda565b919260018160209254838588010152019101909291610c2a565b60ff191660208086019190915291151560051b84019091019150610bea9050610bda565b634e487b7160e01b5f52602260045260245ffd5b91607f1691610bbd565b3461019f57602036600319011261019f576004355f818152600260205260409020546001600160a01b03168015610d14576080915f52600860205260405f20906001600160801b03600181845416930154604051938452610d076020850160ff83881c16611365565b1660408301526060820152f35b506338077a2b60e01b5f5260045260245ffd5b3461019f575f36600319011261019f576006546040516001600160a01b039091168152602090f35b3461019f57602036600319011261019f576004355f526008602052608060405f20610db96001825492015467ffffffffffffffff604051936001600160801b0381168552851c1660208401526001600160801b038116604084015260ff6060840191851c16611365565bf35b3461019f575f36600319011261019f57610dd36116ee565b600680546001600160a01b031981169091555f906001600160a01b03167f8be0079c531659141344cd1fd0a4f28419497f9722a3daafe3b4186f6b6457e08280a3005b3461019f57602036600319011261019f576001600160a01b03610e376112ff565b168015610e54575f526003602052602060405f2054604051908152f35b6322718ad960e21b5f525f60045260245ffd5b3461019f57602036600319011261019f57610e806112ff565b610e886116ee565b6001600160a01b03168015610add57600780546001600160a01b0319811683179091556001600160a01b03167f67a10b89439c7dbac12e9df3769629552e5badab0be5390a49fd050be14d10e05f80a3005b3461019f57602036600319011261019f576020610ef86004356116cc565b6040516001600160a01b039091168152f35b3461019f57602036600319011261019f57600754600435906001600160a01b03163303610aec575f818152600260205260409020546001600160a01b0316156107f357805f5260086020525f6001604082208281550155807ff5f05b2b75d7eefbad047c6a5f5965c53a8a469bc4181e434d4fd60019ea1f175f80a25f818152600260205260409020546001600160a01b03168015908115611002575b5f83815260026020526040812080546001600160a01b03191690558390827fddf252ad1be2c89b69c2b068fc378daa952ba7f163c4a11628f55a4df523b3ef8280a450610ff057005b637e27328960e01b5f5260045260245ffd5b5f83815260046020526040902080546001600160a01b0319169055805f52600360205260405f205f198154019055610fa7565b3461019f5761088d6110463661132b565b90604051926110566020856113a2565b5f845261158c565b3461019f5761088d61106f3661132b565b916113e0565b3461019f575f36600319011261019f576020600954604051908152f35b3461019f57604036600319011261019f576110ab6112ff565b6024356110b7816116cc565b33151580611169575b8061113c575b6111295781906001600160a01b0384811691167f8c5be1e5ebec7d5bd14f71427d1e84f3dd0314c0f7b2291e5b200ac8c7c3b9255f80a45f90815260046020526040902080546001600160a01b0319166001600160a01b03909216919091179055005b63a9fbf51f60e01b5f523360045260245ffd5b506001600160a01b0381165f90815260056020908152604080832033845290915290205460ff16156110c6565b506001600160a01b0381163314156110c0565b3461019f57602036600319011261019f57600435611199816116cc565b505f526004602052602060018060a01b0360405f205416604051908152f35b3461019f575f36600319011261019f576040515f80548060011c90600181168015611266575b602083108114610c8057828552908115610c5c575060011461120a5761077283610bea818503826113a2565b5f8080527f290decd9548b62a8d60345a988386fc84ba6bc95484008f6362f93160ef3e563939250905b80821061124c57509091508101602001610bea610bda565b919260018160209254838588010152019101909291611234565b91607f16916111de565b3461019f57602036600319011261019f576004359063ffffffff60e01b821680920361019f576020916380ac58cd60e01b81149081156112ca575b81156112b9575b5015158152f35b6301ffc9a760e01b149050836112b2565b635b5e139f60e01b811491506112ab565b805180835260209291819084018484015e5f828201840152601f01601f1916010190565b600435906001600160a01b038216820361019f57565b602435906001600160a01b038216820361019f57565b606090600319011261019f576004356001600160a01b038116810361019f57906024356001600160a01b038116810361019f579060443590565b9060038210156107df5752565b6080810190811067ffffffffffffffff82111761138e57604052565b634e487b7160e01b5f52604160045260245ffd5b90601f8019910116810190811067ffffffffffffffff82111761138e57604052565b67ffffffffffffffff811161138e57601f01601f191660200190565b6001600160a01b039091169190821561156d575f828152600260205260409020546001600160a01b0316928290331515806114d8575b50846114a5575b805f52600360205260405f2060018154019055815f52600260205260405f20816bffffffffffffffffffffffff60a01b825416179055847fddf252ad1be2c89b69c2b068fc378daa952ba7f163c4a11628f55a4df523b3ef5f80a46001600160a01b031680830361148d57505050565b6364283d7b60e01b5f5260045260245260445260645ffd5b5f82815260046020526040902080546001600160a01b0319169055845f52600360205260405f205f19815401905561141d565b9091508061151c575b156114ee5782905f611416565b828461150657637e27328960e01b5f5260045260245ffd5b63177e802f60e01b5f523360045260245260445ffd5b50338414801561154b575b806114e157505f838152600460205260409020546001600160a01b031633146114e1565b505f84815260056020908152604080832033845290915290205460ff16611527565b633250574960e11b5f525f60045260245ffd5b60038210156107df5752565b92916115998183866113e0565b813b6115a6575b50505050565b604051630a85bd0160e11b81523360048201526001600160a01b03948516602482015260448101919091526080606482015292169190602090829081906115f19060848301906112db565b03815f865af15f9181611687575b5061165457503d1561164d573d611615816113c4565b9061162360405192836113a2565b81523d5f602083013e5b805190816116485782633250574960e11b5f5260045260245ffd5b602001fd5b606061162d565b6001600160e01b03191663757a42ff60e11b0161167557505f8080806115a0565b633250574960e11b5f5260045260245ffd5b9091506020813d6020116116c4575b816116a3602093836113a2565b8101031261019f57516001600160e01b03198116810361019f57905f6115ff565b3d9150611696565b5f818152600260205260409020546001600160a01b0316908115610ff0575090565b6006546001600160a01b0316330361170257565b63118cdaa760e01b5f523360045260245ffd5b9061171f826113c4565b61172c60405191826113a2565b828152809261173d601f19916113c4565b0190602036910137565b805f9172184f03e93ff9f4daa797ed6e38ed64bf6a1f0160401b82101561186c575b806d04ee2d6d415b85acef8100000000600a921015611851575b662386f26fc1000081101561183d575b6305f5e10081101561182c575b61271081101561181d575b606481101561180f575b1015611804575b600a60216117cc60018501611715565b938401015b5f1901916f181899199a1a9b1b9c1cb0b131b232b360811b8282061a83530480156117ff57600a90916117d1565b505090565b6001909101906117bc565b6064600291049301926117b5565b612710600491049301926117ab565b6305f5e100600891049301926117a0565b662386f26fc1000060109104930192611793565b6d04ee2d6d415b85acef810000000060209104930192611783565b506040915072184f03e93ff9f4daa797ed6e38ed64bf6a1f0160401b8104611769565b6001600c61190392603060208097966040519889946f3d913a3930b4ba2fba3cb832911d101160811b828701528051918291018587015e8401906b0111610113b30b63ab2911d160a51b84830152805192839101603c83015e0101607d60f81b838201520301601e198101855201836113a2565b565b9190918051156119fa578051600281018091116119e65760039004600281901b906001600160fe1b038116036119e65761193e90611715565b90602082019080815182019560208701908151925f83525b88811061199857505060039394959650525106806001146119865760021461197c575090565b603d905f19015390565b50603d90815f19820153600119015390565b600360049199969901986001603f8b5182828260121c16870101518453828282600c1c16870101518385015382828260061c1687010151600285015316840101516003820153019497611956565b634e487b7160e01b5f52601160045260245ffd5b509050604051611a0b6020826113a2565b5f81529056fea26469706673582212209e6875f3c3293a667b587265bf2fc338735d93f91783408f56bd07a25b1eec2064736f6c634300081a0033","linkReferences":{}},"methodIdentifiers":{"approve(address,uint256)":"095ea7b3","balanceOf(address)":"70a08231","burn(uint256)":"42966c68","getApproved(uint256)":"081812fc","getPredictionDetails(uint256)":"8f888338","isApprovedForAll(address,address)":"e985e9c5","mint(address,uint256,uint8,uint256)":"a7a6be96","name()":"06fdde03","owner()":"8da5cb5b","ownerOf(uint256)":"6352211e","predictionManagerAddress()":"ef9e745f","renounceOwnership()":"715018a6","safeTransferFrom(address,address,uint256)":"42842e0e","safeTransferFrom(address,address,uint256,bytes)":"b88d4fde","setApprovalForAll(address,bool)":"a22cb465","setPredictionManagerAddress(address)":"70192302","supportsInterface(bytes4)":"01ffc9a7","symbol()":"95d89b41","tokenPredictionMetadata(uint256)":"854ec608","tokenURI(uint256)":"c87b56dd","totalSupply()":"18160ddd","transferFrom(address,address,uint256)":"23b872dd","transferOwnership(address)":"f2fde38b"},"id":139}