{"abi":[{"type":"constructor","inputs":[{"name":"initialOwner","type":"address","internalType":"address"}],"stateMutability":"nonpayable"},{"type":"receive","stateMutability":"payable"},{"type":"function","name":"owner","inputs":[],"outputs":[{"name":"","type":"address","internalType":"address"}],"stateMutability":"view"},{"type":"function","name":"renounceOwnership","inputs":[],"outputs":[],"stateMutability":"nonpayable"},{"type":"function","name":"transferOwnership","inputs":[{"name":"newOwner","type":"address","internalType":"address"}],"outputs":[],"stateMutability":"nonpayable"},{"type":"function","name":"withdraw","inputs":[{"name":"_amount","type":"uint256","internalType":"uint256"},{"name":"_to","type":"address","internalType":"address payable"}],"outputs":[],"stateMutability":"nonpayable"},{"type":"function","name":"withdrawAll","inputs":[{"name":"_to","type":"address","internalType":"address payable"}],"outputs":[],"stateMutability":"nonpayable"},{"type":"event","name":"FeeReceived","inputs":[{"name":"from","type":"address","indexed":true,"internalType":"address"},{"name":"amount","type":"uint256","indexed":false,"internalType":"uint256"}],"anonymous":false},{"type":"event","name":"OwnerWithdrawal","inputs":[{"name":"to","type":"address","indexed":true,"internalType":"address"},{"name":"amount","type":"uint256","indexed":false,"internalType":"uint256"}],"anonymous":false},{"type":"event","name":"OwnershipTransferred","inputs":[{"name":"previousOwner","type":"address","indexed":true,"internalType":"address"},{"name":"newOwner","type":"address","indexed":true,"internalType":"address"}],"anonymous":false},{"type":"error","name":"NotEnoughBalance","inputs":[{"name":"requested","type":"uint256","internalType":"uint256"},{"name":"available","type":"uint256","internalType":"uint256"}]},{"type":"error","name":"OwnableInvalidOwner","inputs":[{"name":"owner","type":"address","internalType":"address"}]},{"type":"error","name":"OwnableUnauthorizedAccount","inputs":[{"name":"account","type":"address","internalType":"address"}]},{"type":"error","name":"ReentrancyGuardReentrantCall","inputs":[]},{"type":"error","name":"WithdrawalFailed","inputs":[]},{"type":"error","name":"ZeroAddress","inputs":[{"name":"message","type":"string","internalType":"string"}]}],"bytecode":{"object":"0x60803460b857601f6104fd38819003918201601f19168301916001600160401b0383118484101760bc5780849260209460405283398101031260b857516001600160a01b0381169081900360b857801560a5575f80546001600160a01b03198116831782556001600160a01b0316907f8be0079c531659141344cd1fd0a4f28419497f9722a3daafe3b4186f6b6457e09080a36001805560405161042c90816100d18239f35b631e4fbdf760e01b5f525f60045260245ffd5b5f80fd5b634e487b7160e01b5f52604160045260245ffdfe6080604052600436101561004d575b3615610018575f80fd5b3461001f57005b6040513481527fbb527541f6cc244ae00ab689f8c23d072a30a3b4176021df62ea1c2bac8aa22660203392a2005b5f3560e01c8062f714ce14610291578063715018a61461023a5780638da5cb5b14610213578063f2fde38b1461018a5763fa09e6300361000e5734610186576020366003190112610186576004356001600160a01b03811690819003610186576100b56103b0565b6100bd6103d6565b801561013657478015610120575f80808084865af16100da61034b565b50156101115760207fa919fadcfa556a012bab31b15f596ea7ccd397adbf10e15f176db9055ab361c491604051908152a260018055005b6327fcd9d160e01b5f5260045ffd5b634787a10360e11b5f528060045260245260445ffd5b60405163eac0d38960e01b815260206004820152602160248201527f5769746864726177616c20616464726573732063616e6e6f74206265207a65726044820152606f60f81b6064820152608490fd5b5f80fd5b34610186576020366003190112610186576004356001600160a01b03811690819003610186576101b86103b0565b8015610200575f80546001600160a01b03198116831782556001600160a01b0316907f8be0079c531659141344cd1fd0a4f28419497f9722a3daafe3b4186f6b6457e09080a3005b631e4fbdf760e01b5f525f60045260245ffd5b34610186575f366003190112610186575f546040516001600160a01b039091168152602090f35b34610186575f366003190112610186576102526103b0565b5f80546001600160a01b0319811682556001600160a01b03167f8be0079c531659141344cd1fd0a4f28419497f9722a3daafe3b4186f6b6457e08280a3005b34610186576040366003190112610186576024356001600160a01b0381169060043590829003610186576102c36103b0565b6102cb6103d6565b811561013657801561030657478082116102f057505f80808084865af16100da61034b565b90634787a10360e11b5f5260045260245260445ffd5b606460405163eac0d38960e01b815260206004820152602060248201527f5769746864726177616c20616d6f756e742063616e6e6f74206265207a65726f6044820152fd5b3d156103ab573d9067ffffffffffffffff82116103975760405191601f8101601f19908116603f0116830167ffffffffffffffff8111848210176103975760405282523d5f602084013e565b634e487b7160e01b5f52604160045260245ffd5b606090565b5f546001600160a01b031633036103c357565b63118cdaa760e01b5f523360045260245ffd5b6002600154146103e7576002600155565b633ee5aeb560e01b5f5260045ffdfea2646970667358221220cf30ee3ff2ea9e2ba9f6cd19191324a5d060352d54e76b62a7fd2674327f754e64736f6c634300081a0033","linkReferences":{}},"methodIdentifiers":{"owner()":"8da5cb5b","renounceOwnership()":"715018a6","transferOwnership(address)":"f2fde38b","withdraw(uint256,address)":"00f714ce","withdrawAll(address)":"fa09e630"},"id":140}