{"abi":[{"type":"constructor","inputs":[{"name":"_swapCastNFTAddress","type":"address","internalType":"address"},{"name":"_treasuryAddress","type":"address","internalType":"address"},{"name":"_initialFeeBasisPoints","type":"uint256","internalType":"uint256"},{"name":"_initialMinStakeAmount","type":"uint256","internalType":"uint256"},{"name":"_maxPriceStalenessSeconds","type":"uint256","internalType":"uint256"},{"name":"_oracleResolverAddress","type":"address","internalType":"address"},{"name":"_rewardDistributorAddress","type":"address","internalType":"address"}],"stateMutability":"nonpayable"},{"type":"function","name":"MARKET_EXPIRED_SIGNATURE","inputs":[],"outputs":[{"name":"","type":"bytes32","internalType":"bytes32"}],"stateMutability":"view"},{"type":"function","name":"checkLog","inputs":[{"name":"_log","type":"tuple","internalType":"struct Log","components":[{"name":"index","type":"uint256","internalType":"uint256"},{"name":"timestamp","type":"uint256","internalType":"uint256"},{"name":"txHash","type":"bytes32","internalType":"bytes32"},{"name":"blockNumber","type":"uint256","internalType":"uint256"},{"name":"blockHash","type":"bytes32","internalType":"bytes32"},{"name":"source","type":"address","internalType":"address"},{"name":"topics","type":"bytes32[]","internalType":"bytes32[]"},{"name":"data","type":"bytes","internalType":"bytes"}]},{"name":"","type":"bytes","internalType":"bytes"}],"outputs":[{"name":"upkeepNeeded","type":"bool","internalType":"bool"},{"name":"performData","type":"bytes","internalType":"bytes"}],"stateMutability":"view"},{"type":"function","name":"checkUpkeep","inputs":[{"name":"","type":"bytes","internalType":"bytes"}],"outputs":[{"name":"upkeepNeeded","type":"bool","internalType":"bool"},{"name":"performData","type":"bytes","internalType":"bytes"}],"stateMutability":"view"},{"type":"function","name":"claimReward","inputs":[{"name":"_tokenId","type":"uint256","internalType":"uint256"}],"outputs":[],"stateMutability":"nonpayable"},{"type":"function","name":"createMarket","inputs":[{"name":"_marketId","type":"uint256","internalType":"uint256"},{"name":"_name","type":"string","internalType":"string"},{"name":"_assetSymbol","type":"string","internalType":"string"},{"name":"_expirationTime","type":"uint256","internalType":"uint256"},{"name":"_priceAggregator","type":"address","internalType":"address"},{"name":"_priceThreshold","type":"uint256","internalType":"uint256"}],"outputs":[],"stateMutability":"nonpayable"},{"type":"function","name":"getMarketCount","inputs":[],"outputs":[{"name":"","type":"uint256","internalType":"uint256"}],"stateMutability":"view"},{"type":"function","name":"getMarketDetails","inputs":[{"name":"_marketId","type":"uint256","internalType":"uint256"}],"outputs":[{"name":"marketId_","type":"uint256","internalType":"uint256"},{"name":"name_","type":"string","internalType":"string"},{"name":"assetSymbol_","type":"string","internalType":"string"},{"name":"exists_","type":"bool","internalType":"bool"},{"name":"resolved_","type":"bool","internalType":"bool"},{"name":"winningOutcome_","type":"uint8","internalType":"enum PredictionTypes.Outcome"},{"name":"totalConvictionStakeOutcome0_","type":"uint256","internalType":"uint256"},{"name":"totalConvictionStakeOutcome1_","type":"uint256","internalType":"uint256"},{"name":"expirationTime_","type":"uint256","internalType":"uint256"},{"name":"priceAggregator_","type":"address","internalType":"address"},{"name":"priceThreshold_","type":"uint256","internalType":"uint256"}],"stateMutability":"view"},{"type":"function","name":"getMarketIdAtIndex","inputs":[{"name":"_index","type":"uint256","internalType":"uint256"}],"outputs":[{"name":"","type":"uint256","internalType":"uint256"}],"stateMutability":"view"},{"type":"function","name":"getUserHasPredicted","inputs":[{"name":"_marketId","type":"uint256","internalType":"uint256"},{"name":"_user","type":"address","internalType":"address"}],"outputs":[{"name":"","type":"bool","internalType":"bool"}],"stateMutability":"view"},{"type":"function","name":"maxPriceStalenessSeconds","inputs":[],"outputs":[{"name":"","type":"uint256","internalType":"uint256"}],"stateMutability":"view"},{"type":"function","name":"minStakeAmount","inputs":[],"outputs":[{"name":"","type":"uint256","internalType":"uint256"}],"stateMutability":"view"},{"type":"function","name":"onERC721Received","inputs":[{"name":"","type":"address","internalType":"address"},{"name":"","type":"address","internalType":"address"},{"name":"","type":"uint256","internalType":"uint256"},{"name":"","type":"bytes","internalType":"bytes"}],"outputs":[{"name":"","type":"bytes4","internalType":"bytes4"}],"stateMutability":"pure"},{"type":"function","name":"oracleResolverAddress","inputs":[],"outputs":[{"name":"","type":"address","internalType":"address"}],"stateMutability":"view"},{"type":"function","name":"owner","inputs":[],"outputs":[{"name":"","type":"address","internalType":"address"}],"stateMutability":"view"},{"type":"function","name":"performUpkeep","inputs":[{"name":"performData","type":"bytes","internalType":"bytes"}],"outputs":[],"stateMutability":"nonpayable"},{"type":"function","name":"protocolFeeBasisPoints","inputs":[],"outputs":[{"name":"","type":"uint256","internalType":"uint256"}],"stateMutability":"view"},{"type":"function","name":"recordPrediction","inputs":[{"name":"_user","type":"address","internalType":"address"},{"name":"_marketId","type":"uint256","internalType":"uint256"},{"name":"_outcome","type":"uint8","internalType":"enum PredictionTypes.Outcome"},{"name":"_convictionStakeDeclared","type":"uint128","internalType":"uint128"}],"outputs":[],"stateMutability":"payable"},{"type":"function","name":"renounceOwnership","inputs":[],"outputs":[],"stateMutability":"nonpayable"},{"type":"function","name":"resolveMarket","inputs":[{"name":"_marketId","type":"uint256","internalType":"uint256"},{"name":"_winningOutcome","type":"uint8","internalType":"enum PredictionTypes.Outcome"},{"name":"_oraclePrice","type":"int256","internalType":"int256"}],"outputs":[],"stateMutability":"nonpayable"},{"type":"function","name":"rewardDistributorAddress","inputs":[],"outputs":[{"name":"","type":"address","internalType":"address"}],"stateMutability":"view"},{"type":"function","name":"setFeeConfiguration","inputs":[{"name":"_newTreasuryAddress","type":"address","internalType":"address"},{"name":"_newFeeBasisPoints","type":"uint256","internalType":"uint256"}],"outputs":[],"stateMutability":"nonpayable"},{"type":"function","name":"setMaxPriceStaleness","inputs":[{"name":"_newStalenessSeconds","type":"uint256","internalType":"uint256"}],"outputs":[],"stateMutability":"nonpayable"},{"type":"function","name":"setMinStakeAmount","inputs":[{"name":"_newMinStakeAmount","type":"uint256","internalType":"uint256"}],"outputs":[],"stateMutability":"nonpayable"},{"type":"function","name":"swapCastNFT","inputs":[],"outputs":[{"name":"","type":"address","internalType":"contract ISwapCastNFT"}],"stateMutability":"view"},{"type":"function","name":"transferOwnership","inputs":[{"name":"newOwner","type":"address","internalType":"address"}],"outputs":[],"stateMutability":"nonpayable"},{"type":"function","name":"treasuryAddress","inputs":[],"outputs":[{"name":"","type":"address","internalType":"address"}],"stateMutability":"view"},{"type":"event","name":"FeeConfigurationChanged","inputs":[{"name":"newTreasuryAddress","type":"address","indexed":true,"internalType":"address"},{"name":"newFeeBasisPoints","type":"uint256","indexed":false,"internalType":"uint256"}],"anonymous":false},{"type":"event","name":"FeePaid","inputs":[{"name":"marketId","type":"uint256","indexed":true,"internalType":"uint256"},{"name":"user","type":"address","indexed":true,"internalType":"address"},{"name":"protocolFee","type":"uint256","indexed":false,"internalType":"uint256"}],"anonymous":false},{"type":"event","name":"MarketCreated","inputs":[{"name":"marketId","type":"uint256","indexed":true,"internalType":"uint256"},{"name":"name","type":"string","indexed":false,"internalType":"string"},{"name":"assetSymbol","type":"string","indexed":false,"internalType":"string"},{"name":"expirationTime","type":"uint256","indexed":false,"internalType":"uint256"},{"name":"priceAggregator","type":"address","indexed":false,"internalType":"address"},{"name":"priceThreshold","type":"uint256","indexed":false,"internalType":"uint256"}],"anonymous":false},{"type":"event","name":"MarketExpired","inputs":[{"name":"marketId","type":"uint256","indexed":true,"internalType":"uint256"},{"name":"expirationTimestamp","type":"uint256","indexed":false,"internalType":"uint256"}],"anonymous":false},{"type":"event","name":"MarketResolutionFailed","inputs":[{"name":"marketId","type":"uint256","indexed":true,"internalType":"uint256"},{"name":"reason","type":"string","indexed":false,"internalType":"string"}],"anonymous":false},{"type":"event","name":"MarketResolved","inputs":[{"name":"marketId","type":"uint256","indexed":true,"internalType":"uint256"},{"name":"winningOutcome","type":"uint8","indexed":false,"internalType":"enum PredictionTypes.Outcome"},{"name":"price","type":"int256","indexed":false,"internalType":"int256"},{"name":"totalPrizePool","type":"uint256","indexed":false,"internalType":"uint256"}],"anonymous":false},{"type":"event","name":"MinStakeAmountChanged","inputs":[{"name":"newMinStakeAmount","type":"uint256","indexed":false,"internalType":"uint256"}],"anonymous":false},{"type":"event","name":"OwnershipTransferred","inputs":[{"name":"previousOwner","type":"address","indexed":true,"internalType":"address"},{"name":"newOwner","type":"address","indexed":true,"internalType":"address"}],"anonymous":false},{"type":"event","name":"RewardClaimed","inputs":[{"name":"user","type":"address","indexed":true,"internalType":"address"},{"name":"tokenId","type":"uint256","indexed":true,"internalType":"uint256"},{"name":"rewardAmount","type":"uint256","indexed":false,"internalType":"uint256"}],"anonymous":false},{"type":"event","name":"StakeRecorded","inputs":[{"name":"marketId","type":"uint256","indexed":true,"internalType":"uint256"},{"name":"user","type":"address","indexed":true,"internalType":"address"},{"name":"outcome","type":"uint8","indexed":false,"internalType":"enum PredictionTypes.Outcome"},{"name":"amount","type":"uint256","indexed":false,"internalType":"uint256"}],"anonymous":false},{"type":"error","name":"AlreadyPredicted","inputs":[{"name":"marketId","type":"uint256","internalType":"uint256"},{"name":"user","type":"address","internalType":"address"}]},{"type":"error","name":"AlreadyPredictedL","inputs":[{"name":"user","type":"address","internalType":"address"}]},{"type":"error","name":"AmountCannotBeZero","inputs":[]},{"type":"error","name":"AmountCannotBeZeroL","inputs":[]},{"type":"error","name":"ClaimFailedNoStakeForOutcome","inputs":[]},{"type":"error","name":"ClaimFailedNoStakeForOutcomeL","inputs":[]},{"type":"error","name":"FeeTransferFailed","inputs":[]},{"type":"error","name":"FeeTransferFailedL","inputs":[]},{"type":"error","name":"InvalidAssetSymbol","inputs":[]},{"type":"error","name":"InvalidExpirationTime","inputs":[]},{"type":"error","name":"InvalidFeeBasisPoints","inputs":[{"name":"feeBasisPoints","type":"uint256","internalType":"uint256"}]},{"type":"error","name":"InvalidMarketId","inputs":[]},{"type":"error","name":"InvalidMarketName","inputs":[]},{"type":"error","name":"InvalidPriceAggregator","inputs":[]},{"type":"error","name":"InvalidUpkeepData","inputs":[{"name":"reason","type":"string","internalType":"string"}]},{"type":"error","name":"MarketAlreadyExists","inputs":[{"name":"marketId","type":"uint256","internalType":"uint256"}]},{"type":"error","name":"MarketAlreadyResolved","inputs":[{"name":"marketId","type":"uint256","internalType":"uint256"}]},{"type":"error","name":"MarketAlreadyResolvedL","inputs":[]},{"type":"error","name":"MarketDoesNotExist","inputs":[{"name":"marketId","type":"uint256","internalType":"uint256"}]},{"type":"error","name":"MarketExpiredL","inputs":[]},{"type":"error","name":"MarketNotResolved","inputs":[{"name":"marketId","type":"uint256","internalType":"uint256"}]},{"type":"error","name":"MarketNotResolvedL","inputs":[]},{"type":"error","name":"NotOracleResolver","inputs":[]},{"type":"error","name":"NotRewardDistributor","inputs":[]},{"type":"error","name":"NotWinningNFT","inputs":[]},{"type":"error","name":"NotWinningNFTL","inputs":[]},{"type":"error","name":"PriceAtThreshold","inputs":[]},{"type":"error","name":"PriceOracleStale","inputs":[]},{"type":"error","name":"PriceOracleStaleL","inputs":[]},{"type":"error","name":"ResolutionFailedOracleError","inputs":[]},{"type":"error","name":"RewardTransferFailed","inputs":[]},{"type":"error","name":"RewardTransferFailedL","inputs":[]},{"type":"error","name":"StakeBelowMinimum","inputs":[{"name":"sentAmount","type":"uint256","internalType":"uint256"},{"name":"minRequiredAmount","type":"uint256","internalType":"uint256"}]},{"type":"error","name":"StakeBelowMinimumL","inputs":[{"name":"sentAmount","type":"uint256","internalType":"uint256"},{"name":"minRequiredAmount","type":"uint256","internalType":"uint256"}]},{"type":"error","name":"StakeMismatch","inputs":[{"name":"actual","type":"uint256","internalType":"uint256"},{"name":"declared","type":"uint256","internalType":"uint256"}]},{"type":"error","name":"ZeroAddressInput","inputs":[]}],"bytecode":{"object":"0x60803461020c57601f6123de38819003918201601f19168301916001600160401b038311848410176102105780849260e09460405283398101031261020c5761004781610224565b9061005460208201610224565b9060408101519260608201519260808301519261007f60c061007860a08401610224565b9201610224565b5f8054336001600160a01b0319821681178355604051969395939290916001600160a01b0316907f8be0079c531659141344cd1fd0a4f28419497f9722a3daafe3b4186f6b6457e09080a36001600160a01b0316801580156101fb575b80156101ea575b80156101d9575b6101ca5761271088116101b757600180546001600160a01b031990811690921790556002805482166001600160a01b0393841690811790915560038990556004889055600796909655600880548216938316939093179092556009805490921692169190911790558381527fcfb041914d4719170dda8759042e9ebe4f34085e32cf31e09bcce455b53490c29260209290917f94796f39f9a92272c0bb1afb6daa9c9d778f2ebadf4a2407830fc5ef56bd8751908490a2604051908152a16040516121a590816102398239f35b87632749a67360e01b5f5260045260245ffd5b6321a945f160e11b5f5260045ffd5b506001600160a01b038416156100ea565b506001600160a01b038316156100e3565b506001600160a01b038216156100dc565b5f80fd5b634e487b7160e01b5f52604160045260245ffd5b51906001600160a01b038216820361020c5756fe60806040526004361015610011575f80fd5b5f803560e01c80630ca15c3c1461173d57806314139b4d1461168b578063150b7a021461163557806328044f61146115fb5780632c5af7b7146115d3578063345a54be1461158d5780633fa298d81461156557806340691db4146115075780634585e33b14610f6157806365b2d32714610f405780636e04ff0d14610ef2578063705b850b14610ec2578063715018a614610e6b5780638da5cb5b14610e44578063ae169a5014610b73578063b06c1ba314610a95578063b2b85d9314610a77578063c5f956af14610a4e578063d9c1408b14610a30578063e0a67c54146106e9578063eb4af0451461069b578063f18876841461067d578063f2fde38b146105b7578063f8dc9b001461058e578063fd69f3c2146105705763ffc7bef914610138575f80fd5b3461056d5760c036600319011261056d576004356024356001600160401b0381116105695761016b9036906004016118dc565b6044356001600160401b0381116105655761018a9036906004016118dc565b606435906084356001600160a01b038116908190036105615760a435916101af611df1565b851561055357858752600560205260ff60036040892001541661053f57428411156105305781156105215784511561051257805115610503578587526005602052604087208681556001810186516001600160401b03811161043d576102158254611cdb565b601f81116104be575b50806020601f821160011461045c578b91610451575b508160011b915f199060031b1c19161790555b815190600281016001600160401b03831161043d579081610269879354611cdb565b601f81116103eb575b50602093601f81116001146103875780600994958d9161037c575b508160011b915f199060031b1c19161790555b60038101805460ff19166001179055600781018790556008810180546001600160a01b0319168617905501556006546801000000000000000081101561036857916103527ff9a2e61c6954c7c1cdd45413e0488ca515bca71b77468f4de6e7fea6e556335e96949261031c85600161034499970160065561193f565b81549060031b908b821b915f19901b191617905560405196879660a0885260a088019061183f565b90868203602088015261183f565b926040850152606084015260808301520390a280f35b634e487b7160e01b88526041600452602488fd5b90508601515f61028d565b818c52848c20601f1982168d5b8181106103d0575090600995968360019493106103b8575b5050811b0190556102a0565b8801515f1960f88460031b161c191690555f806103ac565b8888015183556020978801978b975060019093019201610394565b90809293508b5260208b20601f850160051c81019160208610610433575b90601f89959493920160051c01905b8181106104255750610272565b8c8155889450600101610418565b9091508190610409565b634e487b7160e01b8a52604160045260248afd5b90508801515f610234565b838c52808c209150601f1983168c5b8b8282106104a6575050908360019493921061048e575b5050811b019055610247565b8a01515f1960f88460031b161c191690555f80610482565b6001849560209395849301518155019401920161046b565b828b5260208b20601f830160051c810191602084106104f9575b601f0160051c01905b8181106104ee575061021e565b8b81556001016104e1565b90915081906104d8565b6308a37ecf60e31b8752600487fd5b639d18ae2d60e01b8752600487fd5b6321a945f160e11b8752600487fd5b6308e8b93760e01b8752600487fd5b6311453d1960e31b87526004869052602487fd5b62320bd360e51b8752600487fd5b8580fd5b8380fd5b8280fd5b80fd5b503461056d578060031936011261056d576020600654604051908152f35b503461056d578060031936011261056d576009546040516001600160a01b039091168152602090f35b503461056d57602036600319011261056d576105d16117e6565b6105d9611df1565b6001600160a01b031680156106295781546001600160a01b03198116821783556001600160a01b03167f8be0079c531659141344cd1fd0a4f28419497f9722a3daafe3b4186f6b6457e08380a380f35b60405162461bcd60e51b815260206004820152602660248201527f4f776e61626c653a206e6577206f776e657220697320746865207a65726f206160448201526564647265737360d01b6064820152608490fd5b503461056d578060031936011261056d576020600454604051908152f35b503461056d57602036600319011261056d577fcfb041914d4719170dda8759042e9ebe4f34085e32cf31e09bcce455b53490c260206004356106db611df1565b80600455604051908152a180f35b50608036600319011261056d576106fe6117e6565b602435604435600281101561056557606435926fffffffffffffffffffffffffffffffff8416809403610a2c576001600160a01b0316928315610a1d578015610a0e5760035461075b6127106107548385611db3565b0483611de4565b8034036109f8575083865260056020526040862060038101549060ff8216156109e45760018060a01b03600154169060018060a01b0360025416936004549360078301544210156109d55760081c60ff166109c6576006820190895f528160205260ff60405f2054166109b2576107d56127109188611db3565b049380871061099b5750908392918a959415159485610965575b50602092916084918b5f52845260405f20600160ff1982541617905588155f1461094f5760048101610822898254611de4565b90555b5460405196879384926353d35f4b60e11b84528d60048501526024840152610850604484018c61187f565b8960648401525af191821561094457879387936108e1575b50917fa2b1d86927d417c306a212f9b1597a89dee88c04da0b05283056cf1dc80452ff959391604095936108af575b5050506108a68351809361187f565b6020820152a380f35b60207f6fe296e805108cd514fea415210be4016149b01eeb08effbe130951b6a5f6c0b918751908152a385855f610897565b959350909391506020853d60201161093c575b816109016020938361188c565b81010312610938579193509185918591907fa2b1d86927d417c306a212f9b1597a89dee88c04da0b05283056cf1dc80452ff610868565b8780fd5b3d91506108f4565b6040513d8a823e3d90fd5b6005810161095e898254611de4565b9055610825565b95808086819495969798995af161097a612129565b501561098c579089949392915f6107ef565b630861858160e11b8a5260048afd5b633530a80160e01b8b52600487905260245260448afd5b6350fdf45560e01b8b5260048a905260248bfd5b63d11c6a5160e01b8a5260048afd5b6354e8b64960e01b8b5260048bfd5b630fff01a760e31b88526004869052602488fd5b63e18f366b60e01b875234600452602452604486fd5b63d11b25af60e01b8552600485fd5b6321a945f160e11b8552600485fd5b8480fd5b503461056d578060031936011261056d576020600754604051908152f35b503461056d578060031936011261056d576002546040516001600160a01b039091168152602090f35b503461056d578060031936011261056d576020600354604051908152f35b503461056d57602036600319011261056d5760409060043581526005602052208054600382015460048301546005840154600785015460018060a01b0360088701541691600987015493610b53610b29610afd6002610af660018d01611d13565b9b01611d13565b610b1b6040519b8c9b8c5261016060208d01526101608c019061183f565b908a820360408c015261183f565b9660ff8116151560608a015260ff8160081c16151560808a015260ff60a08a019160101c1661187f565b60c087015260e08601526101008501526101208401526101408301520390f35b5034610d08576020366003190112610d0857600954600435906001600160a01b03163303610e35576001546040516311f1106760e31b815260048101839052906001600160a01b0316608082602481845afa908115610cfd575f80935f905f94610dd1575b50815f52600560205260405f209160038301549060ff821615610dbf575060ff8160081c1615610db05760101c60ff16946002861015610d9c576002811015610d9c578503610d8d578015610d7e578094155f14610d42576004820154918215610d3357600501549081610d0c575b5050505b803b15610d08575f8091602460405180948193630852cd8d60e31b83528960048401525af18015610cfd57610ce8575b5081610cbb575b6040519182526001600160a01b0316907ff01da32686223933d8a18a391060918c7f11a3648639edd87ae013e2e273174390602090a380f35b83808080856001600160a01b0386165af1610cd4612129565b50610c825763140ef10d60e31b8452600484fd5b610cf59194505f9061188c565b5f925f610c7b565b6040513d5f823e3d90fd5b5f80fd5b91610d1f610d2492610d2a959794611db3565b611dc6565b90611de4565b915f8080610c47565b636623a72960e01b5f5260045ffd5b906005810154908115610d33576004015480610d61575b505050610c4b565b610d7593955090610d1f610d249284611db3565b915f8080610d59565b631b98fc0360e11b5f5260045ffd5b634960f54360e01b5f5260045ffd5b634e487b7160e01b5f52602160045260245ffd5b63335d97d960e01b5f5260045ffd5b630fff01a760e31b5f5260045260245ffd5b9450505090506080823d608011610e2d575b81610df06080938361188c565b81010312610d085781519060208301516002811015610d08576040840151606090940151926001600160a01b0384168403610d085790935f610bd8565b3d9150610de3565b63af216a6b60e01b5f5260045ffd5b34610d08575f366003190112610d08575f546040516001600160a01b039091168152602090f35b34610d08575f366003190112610d0857610e83611df1565b5f80546001600160a01b0319811682556001600160a01b03167f8be0079c531659141344cd1fd0a4f28419497f9722a3daafe3b4186f6b6457e08280a3005b34610d08576040366003190112610d08576020610ee8610ee06117fc565b600435611c96565b6040519015158152f35b34610d08576020366003190112610d08576004356001600160401b038111610d0857610f22903690600401611812565b5050610f2c611b15565b90610f3c60405192839283611863565b0390f35b34610d08576020366003190112610d0857610f59611df1565b600435600755005b34610d08576020366003190112610d08576004356001600160401b038111610d0857610f91903690600401611812565b81018181039160208312610d085780356003811015610d08575f90600181036114515750604060609461100d8251610fc9888261188c565b602d81527f504d3a20706572666f726d55706b656570202d20416374696f6e3a20456d697460208201526c13585c9ad95d115e1c1a5c9959609a1b84820152611e9d565b12610d0857610d08576020810135906001600160401b038211610d0857019080601f83011215610d0857813561104281611ab8565b92611050604051948561188c565b81845260208085019260051b820101928311610d0857602001905b828210611441575050506110ca8151604051611087858261188c565b602b81527f504d3a20706572666f726d55706b656570202d204e756d206d61726b6574732060208201526a3a3790383937b1b2b9b99d60a91b60408201526120a1565b5f5b81518110156113e157806110e260019284611acf565b5161113a816040516110f4888261188c565b602e81527f504d3a20706572666f726d55706b656570202d2050726f63657373696e67206d60208201526d30b935b2ba24b22a37a2b6b4ba1d60911b60408201526120a1565b805f52600560205260405f20600381015490600760ff8084169361119f856040516111658d8261188c565b602281527f504d3a20706572666f726d55706b656570202d204d61726b6574206578697374602082015261399d60f11b60408201526120e4565b60081c16916111f1836040516111b58c8261188c565b602481527f504d3a20706572666f726d55706b656570202d204d61726b6574207265736f6c6020820152633b32b21d60e11b60408201526120e4565b015490611247826040516112058b8261188c565b602a81527f504d3a20706572666f726d55706b656570202d204d61726b657420657870697260208201526930ba34b7b72a34b6b29d60b11b60408201526120a1565b61129d6040516112578a8261188c565b602c81527f504d3a20706572666f726d55706b656570202d2043757272656e7420626c6f6360208201526b35973a34b6b2b9ba30b6b81d60a11b604082015242906120a1565b826113d8575b50816113ce575b816113c3575b501561134657611315816040516112c7888261188c565b603681527f504d3a20706572666f726d55706b656570202d20456d697474696e67204d617260208201527535b2ba22bc3834b932b2103337b91036b0b935b2ba1d60511b60408201526120a1565b7ff54828bb5a115e746bdf8fa1e2662db7e2d601f726731fa5019131b337c33ce06020604051428152a25b016110cc565b6113be906080611359604051918261188c565b604881527f504d3a20706572666f726d55706b656570202d20436f6e646974696f6e73206e60208201527f6f74206d657420746f20656d6974204d61726b65744578706972656420666f726040820152671036b0b935b2ba1d60c11b878201526120a1565b611340565b9050421015866112b0565b80151591506112aa565b159150876112a3565b505061143f906113f4604051918261188c565b603381527f504d3a20706572666f726d55706b656570202d2046696e697368656420456d696020820152720744d61726b657445787069726564206c6f6f7606c1b6040820152611e9d565b005b813581526020918201910161106b565b91939250506002036114c2576040906114b0825161147060608261188c565b602981527f504d3a20706572666f726d55706b656570202d20416374696f6e3a205265736f6020820152681b1d9953585c9ad95d60ba1b84820152611e9d565b12610d0857602061143f910135611eef565b6064604051630d9b7f0b60e21b815260206004820152602060248201527f556e6b6e6f776e204c6f67416374696f6e20696e20706572666f726d446174616044820152fd5b34610d08576040366003190112610d08576004356001600160401b038111610d08576101006003198236030112610d0857602435906001600160401b038211610d085761155b610f2c923690600401611812565b50506004016119a0565b34610d08575f366003190112610d08576008546040516001600160a01b039091168152602090f35b34610d08576020366003190112610d08576004356006548110156115c5576115b660209161193f565b90549060031b1c604051908152f35b62320bd360e51b5f5260045ffd5b34610d08575f366003190112610d08576001546040516001600160a01b039091168152602090f35b34610d08575f366003190112610d085760206040517ff54828bb5a115e746bdf8fa1e2662db7e2d601f726731fa5019131b337c33ce08152f35b34610d08576080366003190112610d085761164e6117e6565b506116576117fc565b506064356001600160401b038111610d0857611677903690600401611812565b5050604051630a85bd0160e11b8152602090f35b34610d08576060366003190112610d08576004356024356002811015610d08576008546001600160a01b0316330361172e57815f52600560205260405f209060ff6003830154161561171b57611702817fcc1bc25c4d52370e9824dcad12774be2826bee7223a1605ab5ca6e6f6899c33e93611e48565b906117166040519283926044359084611922565b0390a2005b82630fff01a760e31b5f5260045260245ffd5b630dfb072160e31b5f5260045ffd5b34610d08576040366003190112610d08576117566117e6565b60243590611762611df1565b6001600160a01b03169081156117d75761271081116117c55760207f94796f39f9a92272c0bb1afb6daa9c9d778f2ebadf4a2407830fc5ef56bd875191836bffffffffffffffffffffffff60a01b600254161760025580600355604051908152a2005b632749a67360e01b5f5260045260245ffd5b6321a945f160e11b5f5260045ffd5b600435906001600160a01b0382168203610d0857565b602435906001600160a01b0382168203610d0857565b9181601f84011215610d08578235916001600160401b038311610d085760208381860195010111610d0857565b805180835260209291819084018484015e5f828201840152601f01601f1916010190565b60409061187c939215158152816020820152019061183f565b90565b906002821015610d9c5752565b90601f801991011681019081106001600160401b038211176118ad57604052565b634e487b7160e01b5f52604160045260245ffd5b6001600160401b0381116118ad57601f01601f191660200190565b81601f82011215610d08578035906118f3826118c1565b92611901604051948561188c565b82845260208383010111610d0857815f926020809301838601378301015290565b60409194939261193682606081019761187f565b60208201520152565b6006548110156119575760065f5260205f2001905f90565b634e487b7160e01b5f52603260045260245ffd5b903590601e1981360301821215610d0857018035906001600160401b038211610d0857602001918160051b36038313610d0857565b60a08101356001600160a01b03811690819003610d08573014801590611aa0575b8015611a64575b611a54578060c06119da92019061196b565b60011015611957576020013590815f526005602052600360405f20015460ff811615908115611a46575b50611a2e576040519160026020840152604083015260408252611a2860608361188c565b60019190565b6040519150611a3e60208361188c565b5f82525f9190565b60ff915060081c165f611a04565b5060405190611a3e60208361188c565b50611a7260c082018261196b565b1561195757357ff54828bb5a115e746bdf8fa1e2662db7e2d601f726731fa5019131b337c33ce014156119c8565b506002611ab060c083018361196b565b9050106119c1565b6001600160401b0381116118ad5760051b60200190565b80518210156119575760209160051b010190565b90611aed82611ab8565b611afa604051918261188c565b8281528092611b0b601f1991611ab8565b0190602036910137565b60065490611b2282611ae3565b915f905f5b818110611be0575b50508015611bc857611b4081611ae3565b925f5b828110611ba957505050604051918260608101916001602083015260408083015280518093526020608083019101925f5b818110611b90575050611a28925003601f19810184528361188c565b8451835260209485019487945090920191600101611b74565b80611bb660019284611acf565b51611bc18288611acf565b5201611b43565b506040515f9250611bda60208261188c565b5f815290565b611be98161193f565b90549060031b1c805f52600560205260405f2060038101549060ff82169182611c87575b5081611c79575b81611c6a575b50611c36575b5060328314611c3157600101611b27565b611b2f565b611c438487959395611acf565b525f198114611c5657600101915f611c20565b634e487b7160e01b5f52601160045260245ffd5b6007915001544210155f611c1a565b600781015415159150611c14565b60081c60ff161591505f611c0d565b805f52600560205260ff600360405f2001541615611cd5575f526005602052600660405f20019060018060a01b03165f5260205260ff60405f20541690565b50505f90565b90600182811c92168015611d09575b6020831014611cf557565b634e487b7160e01b5f52602260045260245ffd5b91607f1691611cea565b9060405191825f825492611d2684611cdb565b8084529360018116908115611d915750600114611d4d575b50611d4b9250038361188c565b565b90505f9291925260205f20905f915b818310611d75575050906020611d4b928201015f611d3e565b6020919350806001915483858901015201910190918492611d5c565b905060209250611d4b94915060ff191682840152151560051b8201015f611d3e565b81810292918115918404141715611c5657565b8115611dd0570490565b634e487b7160e01b5f52601260045260245ffd5b91908201809211611c5657565b5f546001600160a01b03163303611e0457565b606460405162461bcd60e51b815260206004820152602060248201527f4f776e61626c653a2063616c6c6572206973206e6f7420746865206f776e65726044820152fd5b6003810180549260ff8460081c16611e8e576002811015610d9c5761187c9362ff00006101009260101b169062ffff001916171790556005600482015491015490611de4565b63d11c6a5160e01b5f5260045ffd5b5f611eca611ed8829360405192839163104c13eb60e21b602084015260206024840152604483019061183f565b03601f19810183528261188c565b6020815191016a636f6e736f6c652e6c6f675afa50565b805f52600560205260405f20600381015460ff811615908115612093575b50801561207e575b61207a576007810154421061207a5760075460088201546001600160a01b031690811561206b5760a060049260405193848092633fabe5a360e21b82525afa8015610cfd575f925f91612017575b504203428111611c56571161200857600982015480821315611fc257507fcc1bc25c4d52370e9824dcad12774be2826bee7223a1605ab5ca6e6f6899c33e91611fbd611fb160018093611e48565b60405193849384611922565b0390a2565b811215611ff9577fcc1bc25c4d52370e9824dcad12774be2826bee7223a1605ab5ca6e6f6899c33e91611fbd611fb15f8093611e48565b6301b94aa160e01b5f5260045ffd5b63ee8c177f60e01b5f5260045ffd5b92505060a0823d60a011612063575b8161203360a0938361188c565b81010312610d085761204482612158565b50602082015161205b608060608501519401612158565b50915f611f63565b3d9150612026565b63f05c4dbd60e01b5f5260045ffd5b5050565b5060088101546001600160a01b031615611f15565b60ff915060081c165f611f0d565b6120d0611ed85f93928493604051938492632d839cb360e21b602085015260406024850152606484019061183f565b90604483015203601f19810183528261188c565b612113611ed85f9392849360405193849263c3b5563560e01b602085015260406024850152606484019061183f565b901515604483015203601f19810183528261188c565b3d15612153573d9061213a826118c1565b91612148604051938461188c565b82523d5f602084013e565b606090565b519069ffffffffffffffffffff82168203610d085756fea264697066735822122032c6eb84aaf19338f2300807654f04c3f5e668436aa5315164b4e7d68b9b644f64736f6c634300081a0033","linkReferences":{}},"methodIdentifiers":{"MARKET_EXPIRED_SIGNATURE()":"28044f61","checkLog((uint256,uint256,bytes32,uint256,bytes32,address,bytes32[],bytes),bytes)":"40691db4","checkUpkeep(bytes)":"6e04ff0d","claimReward(uint256)":"ae169a50","createMarket(uint256,string,string,uint256,address,uint256)":"ffc7bef9","getMarketCount()":"fd69f3c2","getMarketDetails(uint256)":"b06c1ba3","getMarketIdAtIndex(uint256)":"345a54be","getUserHasPredicted(uint256,address)":"705b850b","maxPriceStalenessSeconds()":"d9c1408b","minStakeAmount()":"f1887684","onERC721Received(address,address,uint256,bytes)":"150b7a02","oracleResolverAddress()":"3fa298d8","owner()":"8da5cb5b","performUpkeep(bytes)":"4585e33b","protocolFeeBasisPoints()":"b2b85d93","recordPrediction(address,uint256,uint8,uint128)":"e0a67c54","renounceOwnership()":"715018a6","resolveMarket(uint256,uint8,int256)":"14139b4d","rewardDistributorAddress()":"f8dc9b00","setFeeConfiguration(address,uint256)":"0ca15c3c","setMaxPriceStaleness(uint256)":"65b2d327","setMinStakeAmount(uint256)":"eb4af045","swapCastNFT()":"2c5af7b7","transferOwnership(address)":"f2fde38b","treasuryAddress()":"c5f956af"},"id":108}