{"abi":[{"type":"constructor","inputs":[{"name":"_predictionManagerAddress","type":"address","internalType":"address"},{"name":"_pythContract","type":"address","internalType":"address"},{"name":"initialOwner","type":"address","internalType":"address"}],"stateMutability":"nonpayable"},{"type":"function","name":"getCurrentPrice","inputs":[{"name":"priceId","type":"bytes32","internalType":"bytes32"}],"outputs":[{"name":"price","type":"tuple","internalType":"struct PythStructs.Price","components":[{"name":"price","type":"int64","internalType":"int64"},{"name":"conf","type":"uint64","internalType":"uint64"},{"name":"expo","type":"int32","internalType":"int32"},{"name":"publishTime","type":"uint256","internalType":"uint256"}]}],"stateMutability":"view"},{"type":"function","name":"getUpdateFee","inputs":[{"name":"priceUpdateData","type":"bytes[]","internalType":"bytes[]"}],"outputs":[{"name":"fee","type":"uint256","internalType":"uint256"}],"stateMutability":"view"},{"type":"function","name":"marketOracles","inputs":[{"name":"","type":"uint256","internalType":"uint256"}],"outputs":[{"name":"priceId","type":"bytes32","internalType":"bytes32"},{"name":"priceThreshold","type":"uint256","internalType":"uint256"},{"name":"expectedExpo","type":"int32","internalType":"int32"},{"name":"isRegistered","type":"bool","internalType":"bool"}],"stateMutability":"view"},{"type":"function","name":"maxPriceStalenessSeconds","inputs":[],"outputs":[{"name":"","type":"uint256","internalType":"uint256"}],"stateMutability":"view"},{"type":"function","name":"owner","inputs":[],"outputs":[{"name":"","type":"address","internalType":"address"}],"stateMutability":"view"},{"type":"function","name":"predictionManager","inputs":[],"outputs":[{"name":"","type":"address","internalType":"contract IPredictionManagerForResolver"}],"stateMutability":"view"},{"type":"function","name":"pyth","inputs":[],"outputs":[{"name":"","type":"address","internalType":"contract IPyth"}],"stateMutability":"view"},{"type":"function","name":"registerOracle","inputs":[{"name":"_marketId","type":"uint256","internalType":"uint256"},{"name":"_priceId","type":"bytes32","internalType":"bytes32"},{"name":"_priceThreshold","type":"uint256","internalType":"uint256"},{"name":"_expectedExpo","type":"int32","internalType":"int32"}],"outputs":[],"stateMutability":"nonpayable"},{"type":"function","name":"renounceOwnership","inputs":[],"outputs":[],"stateMutability":"nonpayable"},{"type":"function","name":"resolveMarket","inputs":[{"name":"_marketId","type":"uint256","internalType":"uint256"},{"name":"priceUpdateData","type":"bytes[]","internalType":"bytes[]"}],"outputs":[],"stateMutability":"payable"},{"type":"function","name":"setMaxPriceStaleness","inputs":[{"name":"_newStalenessSeconds","type":"uint256","internalType":"uint256"}],"outputs":[],"stateMutability":"nonpayable"},{"type":"function","name":"transferOwnership","inputs":[{"name":"newOwner","type":"address","internalType":"address"}],"outputs":[],"stateMutability":"nonpayable"},{"type":"event","name":"MarketResolved","inputs":[{"name":"marketId","type":"uint256","indexed":true,"internalType":"uint256"},{"name":"price","type":"int64","indexed":false,"internalType":"int64"},{"name":"winningOutcome","type":"uint8","indexed":false,"internalType":"enum PredictionTypes.Outcome"}],"anonymous":false},{"type":"event","name":"MaxPriceStalenessSet","inputs":[{"name":"oldStaleness","type":"uint256","indexed":false,"internalType":"uint256"},{"name":"newStaleness","type":"uint256","indexed":false,"internalType":"uint256"}],"anonymous":false},{"type":"event","name":"OracleRegistered","inputs":[{"name":"marketId","type":"uint256","indexed":true,"internalType":"uint256"},{"name":"priceId","type":"bytes32","indexed":false,"internalType":"bytes32"},{"name":"priceThreshold","type":"uint256","indexed":false,"internalType":"uint256"}],"anonymous":false},{"type":"event","name":"OwnershipTransferred","inputs":[{"name":"previousOwner","type":"address","indexed":true,"internalType":"address"},{"name":"newOwner","type":"address","indexed":true,"internalType":"address"}],"anonymous":false},{"type":"error","name":"InsufficientUpdateFee","inputs":[{"name":"provided","type":"uint256","internalType":"uint256"},{"name":"required","type":"uint256","internalType":"uint256"}]},{"type":"error","name":"InvalidPrice","inputs":[]},{"type":"error","name":"InvalidPriceId","inputs":[]},{"type":"error","name":"InvalidPriceThreshold","inputs":[]},{"type":"error","name":"OracleAlreadyRegistered","inputs":[{"name":"marketId","type":"uint256","internalType":"uint256"}]},{"type":"error","name":"OracleNotRegistered","inputs":[{"name":"marketId","type":"uint256","internalType":"uint256"}]},{"type":"error","name":"OwnableInvalidOwner","inputs":[{"name":"owner","type":"address","internalType":"address"}]},{"type":"error","name":"OwnableUnauthorizedAccount","inputs":[{"name":"account","type":"address","internalType":"address"}]},{"type":"error","name":"PredictionManagerZeroAddress","inputs":[]},{"type":"error","name":"PriceConfidenceTooLow","inputs":[{"name":"confidence","type":"uint256","internalType":"uint256"},{"name":"price","type":"uint256","internalType":"uint256"}]},{"type":"error","name":"PythContractZeroAddress","inputs":[]},{"type":"error","name":"ResolutionFailedInManager","inputs":[{"name":"marketId","type":"uint256","internalType":"uint256"}]},{"type":"error","name":"UnexpectedPriceExponent","inputs":[{"name":"expected","type":"int32","internalType":"int32"},{"name":"actual","type":"int32","internalType":"int32"}]}],"bytecode":{"object":"0x60c03461014f57601f610df338819003918201601f19168301916001600160401b038311848410176101535780849260609460405283398101031261014f5761004781610167565b9061005460208201610167565b906001600160a01b039061006a90604001610167565b1691821561013c575f80546001600160a01b031981168517825560405194916001600160a01b03909116907f8be0079c531659141344cd1fd0a4f28419497f9722a3daafe3b4186f6b6457e09080a36001600160a01b031690811561012d576001600160a01b031690811561011e5760805260a052610e10600255610c77908161017c823960805181818161018d01526105a5015260a05181818160b7015281816102320152818161044401526109c70152f35b634d05497560e01b5f5260045ffd5b63f9e10fb560e01b5f5260045ffd5b631e4fbdf760e01b5f525f60045260245ffd5b5f80fd5b634e487b7160e01b5f52604160045260245ffd5b51906001600160a01b038216820361014f5756fe6080806040526004361015610012575f80fd5b5f905f3560e01c908163161e444e14610974575080634c8d1eda1461092257806365b2d327146108ce578063715018a6146108775780638da5cb5b1461085057806392a8db3f146103dc578063d0cf05bd146102b7578063d47eed45146101da578063d9c1408b146101bc578063ee687a9814610177578063f2fde38b146100e95763f98d06f0146100a2575f80fd5b346100e657806003193601126100e6576040517f00000000000000000000000000000000000000000000000000000000000000006001600160a01b03168152602090f35b80fd5b50346100e65760203660031901126100e6576004356001600160a01b0381169081900361017357610118610c1b565b801561015f5781546001600160a01b03198116821783556001600160a01b03167f8be0079c531659141344cd1fd0a4f28419497f9722a3daafe3b4186f6b6457e08380a380f35b631e4fbdf760e01b82526004829052602482fd5b5080fd5b50346100e657806003193601126100e6576040517f00000000000000000000000000000000000000000000000000000000000000006001600160a01b03168152602090f35b50346100e657806003193601126100e6576020600254604051908152f35b50346100e65760203660031901126100e65760043567ffffffffffffffff81116101735790602061021261022e933690600401610a4e565b60405163d47eed4560e01b815294859283929060048401610b34565b03817f00000000000000000000000000000000000000000000000000000000000000006001600160a01b03165afa9081156102ab5790610274575b602090604051908152f35b506020813d6020116102a3575b8161028e60209383610aaf565b8101031261029f5760209051610269565b5f80fd5b3d9150610281565b604051903d90823e3d90fd5b50346100e65760803660031901126100e6576004356024356044356064358060030b8091036103d8576102e8610c1b565b838552600160205260ff600260408720015460201c166103c45782156103b55781156103a657916040917f07ce663ce1b984eaeacc7666279ed4f52c0cdacea9df1efe92404270d7a0e22393835161033f81610a7f565b83815260026020820191848352868101938452606081019260018452898b526001602052878b20915182555160018201550191519063ffffffff64ff0000000084549251151560201b1692169064ffffffffff19161717905582519182526020820152a280f35b6309524aff60e41b8552600485fd5b6373d7250f60e01b8552600485fd5b63917a7deb60e01b85526004849052602485fd5b8480fd5b50604036600319011261029f5760043560243567ffffffffffffffff811161029f5761040c903690600401610a4e565b90825f52600160205260405f2060028101549160ff8360201c161561083d57600182549201549260030b916002549160018060a01b037f000000000000000000000000000000000000000000000000000000000000000016956040519163d47eed4560e01b835260208380610485858560048401610b34565b03818b5afa9283156107e7575f93610809575b508234106107f257873b1561029f57604051631df3cbc560e31b8152915f91839182916104c9919060048401610b34565b0381858b5af180156107e7576107d2575b50803411610782575b50608091603c81101561077757604490915b604051968793849263052571af60e51b8452600484015260248301525afa92831561076c57859361073b575b5084835160070b131561072d57604083015160030b818103610715575067ffffffffffffffff6020840151169067ffffffffffffffff8451169160648102818104606414821517156107015783106106ea575085811261069f5761058490610bd8565b9081810291818304149015171561068b575b10610684576001905b805184907f00000000000000000000000000000000000000000000000000000000000000006001600160a01b03169060070b813b156106805782916064839260405195869384926314139b4d60e01b84528b6004850152610603602485018c610bfa565b60448401525af1918261066b575b505061062b576307d933f360e51b84526004839052602484fd5b7f94e61fa51bc26fed51b6657418446d0a892650db852f5a8256d134fb4446a169916106676040925160070b9183519283526020830190610bfa565ba280f35b8161067591610aaf565b6103d857845f610611565b8280fd5b829061059f565b634e487b7160e01b85526011600452602485fd5b600160ff1b81146106d6576106b5908603610bd8565b9081156106c25704610596565b634e487b7160e01b86526012600452602486fd5b634e487b7160e01b86526011600452602486fd5b630995a26d60e11b87526004526024829052604486fd5b634e487b7160e01b88526011600452602488fd5b637809f3ab60e01b8652600491909152602452604484fd5b62bfc92160e01b8552600485fd5b61075e91935060803d608011610765575b6107568183610aaf565b810190610ad1565b915f610521565b503d61074c565b6040513d87823e3d90fd5b506044603c916104f5565b803403903482116107be57888080938193829034146107b5575b3390f1156107aa575f6104e3565b6040513d88823e3d90fd5b506108fc61079c565b634e487b7160e01b89526011600452602489fd5b6107df9198505f90610aaf565b5f965f6104da565b6040513d5f823e3d90fd5b8263dd519f0360e01b5f523460045260245260445ffd5b9092506020813d602011610835575b8161082560209383610aaf565b8101031261029f5751915f610498565b3d9150610818565b84631788ec2b60e21b5f5260045260245ffd5b3461029f575f36600319011261029f575f546040516001600160a01b039091168152602090f35b3461029f575f36600319011261029f5761088f610c1b565b5f80546001600160a01b0319811682556001600160a01b03167f8be0079c531659141344cd1fd0a4f28419497f9722a3daafe3b4186f6b6457e08280a3005b3461029f57602036600319011261029f577fe21c7294aea4443442e8d93c674d8430a17f35e245338666aece1e90b77af00c604060043561090d610c1b565b600254908060025582519182526020820152a1005b3461029f57602036600319011261029f576004355f526001602052608060405f2060ff815491600260018201549101549060405193845260208401528060030b604084015260201c1615156060820152f35b3461029f57602036600319011261029f576060816109925f93610a7f565b82815282602082015282604082015201526040516396834ad360e01b8152600435600482015260808160248160018060a01b037f0000000000000000000000000000000000000000000000000000000000000000165afa80156107e7576080915f91610a31575b50606060405191805160070b835267ffffffffffffffff6020820151166020840152604081015160030b604084015201516060820152f35b610a489150823d8411610765576107568183610aaf565b826109f9565b9181601f8401121561029f5782359167ffffffffffffffff831161029f576020808501948460051b01011161029f57565b6080810190811067ffffffffffffffff821117610a9b57604052565b634e487b7160e01b5f52604160045260245ffd5b90601f8019910116810190811067ffffffffffffffff821117610a9b57604052565b9081608091031261029f5760405190610ae982610a7f565b80518060070b810361029f578252602081015167ffffffffffffffff8116810361029f5760208301526040810151908160030b820361029f5760609160408401520151606082015290565b9180602084016020855252604083019060408160051b85010193835f91601e1982360301905b848410610b6b575050505050505090565b90919293949596603f1982820301875287358381121561029f578401906020823592019167ffffffffffffffff811161029f57803603831361029f576020828280600196849695859652848401375f828201840152601f01601f1916010199019701959401929190610b5a565b604d8111610be657600a0a90565b634e487b7160e01b5f52601160045260245ffd5b906003821015610c075752565b634e487b7160e01b5f52602160045260245ffd5b5f546001600160a01b03163303610c2e57565b63118cdaa760e01b5f523360045260245ffdfea2646970667358221220a23ace9da7ec6b53d17179cc040c6da20e2230f93147ec2e0ea030aaf473372964736f6c634300081a0033","linkReferences":{}},"methodIdentifiers":{"getCurrentPrice(bytes32)":"161e444e","getUpdateFee(bytes[])":"d47eed45","marketOracles(uint256)":"4c8d1eda","maxPriceStalenessSeconds()":"d9c1408b","owner()":"8da5cb5b","predictionManager()":"ee687a98","pyth()":"f98d06f0","registerOracle(uint256,bytes32,uint256,int32)":"d0cf05bd","renounceOwnership()":"715018a6","resolveMarket(uint256,bytes[])":"92a8db3f","setMaxPriceStaleness(uint256)":"65b2d327","transferOwnership(address)":"f2fde38b"},"id":136}