{"abi":[{"type":"constructor","inputs":[{"name":"_poolManager","type":"address","internalType":"contract IPoolManager"},{"name":"_predictionManagerAddress","type":"address","internalType":"address"}],"stateMutability":"nonpayable"},{"type":"receive","stateMutability":"payable"},{"type":"function","name":"afterAddLiquidity","inputs":[{"name":"sender","type":"address","internalType":"address"},{"name":"key","type":"tuple","internalType":"struct PoolKey","components":[{"name":"currency0","type":"address","internalType":"Currency"},{"name":"currency1","type":"address","internalType":"Currency"},{"name":"fee","type":"uint24","internalType":"uint24"},{"name":"tickSpacing","type":"int24","internalType":"int24"},{"name":"hooks","type":"address","internalType":"contract IHooks"}]},{"name":"params","type":"tuple","internalType":"struct ModifyLiquidityParams","components":[{"name":"tickLower","type":"int24","internalType":"int24"},{"name":"tickUpper","type":"int24","internalType":"int24"},{"name":"liquidityDelta","type":"int256","internalType":"int256"},{"name":"salt","type":"bytes32","internalType":"bytes32"}]},{"name":"delta","type":"int256","internalType":"BalanceDelta"},{"name":"feesAccrued","type":"int256","internalType":"BalanceDelta"},{"name":"hookData","type":"bytes","internalType":"bytes"}],"outputs":[{"name":"","type":"bytes4","internalType":"bytes4"},{"name":"","type":"int256","internalType":"BalanceDelta"}],"stateMutability":"nonpayable"},{"type":"function","name":"afterDonate","inputs":[{"name":"sender","type":"address","internalType":"address"},{"name":"key","type":"tuple","internalType":"struct PoolKey","components":[{"name":"currency0","type":"address","internalType":"Currency"},{"name":"currency1","type":"address","internalType":"Currency"},{"name":"fee","type":"uint24","internalType":"uint24"},{"name":"tickSpacing","type":"int24","internalType":"int24"},{"name":"hooks","type":"address","internalType":"contract IHooks"}]},{"name":"amount0","type":"uint256","internalType":"uint256"},{"name":"amount1","type":"uint256","internalType":"uint256"},{"name":"hookData","type":"bytes","internalType":"bytes"}],"outputs":[{"name":"","type":"bytes4","internalType":"bytes4"}],"stateMutability":"nonpayable"},{"type":"function","name":"afterInitialize","inputs":[{"name":"sender","type":"address","internalType":"address"},{"name":"key","type":"tuple","internalType":"struct PoolKey","components":[{"name":"currency0","type":"address","internalType":"Currency"},{"name":"currency1","type":"address","internalType":"Currency"},{"name":"fee","type":"uint24","internalType":"uint24"},{"name":"tickSpacing","type":"int24","internalType":"int24"},{"name":"hooks","type":"address","internalType":"contract IHooks"}]},{"name":"sqrtPriceX96","type":"uint160","internalType":"uint160"},{"name":"tick","type":"int24","internalType":"int24"}],"outputs":[{"name":"","type":"bytes4","internalType":"bytes4"}],"stateMutability":"nonpayable"},{"type":"function","name":"afterRemoveLiquidity","inputs":[{"name":"sender","type":"address","internalType":"address"},{"name":"key","type":"tuple","internalType":"struct PoolKey","components":[{"name":"currency0","type":"address","internalType":"Currency"},{"name":"currency1","type":"address","internalType":"Currency"},{"name":"fee","type":"uint24","internalType":"uint24"},{"name":"tickSpacing","type":"int24","internalType":"int24"},{"name":"hooks","type":"address","internalType":"contract IHooks"}]},{"name":"params","type":"tuple","internalType":"struct ModifyLiquidityParams","components":[{"name":"tickLower","type":"int24","internalType":"int24"},{"name":"tickUpper","type":"int24","internalType":"int24"},{"name":"liquidityDelta","type":"int256","internalType":"int256"},{"name":"salt","type":"bytes32","internalType":"bytes32"}]},{"name":"delta","type":"int256","internalType":"BalanceDelta"},{"name":"feesAccrued","type":"int256","internalType":"BalanceDelta"},{"name":"hookData","type":"bytes","internalType":"bytes"}],"outputs":[{"name":"","type":"bytes4","internalType":"bytes4"},{"name":"","type":"int256","internalType":"BalanceDelta"}],"stateMutability":"nonpayable"},{"type":"function","name":"afterSwap","inputs":[{"name":"sender","type":"address","internalType":"address"},{"name":"key","type":"tuple","internalType":"struct PoolKey","components":[{"name":"currency0","type":"address","internalType":"Currency"},{"name":"currency1","type":"address","internalType":"Currency"},{"name":"fee","type":"uint24","internalType":"uint24"},{"name":"tickSpacing","type":"int24","internalType":"int24"},{"name":"hooks","type":"address","internalType":"contract IHooks"}]},{"name":"params","type":"tuple","internalType":"struct SwapParams","components":[{"name":"zeroForOne","type":"bool","internalType":"bool"},{"name":"amountSpecified","type":"int256","internalType":"int256"},{"name":"sqrtPriceLimitX96","type":"uint160","internalType":"uint160"}]},{"name":"delta","type":"int256","internalType":"BalanceDelta"},{"name":"hookData","type":"bytes","internalType":"bytes"}],"outputs":[{"name":"","type":"bytes4","internalType":"bytes4"},{"name":"","type":"int128","internalType":"int128"}],"stateMutability":"nonpayable"},{"type":"function","name":"beforeAddLiquidity","inputs":[{"name":"sender","type":"address","internalType":"address"},{"name":"key","type":"tuple","internalType":"struct PoolKey","components":[{"name":"currency0","type":"address","internalType":"Currency"},{"name":"currency1","type":"address","internalType":"Currency"},{"name":"fee","type":"uint24","internalType":"uint24"},{"name":"tickSpacing","type":"int24","internalType":"int24"},{"name":"hooks","type":"address","internalType":"contract IHooks"}]},{"name":"params","type":"tuple","internalType":"struct ModifyLiquidityParams","components":[{"name":"tickLower","type":"int24","internalType":"int24"},{"name":"tickUpper","type":"int24","internalType":"int24"},{"name":"liquidityDelta","type":"int256","internalType":"int256"},{"name":"salt","type":"bytes32","internalType":"bytes32"}]},{"name":"hookData","type":"bytes","internalType":"bytes"}],"outputs":[{"name":"","type":"bytes4","internalType":"bytes4"}],"stateMutability":"nonpayable"},{"type":"function","name":"beforeDonate","inputs":[{"name":"sender","type":"address","internalType":"address"},{"name":"key","type":"tuple","internalType":"struct PoolKey","components":[{"name":"currency0","type":"address","internalType":"Currency"},{"name":"currency1","type":"address","internalType":"Currency"},{"name":"fee","type":"uint24","internalType":"uint24"},{"name":"tickSpacing","type":"int24","internalType":"int24"},{"name":"hooks","type":"address","internalType":"contract IHooks"}]},{"name":"amount0","type":"uint256","internalType":"uint256"},{"name":"amount1","type":"uint256","internalType":"uint256"},{"name":"hookData","type":"bytes","internalType":"bytes"}],"outputs":[{"name":"","type":"bytes4","internalType":"bytes4"}],"stateMutability":"nonpayable"},{"type":"function","name":"beforeInitialize","inputs":[{"name":"sender","type":"address","internalType":"address"},{"name":"key","type":"tuple","internalType":"struct PoolKey","components":[{"name":"currency0","type":"address","internalType":"Currency"},{"name":"currency1","type":"address","internalType":"Currency"},{"name":"fee","type":"uint24","internalType":"uint24"},{"name":"tickSpacing","type":"int24","internalType":"int24"},{"name":"hooks","type":"address","internalType":"contract IHooks"}]},{"name":"sqrtPriceX96","type":"uint160","internalType":"uint160"}],"outputs":[{"name":"","type":"bytes4","internalType":"bytes4"}],"stateMutability":"nonpayable"},{"type":"function","name":"beforeRemoveLiquidity","inputs":[{"name":"sender","type":"address","internalType":"address"},{"name":"key","type":"tuple","internalType":"struct PoolKey","components":[{"name":"currency0","type":"address","internalType":"Currency"},{"name":"currency1","type":"address","internalType":"Currency"},{"name":"fee","type":"uint24","internalType":"uint24"},{"name":"tickSpacing","type":"int24","internalType":"int24"},{"name":"hooks","type":"address","internalType":"contract IHooks"}]},{"name":"params","type":"tuple","internalType":"struct ModifyLiquidityParams","components":[{"name":"tickLower","type":"int24","internalType":"int24"},{"name":"tickUpper","type":"int24","internalType":"int24"},{"name":"liquidityDelta","type":"int256","internalType":"int256"},{"name":"salt","type":"bytes32","internalType":"bytes32"}]},{"name":"hookData","type":"bytes","internalType":"bytes"}],"outputs":[{"name":"","type":"bytes4","internalType":"bytes4"}],"stateMutability":"nonpayable"},{"type":"function","name":"beforeSwap","inputs":[{"name":"sender","type":"address","internalType":"address"},{"name":"key","type":"tuple","internalType":"struct PoolKey","components":[{"name":"currency0","type":"address","internalType":"Currency"},{"name":"currency1","type":"address","internalType":"Currency"},{"name":"fee","type":"uint24","internalType":"uint24"},{"name":"tickSpacing","type":"int24","internalType":"int24"},{"name":"hooks","type":"address","internalType":"contract IHooks"}]},{"name":"params","type":"tuple","internalType":"struct SwapParams","components":[{"name":"zeroForOne","type":"bool","internalType":"bool"},{"name":"amountSpecified","type":"int256","internalType":"int256"},{"name":"sqrtPriceLimitX96","type":"uint160","internalType":"uint160"}]},{"name":"hookData","type":"bytes","internalType":"bytes"}],"outputs":[{"name":"","type":"bytes4","internalType":"bytes4"},{"name":"","type":"int256","internalType":"BeforeSwapDelta"},{"name":"","type":"uint24","internalType":"uint24"}],"stateMutability":"nonpayable"},{"type":"function","name":"getHookPermissions","inputs":[],"outputs":[{"name":"permissions","type":"tuple","internalType":"struct Hooks.Permissions","components":[{"name":"beforeInitialize","type":"bool","internalType":"bool"},{"name":"afterInitialize","type":"bool","internalType":"bool"},{"name":"beforeAddLiquidity","type":"bool","internalType":"bool"},{"name":"afterAddLiquidity","type":"bool","internalType":"bool"},{"name":"beforeRemoveLiquidity","type":"bool","internalType":"bool"},{"name":"afterRemoveLiquidity","type":"bool","internalType":"bool"},{"name":"beforeSwap","type":"bool","internalType":"bool"},{"name":"afterSwap","type":"bool","internalType":"bool"},{"name":"beforeDonate","type":"bool","internalType":"bool"},{"name":"afterDonate","type":"bool","internalType":"bool"},{"name":"beforeSwapReturnDelta","type":"bool","internalType":"bool"},{"name":"afterSwapReturnDelta","type":"bool","internalType":"bool"},{"name":"afterAddLiquidityReturnDelta","type":"bool","internalType":"bool"},{"name":"afterRemoveLiquidityReturnDelta","type":"bool","internalType":"bool"}]}],"stateMutability":"pure"},{"type":"function","name":"owner","inputs":[],"outputs":[{"name":"","type":"address","internalType":"address"}],"stateMutability":"view"},{"type":"function","name":"poolManager","inputs":[],"outputs":[{"name":"","type":"address","internalType":"contract IPoolManager"}],"stateMutability":"view"},{"type":"function","name":"predictionManager","inputs":[],"outputs":[{"name":"","type":"address","internalType":"contract IPredictionManager"}],"stateMutability":"view"},{"type":"function","name":"recoverETH","inputs":[{"name":"_to","type":"address","internalType":"address"},{"name":"_amount","type":"uint256","internalType":"uint256"}],"outputs":[],"stateMutability":"nonpayable"},{"type":"function","name":"renounceOwnership","inputs":[],"outputs":[],"stateMutability":"nonpayable"},{"type":"function","name":"transferOwnership","inputs":[{"name":"newOwner","type":"address","internalType":"address"}],"outputs":[],"stateMutability":"nonpayable"},{"type":"event","name":"HookDataDebug","inputs":[{"name":"receivedLength","type":"uint256","indexed":false,"internalType":"uint256"},{"name":"expectedLength","type":"uint256","indexed":false,"internalType":"uint256"},{"name":"isUniversalRouter","type":"bool","indexed":false,"internalType":"bool"}],"anonymous":false},{"type":"event","name":"OwnershipTransferred","inputs":[{"name":"previousOwner","type":"address","indexed":true,"internalType":"address"},{"name":"newOwner","type":"address","indexed":true,"internalType":"address"}],"anonymous":false},{"type":"event","name":"PredictionAttempted","inputs":[{"name":"user","type":"address","indexed":true,"internalType":"address"},{"name":"poolId","type":"bytes32","indexed":true,"internalType":"PoolId"},{"name":"marketId","type":"uint256","indexed":false,"internalType":"uint256"},{"name":"outcome","type":"uint8","indexed":false,"internalType":"enum PredictionTypes.Outcome"},{"name":"convictionStake","type":"uint128","indexed":false,"internalType":"uint128"},{"name":"swapAmount","type":"uint256","indexed":false,"internalType":"uint256"}],"anonymous":false},{"type":"event","name":"PredictionFailed","inputs":[{"name":"user","type":"address","indexed":true,"internalType":"address"},{"name":"poolId","type":"bytes32","indexed":true,"internalType":"PoolId"},{"name":"marketId","type":"uint256","indexed":false,"internalType":"uint256"},{"name":"outcome","type":"uint8","indexed":false,"internalType":"enum PredictionTypes.Outcome"},{"name":"convictionStake","type":"uint128","indexed":false,"internalType":"uint128"},{"name":"swapAmount","type":"uint256","indexed":false,"internalType":"uint256"},{"name":"errorSelector","type":"bytes4","indexed":false,"internalType":"bytes4"}],"anonymous":false},{"type":"event","name":"PredictionRecorded","inputs":[{"name":"user","type":"address","indexed":true,"internalType":"address"},{"name":"poolId","type":"bytes32","indexed":true,"internalType":"PoolId"},{"name":"marketId","type":"uint256","indexed":false,"internalType":"uint256"},{"name":"outcome","type":"uint8","indexed":false,"internalType":"enum PredictionTypes.Outcome"},{"name":"convictionStake","type":"uint128","indexed":false,"internalType":"uint128"},{"name":"swapAmount","type":"uint256","indexed":false,"internalType":"uint256"}],"anonymous":false},{"type":"error","name":"ETHTransferFailed","inputs":[]},{"type":"error","name":"HookNotImplemented","inputs":[]},{"type":"error","name":"InsufficientBalance","inputs":[{"name":"requested","type":"uint256","internalType":"uint256"},{"name":"available","type":"uint256","internalType":"uint256"}]},{"type":"error","name":"InsufficientSwapAmountForStake","inputs":[]},{"type":"error","name":"InvalidHookDataLength","inputs":[{"name":"actualLength","type":"uint256","internalType":"uint256"},{"name":"expectedLength","type":"uint256","internalType":"uint256"}]},{"type":"error","name":"NotPoolManager","inputs":[]},{"type":"error","name":"OwnableInvalidOwner","inputs":[{"name":"owner","type":"address","internalType":"address"}]},{"type":"error","name":"OwnableUnauthorizedAccount","inputs":[{"name":"account","type":"address","internalType":"address"}]},{"type":"error","name":"PredictionPoolZeroAddress","inputs":[]},{"type":"error","name":"PredictionRecordingFailed","inputs":[{"name":"reason","type":"string","internalType":"string"}]},{"type":"error","name":"SafeCastOverflowedUintDowncast","inputs":[{"name":"bits","type":"uint8","internalType":"uint8"},{"name":"value","type":"uint256","internalType":"uint256"}]},{"type":"error","name":"ZeroAddress","inputs":[]}],"bytecode":{"object":"0x60c06040523461031357604051601f6116d338819003918201601f19168301916001600160401b03831184841017610317578084926040948552833981010312610313578051906001600160a01b038216820361031357602001516001600160a01b0381169190829003610313576080525f6101a061007c61032b565b8281528260208201528260408201528260608201528260808201528260a08201528260c08201528260e0820152826101008201528261012082015282610140820152826101608201528261018082015201525f6101a06100da61032b565b8281528260208201528260408201528260608201528260808201528260a08201528260c0820152600160e082015282610100820152826101208201528261014082015282610160820152826101808201520152612000301615801590610306575b80156102f9575b80156102ec575b80156102df575b80156102d2575b80156102c6575b80156102b6575b80156102aa575b801561029e575b8015610292575b8015610286575b801561027a575b801561026e575b61025b573315610248575f8054336001600160a01b0319821681178355604051939290916001600160a01b0316907f8be0079c531659141344cd1fd0a4f28419497f9722a3daafe3b4186f6b6457e09080a380156102395760a052611387908161034c82396080518181816101b90152818161023b0152818161028d01528181610478015281816104e301528181610634015261070d015260a0518181816101770152610bc00152f35b630fc73f1f60e01b5f5260045ffd5b631e4fbdf760e01b5f525f60045260245ffd5b630732d7b560e51b5f523060045260245ffd5b5060013016151561018f565b50600230161515610188565b50600430161515610181565b5060083016151561017a565b50601030161515610173565b5060203016151561016c565b5060403016151560011415610165565b5060803016151561015e565b5061010030161515610157565b5061020030161515610150565b5061040030161515610149565b5061080030161515610142565b506110003016151561013b565b5f80fd5b634e487b7160e01b5f52604160045260245ffd5b604051906101c082016001600160401b038111838210176103175760405256fe6080604052600436101561001a575b3615610018575f80fd5b005b5f3560e01c806321d0ee70146106fa578063259982e5146106fa5780633e0c062914610671578063575e24b4146105dc5780636c2bbe7e146104d05780636fe7e6eb146105a4578063715018a61461054d5780638da5cb5b146105265780639f063efc146104d0578063b47b2fb114610421578063b6a8b0fa146101a6578063c4e833ce146102bc578063dc4c90d314610278578063dc98354e1461020a578063e1b4af69146101a6578063ee687a98146101625763f2fde38b0361000e573461015e57602036600319011261015e576100f261074e565b6100fa610984565b6001600160a01b0316801561014b575f80546001600160a01b03198116831782556001600160a01b0316907f8be0079c531659141344cd1fd0a4f28419497f9722a3daafe3b4186f6b6457e09080a3005b631e4fbdf760e01b5f525f60045260245ffd5b5f80fd5b3461015e575f36600319011261015e576040517f00000000000000000000000000000000000000000000000000000000000000006001600160a01b03168152602090f35b3461015e576101b43661089a565b5050507f00000000000000000000000000000000000000000000000000000000000000006001600160a01b0316330392506101fb91505057630a85dc2960e01b5f5260045ffd5b63570c108560e11b5f5260045ffd5b3461015e5760e036600319011261015e5761022361074e565b5060a036602319011261015e57610238610874565b507f00000000000000000000000000000000000000000000000000000000000000006001600160a01b031633036101fb57630a85dc2960e01b5f5260045ffd5b3461015e575f36600319011261015e576040517f00000000000000000000000000000000000000000000000000000000000000006001600160a01b03168152602090f35b3461015e575f36600319011261015e575f6101a06040516102dc816108f2565b8281528260208201528260408201528260608201528260808201528260a08201528260c08201528260e0820152826101008201528261012082015282610140820152826101608201528261018082015201526101c0602060405161033f816108f2565b5f8152818101905f8252604081015f8152606082015f8152608083015f815260a084015f815260c085015f815260e0860190600182526101008701925f84526101208801945f86526101408901965f88526101608a01985f8a526101a06101808c019b5f8d52019b5f8d526040519d8e915f835251151591015251151560408d015251151560608c015251151560808b015251151560a08a015251151560c089015251151560e08801525115156101008701525115156101208601525115156101408501525115156101608401525115156101808301525115156101a0820152f35b3461015e5761016036600319011261015e5761043b61074e565b5060a036602319011261015e5760603660c319011261015e576101443567ffffffffffffffff811161015e57610475903690600401610778565b907f00000000000000000000000000000000000000000000000000000000000000006001600160a01b031633036101fb576040916104b69161012435610af6565b82516001600160e01b03199092168252600f0b6020820152f35b3461015e576104de3661080a565b5050507f00000000000000000000000000000000000000000000000000000000000000006001600160a01b0316330393506101fb9250505057630a85dc2960e01b5f5260045ffd5b3461015e575f36600319011261015e575f546040516001600160a01b039091168152602090f35b3461015e575f36600319011261015e57610565610984565b5f80546001600160a01b0319811682556001600160a01b03167f8be0079c531659141344cd1fd0a4f28419497f9722a3daafe3b4186f6b6457e08280a3005b3461015e5761010036600319011261015e576105be61074e565b5060a036602319011261015e576105d3610874565b5061023861088a565b3461015e5761014036600319011261015e576105f661074e565b5060a036602319011261015e5760603660c319011261015e576101243567ffffffffffffffff811161015e57610630903690600401610778565b50507f00000000000000000000000000000000000000000000000000000000000000006001600160a01b031633036101fb57630a85dc2960e01b5f5260045ffd5b3461015e57604036600319011261015e5761068a61074e565b60243590610696610984565b6001600160a01b038116156106eb574782116106d3575f80809381935af16106bc610945565b50156106c457005b63b12d13eb60e01b5f5260045ffd5b50479063cf47918160e01b5f5260045260245260445ffd5b63d92e233d60e01b5f5260045ffd5b3461015e57610708366107a6565b5050507f00000000000000000000000000000000000000000000000000000000000000006001600160a01b0316330391506101fb905057630a85dc2960e01b5f5260045ffd5b600435906001600160a01b038216820361015e57565b35906001600160a01b038216820361015e57565b9181601f8401121561015e5782359167ffffffffffffffff831161015e576020838186019501011161015e57565b9061016060031983011261015e576004356001600160a01b038116810361015e579160a060231982011261015e57602491608060c31983011261015e5760c491610144359067ffffffffffffffff821161015e5761080691600401610778565b9091565b906101a060031983011261015e576004356001600160a01b038116810361015e579160a060231982011261015e57602491608060c31983011261015e5760c49161014435916101643591610184359067ffffffffffffffff821161015e5761080691600401610778565b60c435906001600160a01b038216820361015e57565b60e435908160020b820361015e57565b61012060031982011261015e576004356001600160a01b038116810361015e579160a060231983011261015e5760249160c4359160e43591610104359067ffffffffffffffff821161015e5761080691600401610778565b6101c0810190811067ffffffffffffffff82111761090f57604052565b634e487b7160e01b5f52604160045260245ffd5b90601f8019910116810190811067ffffffffffffffff82111761090f57604052565b3d1561097f573d9067ffffffffffffffff821161090f5760405191610974601f8201601f191660200184610923565b82523d5f602084013e565b606090565b5f546001600160a01b0316330361099757565b63118cdaa760e01b5f523360045260245ffd5b9060038210156109b75752565b634e487b7160e01b5f52602160045260245ffd5b91908260a091031261015e5760405160a0810181811067ffffffffffffffff82111761090f5760405280926109ff81610764565b8252610a0d60208201610764565b6020830152604081013562ffffff8116810361015e5760408301526060810135908160020b820361015e57606083019190915260800135906001600160a01b038216820361015e5760800152565b5f60443d10610ac1576040513d600319016004823e8051913d602484011167ffffffffffffffff841117610acc578282019283519167ffffffffffffffff8311610ac4573d84016003190185840160200111610ac45750610ac192910160200190610923565b90565b949350505050565b92915050565b805180835260209291819084018484015e5f828201840152601f01601f1916010190565b92915f93811561113257603582141580611127575b6110dd57610b198284611144565b1561109257823560601c90603460148501359401355f1a9284158015611088575b61103a57508060801d81600f0b5f82600f0b1390818092611030575b15610fe15750506001600160801b03169290506024356001600160a01b038116810361015e57505b606483048015610fd25766038d7ea4c680008110610fc357925b6001600160801b038411610fab5760405163b2b85d9360e01b81526001600160801b038516967f00000000000000000000000000000000000000000000000000000000000000006001600160a01b03169590916020816004818a5afa908115610fa0575f91610f6e575b50808202908282041482151715610f5a5761271090048101809111610f5a57600384101595866109b757803b1561015e575f906084604051809481936338299f1560e21b83528a60048401528c6024840152610c61604484018b6109aa565b8d60648401525af19081610f45575b50610ee157508660033d11610ed1575b6308c379a014610dc3575b610c93610945565b9587926040968751610ca58982610923565b600d81526c2ab735b737bbb71032b93937b960991b602082015298805160048110918215610d74575b50505060a0610cde3660246109cb565b2096610d605791610d21610d5c9a94927fb6353c1f27d792ad81b64319fe9b1acc3b8b98aa1dc937c0c7a5486e63ea685696948a519650865260208601906109aa565b8388015260608301526001600160e01b031916608082015260a090a351639b964ca960e01b8152602060048201529182916024830190610ad2565b0390fd5b634e487b7160e01b8a52602160045260248afd5b60200151929a506001600160e01b0319831696509190610da3575b5050610d9a84611174565b975f8080610cce565b6001600160e01b031960049290920360031b82901b161693505f80610d8f565b610dcb610a5b565b80610dd65750610c8b565b95610e2c9592610e3a899860405198899160406020840152601960608401527f50726564696374696f6e4d616e61676572204572726f723a200000000000000060808401526080604084015260a0830190610ad2565b03601f198101895288610923565b60a0610e473660246109cb565b2095610ebd5791610d5c9791610e897fb6353c1f27d792ad81b64319fe9b1acc3b8b98aa1dc937c0c7a5486e63ea6856959460405195865260208601906109aa565b60408401526060830152608082015260a090a3604051639b964ca960e01b8152602060048201529182916024830190610ad2565b634e487b7160e01b88526021600452602488fd5b50600487803e865160e01c610c80565b957f1744b7f0182aa81ae93a512012667f889496ec3e6dc0d315737437ec1f4e74c9939450906080929591610f2e60a0610f1c3660246109cb565b209760405194855260208501906109aa565b60408301526060820152a363b47b2fb160e01b9190565b610f529199505f90610923565b5f975f610c70565b634e487b7160e01b5f52601160045260245ffd5b90506020813d602011610f98575b81610f8960209383610923565b8101031261015e57515f610c02565b3d9150610f7c565b6040513d5f823e3d90fd5b836306dfcc6560e41b5f52608060045260245260445ffd5b50662386f26fc1000092610b98565b630eae3abb60e41b5f5260045ffd5b5f12915081611027575b5015611014576001600160801b0316916044356001600160a01b038116810361015e5750610b7e565b5063b47b2fb160e01b94505f9392505050565b9050155f610feb565b505f811315610b56565b925050507ff339247892f6e54236492fd0aabc6d247443779ab3ef98b0f306f888566431ea929350606091506040519081526035602082015260016040820152a163b47b2fb160e01b905f90565b5060018411610b3a565b507ff339247892f6e54236492fd0aabc6d247443779ab3ef98b0f306f888566431ea929350606091506040519081526035602082015260016040820152a163b47b2fb160e01b905f90565b507ff339247892f6e54236492fd0aabc6d247443779ab3ef98b0f306f888566431ea92935060609150604051908152603560208201525f6040820152a163b47b2fb160e01b905f90565b506034821415610b0b565b5063b47b2fb160e01b93505f92915050565b919060351161116f57600191600160348201355f1a1190601481013515903560601c15171761116f57565b5f9150565b6060906001600160e01b031916630fff01a760e31b81036111e357505060405161119f606082610923565b602e81527f50726564696374696f6e4d616e61676572204572726f723a204d61726b65742060208201526d191bd95cc81b9bdd08195e1a5cdd60921b604082015290565b63ed5d23e160e01b8103611247575050604051611201606082610923565b603081527f50726564696374696f6e4d616e61676572204572726f723a204d61726b65742060208201526f185b1c9958591e481c995cdbdb1d995960821b604082015290565b63609e606560e11b81036112a6575050604051611265606082610923565b602b81527f50726564696374696f6e4d616e61676572204572726f723a204d61726b65742060208201526a1a185cc8195e1c1a5c995960aa1b604082015290565b63eaf0162f60e01b0361130957506040516112c2606082610923565b603181527f50726564696374696f6e4d616e61676572204572726f723a20496e76616c696460208201527020636f6e76696374696f6e207374616b6560781b604082015290565b6113166040519182610923565b602581527f50726564696374696f6e4d616e61676572204572726f723a20437573746f6d2060208201526432b93937b960d91b60408201529056fea2646970667358221220283fdac323930992899e1bf626d3395a95b42c71142876127a56fefc13b2265c64736f6c634300081a0033","linkReferences":{}},"methodIdentifiers":{"afterAddLiquidity(address,(address,address,uint24,int24,address),(int24,int24,int256,bytes32),int256,int256,bytes)":"9f063efc","afterDonate(address,(address,address,uint24,int24,address),uint256,uint256,bytes)":"e1b4af69","afterInitialize(address,(address,address,uint24,int24,address),uint160,int24)":"6fe7e6eb","afterRemoveLiquidity(address,(address,address,uint24,int24,address),(int24,int24,int256,bytes32),int256,int256,bytes)":"6c2bbe7e","afterSwap(address,(address,address,uint24,int24,address),(bool,int256,uint160),int256,bytes)":"b47b2fb1","beforeAddLiquidity(address,(address,address,uint24,int24,address),(int24,int24,int256,bytes32),bytes)":"259982e5","beforeDonate(address,(address,address,uint24,int24,address),uint256,uint256,bytes)":"b6a8b0fa","beforeInitialize(address,(address,address,uint24,int24,address),uint160)":"dc98354e","beforeRemoveLiquidity(address,(address,address,uint24,int24,address),(int24,int24,int256,bytes32),bytes)":"21d0ee70","beforeSwap(address,(address,address,uint24,int24,address),(bool,int256,uint160),bytes)":"575e24b4","getHookPermissions()":"c4e833ce","owner()":"8da5cb5b","poolManager()":"dc4c90d3","predictionManager()":"ee687a98","recoverETH(address,uint256)":"3e0c0629","renounceOwnership()":"715018a6","transferOwnership(address)":"f2fde38b"},"id":115}