{"abi":[{"type":"constructor","inputs":[{"name":"_initialOwner","type":"address","internalType":"address"},{"name":"_name","type":"string","internalType":"string"},{"name":"_symbol","type":"string","internalType":"string"}],"stateMutability":"nonpayable"},{"type":"function","name":"approve","inputs":[{"name":"to","type":"address","internalType":"address"},{"name":"tokenId","type":"uint256","internalType":"uint256"}],"outputs":[],"stateMutability":"nonpayable"},{"type":"function","name":"balanceOf","inputs":[{"name":"owner","type":"address","internalType":"address"}],"outputs":[{"name":"","type":"uint256","internalType":"uint256"}],"stateMutability":"view"},{"type":"function","name":"burn","inputs":[{"name":"_tokenId","type":"uint256","internalType":"uint256"}],"outputs":[],"stateMutability":"nonpayable"},{"type":"function","name":"getApproved","inputs":[{"name":"tokenId","type":"uint256","internalType":"uint256"}],"outputs":[{"name":"","type":"address","internalType":"address"}],"stateMutability":"view"},{"type":"function","name":"getPredictionDetails","inputs":[{"name":"_tokenId","type":"uint256","internalType":"uint256"}],"outputs":[{"name":"marketId","type":"uint256","internalType":"uint256"},{"name":"outcome","type":"uint8","internalType":"enum PredictionTypes.Outcome"},{"name":"convictionStake","type":"uint256","internalType":"uint256"},{"name":"owner_","type":"address","internalType":"address"}],"stateMutability":"view"},{"type":"function","name":"isApprovedForAll","inputs":[{"name":"owner","type":"address","internalType":"address"},{"name":"operator","type":"address","internalType":"address"}],"outputs":[{"name":"","type":"bool","internalType":"bool"}],"stateMutability":"view"},{"type":"function","name":"mint","inputs":[{"name":"_to","type":"address","internalType":"address"},{"name":"_marketId","type":"uint256","internalType":"uint256"},{"name":"_outcome","type":"uint8","internalType":"enum PredictionTypes.Outcome"},{"name":"_convictionStake","type":"uint256","internalType":"uint256"}],"outputs":[{"name":"","type":"uint256","internalType":"uint256"}],"stateMutability":"nonpayable"},{"type":"function","name":"name","inputs":[],"outputs":[{"name":"","type":"string","internalType":"string"}],"stateMutability":"view"},{"type":"function","name":"owner","inputs":[],"outputs":[{"name":"","type":"address","internalType":"address"}],"stateMutability":"view"},{"type":"function","name":"ownerOf","inputs":[{"name":"tokenId","type":"uint256","internalType":"uint256"}],"outputs":[{"name":"","type":"address","internalType":"address"}],"stateMutability":"view"},{"type":"function","name":"predictionManagerAddress","inputs":[],"outputs":[{"name":"","type":"address","internalType":"address"}],"stateMutability":"view"},{"type":"function","name":"renounceOwnership","inputs":[],"outputs":[],"stateMutability":"nonpayable"},{"type":"function","name":"safeTransferFrom","inputs":[{"name":"from","type":"address","internalType":"address"},{"name":"to","type":"address","internalType":"address"},{"name":"tokenId","type":"uint256","internalType":"uint256"}],"outputs":[],"stateMutability":"nonpayable"},{"type":"function","name":"safeTransferFrom","inputs":[{"name":"from","type":"address","internalType":"address"},{"name":"to","type":"address","internalType":"address"},{"name":"tokenId","type":"uint256","internalType":"uint256"},{"name":"data","type":"bytes","internalType":"bytes"}],"outputs":[],"stateMutability":"nonpayable"},{"type":"function","name":"setApprovalForAll","inputs":[{"name":"operator","type":"address","internalType":"address"},{"name":"approved","type":"bool","internalType":"bool"}],"outputs":[],"stateMutability":"nonpayable"},{"type":"function","name":"setPredictionManagerAddress","inputs":[{"name":"_newPredictionManagerAddress","type":"address","internalType":"address"}],"outputs":[],"stateMutability":"nonpayable"},{"type":"function","name":"supportsInterface","inputs":[{"name":"interfaceId","type":"bytes4","internalType":"bytes4"}],"outputs":[{"name":"","type":"bool","internalType":"bool"}],"stateMutability":"view"},{"type":"function","name":"symbol","inputs":[],"outputs":[{"name":"","type":"string","internalType":"string"}],"stateMutability":"view"},{"type":"function","name":"tokenPredictionMetadata","inputs":[{"name":"","type":"uint256","internalType":"uint256"}],"outputs":[{"name":"marketId","type":"uint256","internalType":"uint256"},{"name":"outcome","type":"uint8","internalType":"enum PredictionTypes.Outcome"},{"name":"convictionStake","type":"uint256","internalType":"uint256"},{"name":"mintedAt","type":"uint256","internalType":"uint256"}],"stateMutability":"view"},{"type":"function","name":"tokenURI","inputs":[{"name":"_tokenId","type":"uint256","internalType":"uint256"}],"outputs":[{"name":"","type":"string","internalType":"string"}],"stateMutability":"view"},{"type":"function","name":"transferFrom","inputs":[{"name":"from","type":"address","internalType":"address"},{"name":"to","type":"address","internalType":"address"},{"name":"tokenId","type":"uint256","internalType":"uint256"}],"outputs":[],"stateMutability":"nonpayable"},{"type":"function","name":"transferOwnership","inputs":[{"name":"newOwner","type":"address","internalType":"address"}],"outputs":[],"stateMutability":"nonpayable"},{"type":"event","name":"Approval","inputs":[{"name":"owner","type":"address","indexed":true,"internalType":"address"},{"name":"approved","type":"address","indexed":true,"internalType":"address"},{"name":"tokenId","type":"uint256","indexed":true,"internalType":"uint256"}],"anonymous":false},{"type":"event","name":"ApprovalForAll","inputs":[{"name":"owner","type":"address","indexed":true,"internalType":"address"},{"name":"operator","type":"address","indexed":true,"internalType":"address"},{"name":"approved","type":"bool","indexed":false,"internalType":"bool"}],"anonymous":false},{"type":"event","name":"OwnershipTransferred","inputs":[{"name":"previousOwner","type":"address","indexed":true,"internalType":"address"},{"name":"newOwner","type":"address","indexed":true,"internalType":"address"}],"anonymous":false},{"type":"event","name":"PositionNFTBurned","inputs":[{"name":"tokenId","type":"uint256","indexed":true,"internalType":"uint256"}],"anonymous":false},{"type":"event","name":"PositionNFTMinted","inputs":[{"name":"owner","type":"address","indexed":true,"internalType":"address"},{"name":"tokenId","type":"uint256","indexed":true,"internalType":"uint256"},{"name":"marketId","type":"uint256","indexed":false,"internalType":"uint256"},{"name":"outcome","type":"uint8","indexed":false,"internalType":"enum PredictionTypes.Outcome"},{"name":"convictionStake","type":"uint256","indexed":false,"internalType":"uint256"}],"anonymous":false},{"type":"event","name":"PredictionManagerAddressSet","inputs":[{"name":"oldAddress","type":"address","indexed":true,"internalType":"address"},{"name":"newAddress","type":"address","indexed":true,"internalType":"address"}],"anonymous":false},{"type":"event","name":"Transfer","inputs":[{"name":"from","type":"address","indexed":true,"internalType":"address"},{"name":"to","type":"address","indexed":true,"internalType":"address"},{"name":"tokenId","type":"uint256","indexed":true,"internalType":"uint256"}],"anonymous":false},{"type":"error","name":"NonExistentToken","inputs":[{"name":"tokenId","type":"uint256","internalType":"uint256"}]},{"type":"error","name":"NotPredictionManager","inputs":[]},{"type":"error","name":"ZeroAddress","inputs":[]}],"bytecode":{"object":"0x6080604052346103fe5761224b8038038061001981610402565b9283398101906060818303126103fe5780516001600160a01b038116918282036103fe5760208101516001600160401b0381116103fe578461005c918301610427565b60408201519094906001600160401b0381116103fe5761007c9201610427565b83519092906001600160401b038111610312575f54600181811c911680156103f4575b60208210146102f457601f8111610392575b50602094601f8211600114610331579481929394955f92610326575b50508160011b915f199060031b1c1916175f555b82516001600160401b03811161031257600154600181811c91168015610308575b60208210146102f457601f8111610291575b506020601f821160011461022e57819293945f92610223575b50508160011b915f199060031b1c1916176001555b61014b33610478565b338103610162575b604051611d8a90816104c18239f35b600654336001600160a01b03909116036101df571561018b5761018490610478565b5f80610153565b60405162461bcd60e51b815260206004820152602660248201527f4f776e61626c653a206e6577206f776e657220697320746865207a65726f206160448201526564647265737360d01b6064820152608490fd5b606460405162461bcd60e51b815260206004820152602060248201527f4f776e61626c653a2063616c6c6572206973206e6f7420746865206f776e65726044820152fd5b015190505f8061012d565b601f1982169060015f52805f20915f5b81811061027957509583600195969710610261575b505050811b01600155610142565b01515f1960f88460031b161c191690555f8080610253565b9192602060018192868b01518155019401920161023e565b60015f527fb10e2d527612073b26eecdfd717e6a320cf44b4afac2b0732d9fcbe2b7fa0cf6601f830160051c810191602084106102ea575b601f0160051c01905b8181106102df5750610114565b5f81556001016102d2565b90915081906102c9565b634e487b7160e01b5f52602260045260245ffd5b90607f1690610102565b634e487b7160e01b5f52604160045260245ffd5b015190505f806100cd565b601f198216955f8052805f20915f5b88811061037a57508360019596979810610362575b505050811b015f556100e1565b01515f1960f88460031b161c191690555f8080610355565b91926020600181928685015181550194019201610340565b5f80527f290decd9548b62a8d60345a988386fc84ba6bc95484008f6362f93160ef3e563601f830160051c810191602084106103ea575b601f0160051c01905b8181106103df57506100b1565b5f81556001016103d2565b90915081906103c9565b90607f169061009f565b5f80fd5b6040519190601f01601f191682016001600160401b0381118382101761031257604052565b81601f820112156103fe578051906001600160401b03821161031257610456601f8301601f1916602001610402565b92828452602083830101116103fe57815f9260208093018386015e8301015290565b600680546001600160a01b039283166001600160a01b0319821681179092559091167f8be0079c531659141344cd1fd0a4f28419497f9722a3daafe3b4186f6b6457e05f80a356fe6080806040526004361015610012575f80fd5b5f3560e01c90816301ffc9a71461127c5750806306fdde03146111c4578063081812fc146111a6578063095ea7b31461102057806323b872dd14610ff757806342842e0e14610fce57806342966c6814610ed55780636352211e14610ea55780637019230214610e2357806370a0823114610d8e578063715018a614610d33578063854ec60814610ce85780638da5cb5b14610cc05780638f88833814610c3c57806395d89b4114610b34578063a22cb46514610a66578063a7a6be961461084d578063b88d4fde146107c3578063c87b56dd14610258578063e985e9c514610201578063ef9e745f146101d95763f2fde38b1461010e575f80fd5b346101d55760203660031901126101d55761012761130b565b61012f6117ec565b6001600160a01b0316801561018157600680546001600160a01b0319811683179091556001600160a01b03167f8be0079c531659141344cd1fd0a4f28419497f9722a3daafe3b4186f6b6457e05f80a3005b60405162461bcd60e51b815260206004820152602660248201527f4f776e61626c653a206e6577206f776e657220697320746865207a65726f206160448201526564647265737360d01b6064820152608490fd5b5f80fd5b346101d5575f3660031901126101d5576007546040516001600160a01b039091168152602090f35b346101d55760403660031901126101d55761021a61130b565b610222611321565b9060018060a01b03165f52600560205260405f209060018060a01b03165f52602052602060ff60405f2054166040519015158152f35b346101d55760203660031901126101d5576004355f818152600260205260409020546001600160a01b0316156107b157805f52600860205260405f20906040516102a18161137e565b8254815260ff6001840154166102bb6020830191826114fb565b600360028501549460408401958652015490606083019182528051600281101561079d5761072e57506103106040516102f56040826113ae565b6007815266084cac2e4d2e6d60cb1b6020820152935b611915565b92604051918260208101957f226e616d65223a2022537761704361737420506f736974696f6e204e46542023875280516020819201604084015e8101604081015f905203604001601f198101845261036890846113ae565b60405180956020820194518091865e8101601160f91b602082015203602001601e198101865260010161039b90866113ae565b604051936103aa60a0866113ae565b60728552602085017f226465736372697074696f6e223a2022412053776170436173742070726564699052604085017f6374696f6e20706f736974696f6e204e465420726570726573656e74696e67209052606085017f612075736572277320636f6e76696374696f6e206f6e20612073706563696669905271319036b0b935b2ba1037baba31b7b6b2971160711b6080860152519560409687519061045089836113ae565b600982526813585c9ad95d08125160ba1b602083015261046f91611a8b565b92875161047c89826113ae565b6011815270507265646963746564204f7574636f6d6560781b60208201526104a2611a5d565b906104ac91611586565b908851828193516020819201602084015e81016c111610113b30b63ab2911d101160991b60208201520360200160121981018352600d016104ed90836113ae565b6104f691611586565b908751828193516020819201602084015e810161227d60f01b602082015203602001601d198101835260020161052c90836113ae565b5187519061053a89836113ae565b6016825275436f6e76696374696f6e205374616b6520285765692960501b602083015261056691611a8b565b915187519061057589836113ae565b601382527204d696e7465642041742054696d657374616d7606c1b602083015261059e91611a8b565b926105a89061154f565b906105b291611586565b6105bb9061154f565b906105c591611586565b6105ce9061154f565b906105d891611586565b9284518060208101956e2261747472696275746573223a205b60881b875280516020819201602f84015e8101602f81015f905203602f01601f198101825261062090826113ae565b8551948591518091602084015e810160208101605d60f81b905203602001601e198101855260010161065290856113ae565b845191829160208301607b60f81b9052518091602184015e8101602181015f905203602101601f198101825261068890826113ae565b6106919061154f565b9061069b91611586565b6106a49061154f565b906106ae91611586565b6106b7906115c4565b6106c090611aef565b9080518092602082017f646174613a6170706c69636174696f6e2f6a736f6e3b6261736536342c000000905280516020819201603d84015e8101603d81015f905203603d01601f198101835261071690836113ae565b518091602082526020820161072a916112e7565b0390f35b51600281101561079d5760010361076a576103106040516107506040826113ae565b6007815266084ead8d8d2e6d60cb1b602082015293611915565b61031060405161077b6040826113ae565b600f81526e2ab73232b334b732b217a7ba3432b960891b602082015293611915565b634e487b7160e01b5f52602160045260245ffd5b6338077a2b60e01b5f5260045260245ffd5b346101d55760803660031901126101d5576107dc61130b565b6107e4611321565b6064359167ffffffffffffffff83116101d557366023840112156101d557826004013591610811836113d0565b9261081f60405194856113ae565b80845236602482870101116101d5576020815f92602461084b9801838801378501015260443591611507565b005b346101d55760803660031901126101d55761086661130b565b6024359060443560028110156101d55760075460643593906001600160a01b03163303610a5757600954925f198414610a4357600184016009556001600160a01b03169081156109ff575f848152600260205260409020546108d4906001600160a01b031615155b15611844565b5f848152600260205260409020546108f6906001600160a01b031615156108ce565b815f52600360205260405f2060018154019055835f52600260205260405f20826001600160601b0360a01b8254161790556040519484835f7fddf252ad1be2c89b69c2b068fc378daa952ba7f163c4a11628f55a4df523b3ef8180a461095b8661137e565b818652602086019161096d85846114fb565b60408701918083526060880193428552875f52600860205260405f209851895560018901905196600288101561079d5760209960037e18ea8bf2dcc7c597d58637b6ee0862fe5a2918dd89c2294da47277d40dffef976060976109f1958d9c60ff801983541691161790555160028401555191015560405193845289840190611371565b6040820152a3604051908152f35b606460405162461bcd60e51b815260206004820152602060248201527f4552433732313a206d696e7420746f20746865207a65726f20616464726573736044820152fd5b634e487b7160e01b5f52601160045260245ffd5b63d5eceddd60e01b5f5260045ffd5b346101d55760403660031901126101d557610a7f61130b565b602435908115158092036101d5576001600160a01b031690338214610aef57335f52600560205260405f20825f5260205260405f2060ff1981541660ff83161790556040519081527f17307eab39ab6107e8899845ad3d59bd9653f200f220920489ca2b5937696c3160203392a3005b60405162461bcd60e51b815260206004820152601960248201527f4552433732313a20617070726f766520746f2063616c6c6572000000000000006044820152606490fd5b346101d5575f3660031901126101d5576040515f6001548060011c90600181168015610c32575b602083108114610c1e57828552908115610bfa5750600114610b9c575b61072a83610b88818503826113ae565b6040519182916020835260208301906112e7565b91905060015f527fb10e2d527612073b26eecdfd717e6a320cf44b4afac2b0732d9fcbe2b7fa0cf6915f905b808210610be057509091508101602001610b88610b78565b919260018160209254838588010152019101909291610bc8565b60ff191660208086019190915291151560051b84019091019150610b889050610b78565b634e487b7160e01b5f52602260045260245ffd5b91607f1691610b5b565b346101d55760203660031901126101d5576004355f818152600260205260409020546001600160a01b0316156107b157806080915f52600860205260405f20805491600260ff600184015416920154905f526002602052610cb460018060a01b0360405f205416926040519485526020850190611371565b60408301526060820152f35b346101d5575f3660031901126101d5576006546040516001600160a01b039091168152602090f35b346101d55760203660031901126101d5576004355f526008602052608060405f2080549060ff60018201541690610cb460036002830154920154926040519485526020850190611371565b346101d5575f3660031901126101d557610d4b6117ec565b600680546001600160a01b031981169091555f906001600160a01b03167f8be0079c531659141344cd1fd0a4f28419497f9722a3daafe3b4186f6b6457e08280a3005b346101d55760203660031901126101d5576001600160a01b03610daf61130b565b168015610dcc575f526003602052602060405f2054604051908152f35b60405162461bcd60e51b815260206004820152602960248201527f4552433732313a2061646472657373207a65726f206973206e6f7420612076616044820152683634b21037bbb732b960b91b6064820152608490fd5b346101d55760203660031901126101d557610e3c61130b565b610e446117ec565b6001600160a01b03168015610e9657600780546001600160a01b0319811683179091556001600160a01b03167f67a10b89439c7dbac12e9df3769629552e5badab0be5390a49fd050be14d10e05f80a3005b63d92e233d60e01b5f5260045ffd5b346101d55760203660031901126101d5576020610ec36004356114d6565b6040516001600160a01b039091168152f35b346101d55760203660031901126101d557600754600435906001600160a01b03163303610a5757610f05816114d6565b50805f610f11826114d6565b8282526004602052604082206001600160601b0360a01b815416905560018060a01b0316808252600360205260408220821981540190558282526002602052604082206001600160601b0360a01b81541690557fddf252ad1be2c89b69c2b068fc378daa952ba7f163c4a11628f55a4df523b3ef8280a4805f5260086020525f60036040822082815582600182015582600282015501557ff5f05b2b75d7eefbad047c6a5f5965c53a8a469bc4181e434d4fd60019ea1f175f80a2005b346101d55761084b610fdf36611337565b9060405192610fef6020856113ae565b5f8452611507565b346101d55761084b61100836611337565b9161101b61101684336115f9565b611428565b6116c8565b346101d55760403660031901126101d55761103961130b565b602435906001600160a01b0361104e836114d6565b6001600160a01b03909216911681811461115757803314908115611133575b50156110c8575f82815260046020526040902080546001600160a01b031916821790556001600160a01b036110a1836114d6565b167f8c5be1e5ebec7d5bd14f71427d1e84f3dd0314c0f7b2291e5b200ac8c7c3b9255f80a4005b60405162461bcd60e51b815260206004820152603d60248201527f4552433732313a20617070726f76652063616c6c6572206973206e6f7420746f60448201527f6b656e206f776e6572206f7220617070726f76656420666f7220616c6c0000006064820152608490fd5b5f90815260056020908152604080832033845290915290205460ff1690508361106d565b60405162461bcd60e51b815260206004820152602160248201527f4552433732313a20617070726f76616c20746f2063757272656e74206f776e656044820152603960f91b6064820152608490fd5b346101d55760203660031901126101d5576020610ec36004356113ec565b346101d5575f3660031901126101d5576040515f80548060011c90600181168015611272575b602083108114610c1e57828552908115610bfa57506001146112165761072a83610b88818503826113ae565b5f8080527f290decd9548b62a8d60345a988386fc84ba6bc95484008f6362f93160ef3e563939250905b80821061125857509091508101602001610b88610b78565b919260018160209254838588010152019101909291611240565b91607f16916111ea565b346101d55760203660031901126101d5576004359063ffffffff60e01b82168092036101d5576020916380ac58cd60e01b81149081156112d6575b81156112c5575b5015158152f35b6301ffc9a760e01b149050836112be565b635b5e139f60e01b811491506112b7565b805180835260209291819084018484015e5f828201840152601f01601f1916010190565b600435906001600160a01b03821682036101d557565b602435906001600160a01b03821682036101d557565b60609060031901126101d5576004356001600160a01b03811681036101d557906024356001600160a01b03811681036101d5579060443590565b90600282101561079d5752565b6080810190811067ffffffffffffffff82111761139a57604052565b634e487b7160e01b5f52604160045260245ffd5b90601f8019910116810190811067ffffffffffffffff82111761139a57604052565b67ffffffffffffffff811161139a57601f01601f191660200190565b5f8181526002602052604090205461140e906001600160a01b0316151561148a565b5f908152600460205260409020546001600160a01b031690565b1561142f57565b60405162461bcd60e51b815260206004820152602d60248201527f4552433732313a2063616c6c6572206973206e6f7420746f6b656e206f776e6560448201526c1c881bdc88185c1c1c9bdd9959609a1b6064820152608490fd5b1561149157565b60405162461bcd60e51b815260206004820152601860248201527f4552433732313a20696e76616c696420746f6b656e20494400000000000000006044820152606490fd5b5f908152600260205260409020546001600160a01b03166114f881151561148a565b90565b600282101561079d5752565b9061152b93929161151b61101684336115f9565b6115268383836116c8565b611c32565b1561153257565b60405162461bcd60e51b81528061154b60048201611890565b0390fd5b906115846001602080946040519581879251918291018484015e8101600b60fa1b838201520301601e198101855201836113ae565b565b611584906020808095946040519684889551918291018487015e8401908282015f8152815193849201905e01015f815203601f1981018452836113ae565b906115846001602080946040519581879251918291018484015e8101607d60f81b838201520301601e198101855201836113ae565b906001600160a01b0361160b826114d6565b6001600160a01b039093169216828114929190831561164b575b50821561163157505090565b9091506001600160a01b0390611646906113ec565b161490565b9092505f52600560205260405f20815f5260205260ff60405f205416915f611625565b1561167557565b60405162461bcd60e51b815260206004820152602560248201527f4552433732313a207472616e736665722066726f6d20696e636f72726563742060448201526437bbb732b960d91b6064820152608490fd5b906116e96116d5846114d6565b6001600160a01b039384169316831461166e565b6001600160a01b031690811561179b57611715816001600160a01b0361170e866114d6565b161461166e565b825f52600460205260405f206001600160601b0360a01b8154169055805f52600360205260405f205f198154019055815f52600360205260405f2060018154019055825f52600260205260405f20826001600160601b0360a01b8254161790557fddf252ad1be2c89b69c2b068fc378daa952ba7f163c4a11628f55a4df523b3ef5f80a4565b60405162461bcd60e51b8152602060048201526024808201527f4552433732313a207472616e7366657220746f20746865207a65726f206164646044820152637265737360e01b6064820152608490fd5b6006546001600160a01b0316330361180057565b606460405162461bcd60e51b815260206004820152602060248201527f4f776e61626c653a2063616c6c6572206973206e6f7420746865206f776e65726044820152fd5b1561184b57565b60405162461bcd60e51b815260206004820152601c60248201527f4552433732313a20746f6b656e20616c7265616479206d696e746564000000006044820152606490fd5b60809060208152603260208201527f4552433732313a207472616e7366657220746f206e6f6e20455243373231526560408201527131b2b4bb32b91034b6b83632b6b2b73a32b960711b60608201520190565b906118ed826113d0565b6118fa60405191826113ae565b828152809261190b601f19916113d0565b0190602036910137565b805f9172184f03e93ff9f4daa797ed6e38ed64bf6a1f0160401b821015611a3a575b806d04ee2d6d415b85acef8100000000600a921015611a1f575b662386f26fc10000811015611a0b575b6305f5e1008110156119fa575b6127108110156119eb575b60648110156119dd575b10156119d2575b600a602161199a600185016118e3565b938401015b5f1901916f181899199a1a9b1b9c1cb0b131b232b360811b8282061a83530480156119cd57600a909161199f565b505090565b60019091019061198a565b606460029104930192611983565b61271060049104930192611979565b6305f5e1006008910493019261196e565b662386f26fc1000060109104930192611961565b6d04ee2d6d415b85acef810000000060209104930192611951565b506040915072184f03e93ff9f4daa797ed6e38ed64bf6a1f0160401b8104611937565b60405190611a6c6040836113ae565b601082526f3d913a3930b4ba2fba3cb832911d101160811b6020830152565b6020611ae46114f89361030b600c84611aae611aea97611aa9611a5d565b611586565b6040519681889251918291018484015e81016b0111610113b30b63ab2911d160a51b8382015203016013198101865201846113ae565b90611586565b6115c4565b805115611c1d57604051611b046060826113ae565b604081527f4142434445464748494a4b4c4d4e4f505152535455565758595a61626364656660208201527f6768696a6b6c6d6e6f707172737475767778797a303132333435363738392b2f6040820152815160028101809111610a4357600390046001600160fe1b0381168103610a4357611b819060021b6118e3565b916020830191819082518301915b828110611bcd57505050600390510680600114611bbb57600214611bb1575090565b603d905f19015390565b50603d90815f19820153600119015390565b60036004919592939501916001603f845182828260121c16880101518453828282600c1c16880101518385015382828260061c168801015160028501531685010151600382015301939190611b8f565b50604051611c2c6020826113ae565b5f815290565b919290803b15611d4b57611c81935f60209460405196879586948593630a85bd0160e11b855233600486015260018060a01b0316602485015260448401526080606484015260848301906112e7565b03926001600160a01b03165af15f9181611d06575b50611cf0573d15611ce9573d611cab816113d0565b90611cb960405192836113ae565b81523d5f602083013e5b80519081611ce45760405162461bcd60e51b81528061154b60048201611890565b602001fd5b6060611cc3565b6001600160e01b031916630a85bd0160e11b1490565b9091506020813d602011611d43575b81611d22602093836113ae565b810103126101d557516001600160e01b0319811681036101d557905f611c96565b3d9150611d15565b5050505060019056fea26469706673582212202495ee3661d0b74d9d9b42e7b463e8cf72fea51445c30a91a35561d4a202af1e64736f6c634300081a0033","linkReferences":{}},"methodIdentifiers":{"approve(address,uint256)":"095ea7b3","balanceOf(address)":"70a08231","burn(uint256)":"42966c68","getApproved(uint256)":"081812fc","getPredictionDetails(uint256)":"8f888338","isApprovedForAll(address,address)":"e985e9c5","mint(address,uint256,uint8,uint256)":"a7a6be96","name()":"06fdde03","owner()":"8da5cb5b","ownerOf(uint256)":"6352211e","predictionManagerAddress()":"ef9e745f","renounceOwnership()":"715018a6","safeTransferFrom(address,address,uint256)":"42842e0e","safeTransferFrom(address,address,uint256,bytes)":"b88d4fde","setApprovalForAll(address,bool)":"a22cb465","setPredictionManagerAddress(address)":"70192302","supportsInterface(bytes4)":"01ffc9a7","symbol()":"95d89b41","tokenPredictionMetadata(uint256)":"854ec608","tokenURI(uint256)":"c87b56dd","transferFrom(address,address,uint256)":"23b872dd","transferOwnership(address)":"f2fde38b"},"id":111}