{"abi":[{"type":"constructor","inputs":[{"name":"initialOwner","type":"address","internalType":"address"},{"name":"_predictionManagerAddress","type":"address","internalType":"address"}],"stateMutability":"nonpayable"},{"type":"function","name":"claimReward","inputs":[{"name":"tokenId","type":"uint256","internalType":"uint256"}],"outputs":[],"stateMutability":"nonpayable"},{"type":"function","name":"owner","inputs":[],"outputs":[{"name":"","type":"address","internalType":"address"}],"stateMutability":"view"},{"type":"function","name":"pause","inputs":[],"outputs":[],"stateMutability":"nonpayable"},{"type":"function","name":"paused","inputs":[],"outputs":[{"name":"","type":"bool","internalType":"bool"}],"stateMutability":"view"},{"type":"function","name":"predictionManager","inputs":[],"outputs":[{"name":"","type":"address","internalType":"contract IPredictionManagerForDistributor"}],"stateMutability":"view"},{"type":"function","name":"renounceOwnership","inputs":[],"outputs":[],"stateMutability":"nonpayable"},{"type":"function","name":"setPredictionManagerAddress","inputs":[{"name":"_newAddress","type":"address","internalType":"address"}],"outputs":[],"stateMutability":"nonpayable"},{"type":"function","name":"transferOwnership","inputs":[{"name":"newOwner","type":"address","internalType":"address"}],"outputs":[],"stateMutability":"nonpayable"},{"type":"function","name":"unpause","inputs":[],"outputs":[],"stateMutability":"nonpayable"},{"type":"event","name":"OwnershipTransferred","inputs":[{"name":"previousOwner","type":"address","indexed":true,"internalType":"address"},{"name":"newOwner","type":"address","indexed":true,"internalType":"address"}],"anonymous":false},{"type":"event","name":"Paused","inputs":[{"name":"account","type":"address","indexed":false,"internalType":"address"}],"anonymous":false},{"type":"event","name":"PredictionManagerAddressSet","inputs":[{"name":"oldAddress","type":"address","indexed":true,"internalType":"address"},{"name":"newAddress","type":"address","indexed":true,"internalType":"address"}],"anonymous":false},{"type":"event","name":"RewardClaimed","inputs":[{"name":"claimer","type":"address","indexed":true,"internalType":"address"},{"name":"tokenId","type":"uint256","indexed":true,"internalType":"uint256"}],"anonymous":false},{"type":"event","name":"Unpaused","inputs":[{"name":"account","type":"address","indexed":false,"internalType":"address"}],"anonymous":false},{"type":"error","name":"ClaimFailedInPool","inputs":[{"name":"tokenId","type":"uint256","internalType":"uint256"}]},{"type":"error","name":"EnforcedPause","inputs":[]},{"type":"error","name":"ExpectedPause","inputs":[]},{"type":"error","name":"ImmutablePredictionManager","inputs":[]},{"type":"error","name":"InvalidTokenId","inputs":[]},{"type":"error","name":"OwnableInvalidOwner","inputs":[{"name":"owner","type":"address","internalType":"address"}]},{"type":"error","name":"OwnableUnauthorizedAccount","inputs":[{"name":"account","type":"address","internalType":"address"}]},{"type":"error","name":"ReentrancyGuardReentrantCall","inputs":[]},{"type":"error","name":"ZeroAddress","inputs":[]}],"bytecode":{"object":"0x60a03461012c57601f61076238819003918201601f19168301916001600160401b0383118484101761013057808492604094855283398101031261012c57610052602061004b83610144565b9201610144565b6001600160a01b03909116908115610119575f80546001600160a01b031981168417825560405193916001600160a01b03909116907f8be0079c531659141344cd1fd0a4f28419497f9722a3daafe3b4186f6b6457e09080a3600180556001600160a01b0316801561010a57806080525f7f67a10b89439c7dbac12e9df3769629552e5badab0be5390a49fd050be14d10e08180a3610609908161015982396080518181816101230152818161018601526103f30152f35b63d92e233d60e01b5f5260045ffd5b631e4fbdf760e01b5f525f60045260245ffd5b5f80fd5b634e487b7160e01b5f52604160045260245ffd5b51906001600160a01b038216820361012c5756fe60806040526004361015610011575f80fd5b5f803560e01c80633f4ba83a1461047f5780635c975abb1461045d57806370192302146103bd578063715018a6146103665780638456cb591461030d5780638da5cb5b146102e6578063ae169a5014610152578063ee687a981461010d5763f2fde38b1461007d575f80fd5b3461010a57602036600319011261010a576004356001600160a01b03811690819003610106576100ab610592565b80156100f25781546001600160a01b03198116821783556001600160a01b03167f8be0079c531659141344cd1fd0a4f28419497f9722a3daafe3b4186f6b6457e08380a380f35b631e4fbdf760e01b82526004829052602482fd5b5080fd5b80fd5b503461010a578060031936011261010a576040517f00000000000000000000000000000000000000000000000000000000000000006001600160a01b03168152602090f35b50346102c45760203660031901126102c4576004356002600154146102d757600260015561017e6105b8565b80156102c8577f00000000000000000000000000000000000000000000000000000000000000006001600160a01b0316803b156102c4575f8091602460405180948193630ae169a560e41b83528760048401525af190816102af575b5061028357906024918160033d11610273575b6308c379a014610257575b3d15610252573d67ffffffffffffffff811161023f5760405190610226601f8201601f1916602001836104e5565b81528260203d92013e5b6309d7605d60e11b8252600452fd5b5050634e487b7160e01b81526041600452fd5b610230565b61025f61051b565b156101f8576309d7605d60e11b8252600452fd5b50600482803e815160e01c6101ed565b337f106f923f993c2149d49b4255ff723acafa1f2d94393f561d3eda32ae348f72418380a36001805580f35b6102bc9193505f906104e5565b5f915f6101da565b5f80fd5b6307ed98ed60e31b5f5260045ffd5b633ee5aeb560e01b5f5260045ffd5b346102c4575f3660031901126102c4575f546040516001600160a01b039091168152602090f35b346102c4575f3660031901126102c457610325610592565b61032d6105b8565b600160ff1960025416176002557f62e78cea01bee320cd4e420270b5ea74000d11b0c9f74754ebdbfc544b05a2586020604051338152a1005b346102c4575f3660031901126102c45761037e610592565b5f80546001600160a01b0319811682556001600160a01b03167f8be0079c531659141344cd1fd0a4f28419497f9722a3daafe3b4186f6b6457e08280a3005b346102c45760203660031901126102c4576004356001600160a01b038116908190036102c4576103eb610592565b801561044e577f00000000000000000000000000000000000000000000000000000000000000006001600160a01b03167f67a10b89439c7dbac12e9df3769629552e5badab0be5390a49fd050be14d10e05f80a36317edc9d760e21b5f5260045ffd5b63d92e233d60e01b5f5260045ffd5b346102c4575f3660031901126102c457602060ff600254166040519015158152f35b346102c4575f3660031901126102c457610497610592565b60025460ff8116156104d65760ff19166002557f5db9ee0a495bf2e6ff9c91a7834c1ba4fdd244a5e8aa4e537bd38aeae4b073aa6020604051338152a1005b638dfc202b60e01b5f5260045ffd5b90601f8019910116810190811067ffffffffffffffff82111761050757604052565b634e487b7160e01b5f52604160045260245ffd5b5f60443d10610581576040513d600319016004823e8051913d602484011167ffffffffffffffff84111761058c578282019283519167ffffffffffffffff8311610584573d840160031901858401602001116105845750610581929101602001906104e5565b90565b949350505050565b92915050565b5f546001600160a01b031633036105a557565b63118cdaa760e01b5f523360045260245ffd5b60ff600254166105c457565b63d93c066560e01b5f5260045ffdfea2646970667358221220a37df8386a41b50e8394e13d25d092b0e997aa4db294a570313916992f51167a64736f6c634300081a0033","linkReferences":{}},"methodIdentifiers":{"claimReward(uint256)":"ae169a50","owner()":"8da5cb5b","pause()":"8456cb59","paused()":"5c975abb","predictionManager()":"ee687a98","renounceOwnership()":"715018a6","setPredictionManagerAddress(address)":"70192302","transferOwnership(address)":"f2fde38b","unpause()":"3f4ba83a"},"id":137}