{"abi":[{"type":"constructor","inputs":[{"name":"_initialOwner","type":"address","internalType":"address"},{"name":"_swapCastNFTAddress","type":"address","internalType":"address"},{"name":"_treasuryAddress","type":"address","internalType":"address"},{"name":"_initialFeeBasisPoints","type":"uint256","internalType":"uint256"},{"name":"_initialMinStakeAmount","type":"uint256","internalType":"uint256"},{"name":"_maxPriceStalenessSeconds","type":"uint256","internalType":"uint256"},{"name":"_oracleResolverAddress","type":"address","internalType":"address"},{"name":"_rewardDistributorAddress","type":"address","internalType":"address"}],"stateMutability":"nonpayable"},{"type":"function","name":"INK_CHAIN_ID","inputs":[],"outputs":[{"name":"","type":"uint256","internalType":"uint256"}],"stateMutability":"view"},{"type":"function","name":"MARKET_EXPIRED_SIGNATURE","inputs":[],"outputs":[{"name":"","type":"bytes32","internalType":"bytes32"}],"stateMutability":"view"},{"type":"function","name":"MAX_BASIS_POINTS","inputs":[],"outputs":[{"name":"","type":"uint256","internalType":"uint256"}],"stateMutability":"view"},{"type":"function","name":"automationProvider","inputs":[],"outputs":[{"name":"","type":"uint8","internalType":"enum IPredictionManager.AutomationProvider"}],"stateMutability":"view"},{"type":"function","name":"checkLog","inputs":[{"name":"_log","type":"tuple","internalType":"struct Log","components":[{"name":"index","type":"uint256","internalType":"uint256"},{"name":"timestamp","type":"uint256","internalType":"uint256"},{"name":"txHash","type":"bytes32","internalType":"bytes32"},{"name":"blockNumber","type":"uint256","internalType":"uint256"},{"name":"blockHash","type":"bytes32","internalType":"bytes32"},{"name":"source","type":"address","internalType":"address"},{"name":"topics","type":"bytes32[]","internalType":"bytes32[]"},{"name":"data","type":"bytes","internalType":"bytes"}]},{"name":"","type":"bytes","internalType":"bytes"}],"outputs":[{"name":"upkeepNeeded","type":"bool","internalType":"bool"},{"name":"performData","type":"bytes","internalType":"bytes"}],"stateMutability":"view"},{"type":"function","name":"checkUpkeep","inputs":[{"name":"","type":"bytes","internalType":"bytes"}],"outputs":[{"name":"upkeepNeeded","type":"bool","internalType":"bool"},{"name":"performData","type":"bytes","internalType":"bytes"}],"stateMutability":"view"},{"type":"function","name":"checker","inputs":[],"outputs":[{"name":"canExec","type":"bool","internalType":"bool"},{"name":"execPayload","type":"bytes","internalType":"bytes"}],"stateMutability":"view"},{"type":"function","name":"claimReward","inputs":[{"name":"_tokenId","type":"uint256","internalType":"uint256"}],"outputs":[],"stateMutability":"nonpayable"},{"type":"function","name":"createMarket","inputs":[{"name":"_name","type":"string","internalType":"string"},{"name":"_assetSymbol","type":"string","internalType":"string"},{"name":"_expirationTime","type":"uint256","internalType":"uint256"},{"name":"_priceAggregator","type":"address","internalType":"address"},{"name":"_priceThreshold","type":"uint256","internalType":"uint256"},{"name":"_poolKey","type":"tuple","internalType":"struct PoolKey","components":[{"name":"currency0","type":"address","internalType":"Currency"},{"name":"currency1","type":"address","internalType":"Currency"},{"name":"fee","type":"uint24","internalType":"uint24"},{"name":"tickSpacing","type":"int24","internalType":"int24"},{"name":"hooks","type":"address","internalType":"contract IHooks"}]}],"outputs":[{"name":"marketId","type":"uint256","internalType":"uint256"}],"stateMutability":"nonpayable"},{"type":"function","name":"defaultMarketMinStake","inputs":[],"outputs":[{"name":"","type":"uint256","internalType":"uint256"}],"stateMutability":"view"},{"type":"function","name":"getActiveMarkets","inputs":[],"outputs":[{"name":"","type":"uint256[]","internalType":"uint256[]"}],"stateMutability":"view"},{"type":"function","name":"getExpiredMarkets","inputs":[],"outputs":[{"name":"","type":"uint256[]","internalType":"uint256[]"}],"stateMutability":"view"},{"type":"function","name":"getMarketCount","inputs":[],"outputs":[{"name":"","type":"uint256","internalType":"uint256"}],"stateMutability":"view"},{"type":"function","name":"getMarketDetails","inputs":[{"name":"_marketId","type":"uint256","internalType":"uint256"}],"outputs":[{"name":"marketId_","type":"uint256","internalType":"uint256"},{"name":"name_","type":"string","internalType":"string"},{"name":"assetSymbol_","type":"string","internalType":"string"},{"name":"exists_","type":"bool","internalType":"bool"},{"name":"resolved_","type":"bool","internalType":"bool"},{"name":"winningOutcome_","type":"uint8","internalType":"enum PredictionTypes.Outcome"},{"name":"totalConvictionStakeOutcome0_","type":"uint256","internalType":"uint256"},{"name":"totalConvictionStakeOutcome1_","type":"uint256","internalType":"uint256"},{"name":"expirationTime_","type":"uint256","internalType":"uint256"},{"name":"priceAggregator_","type":"address","internalType":"address"},{"name":"priceThreshold_","type":"uint256","internalType":"uint256"}],"stateMutability":"view"},{"type":"function","name":"getMarketIdAtIndex","inputs":[{"name":"_index","type":"uint256","internalType":"uint256"}],"outputs":[{"name":"","type":"uint256","internalType":"uint256"}],"stateMutability":"view"},{"type":"function","name":"getMarketIdByTokenId","inputs":[{"name":"_tokenId","type":"uint256","internalType":"uint256"}],"outputs":[{"name":"","type":"uint256","internalType":"uint256"}],"stateMutability":"view"},{"type":"function","name":"getPredictionDetailsByTokenId","inputs":[{"name":"_tokenId","type":"uint256","internalType":"uint256"}],"outputs":[{"name":"marketId","type":"uint256","internalType":"uint256"},{"name":"outcome","type":"uint8","internalType":"enum PredictionTypes.Outcome"},{"name":"convictionStake","type":"uint256","internalType":"uint256"},{"name":"owner","type":"address","internalType":"address"},{"name":"isResolved","type":"bool","internalType":"bool"},{"name":"winningOutcome","type":"uint8","internalType":"enum PredictionTypes.Outcome"}],"stateMutability":"view"},{"type":"function","name":"getUserHasPredicted","inputs":[{"name":"_marketId","type":"uint256","internalType":"uint256"},{"name":"_user","type":"address","internalType":"address"}],"outputs":[{"name":"","type":"bool","internalType":"bool"}],"stateMutability":"view"},{"type":"function","name":"isMarketExpired","inputs":[{"name":"marketId","type":"uint256","internalType":"uint256"}],"outputs":[{"name":"","type":"bool","internalType":"bool"}],"stateMutability":"view"},{"type":"function","name":"marketIdToPoolKey","inputs":[{"name":"","type":"uint256","internalType":"uint256"}],"outputs":[{"name":"currency0","type":"address","internalType":"Currency"},{"name":"currency1","type":"address","internalType":"Currency"},{"name":"fee","type":"uint24","internalType":"uint24"},{"name":"tickSpacing","type":"int24","internalType":"int24"},{"name":"hooks","type":"address","internalType":"contract IHooks"}],"stateMutability":"view"},{"type":"function","name":"marketMinStakes","inputs":[{"name":"","type":"uint256","internalType":"uint256"}],"outputs":[{"name":"","type":"uint256","internalType":"uint256"}],"stateMutability":"view"},{"type":"function","name":"maxPriceStalenessSeconds","inputs":[],"outputs":[{"name":"","type":"uint256","internalType":"uint256"}],"stateMutability":"view"},{"type":"function","name":"minStakeAmount","inputs":[],"outputs":[{"name":"","type":"uint256","internalType":"uint256"}],"stateMutability":"view"},{"type":"function","name":"onERC721Received","inputs":[{"name":"","type":"address","internalType":"address"},{"name":"","type":"address","internalType":"address"},{"name":"","type":"uint256","internalType":"uint256"},{"name":"","type":"bytes","internalType":"bytes"}],"outputs":[{"name":"","type":"bytes4","internalType":"bytes4"}],"stateMutability":"pure"},{"type":"function","name":"oracleResolverAddress","inputs":[],"outputs":[{"name":"","type":"address","internalType":"address"}],"stateMutability":"view"},{"type":"function","name":"owner","inputs":[],"outputs":[{"name":"","type":"address","internalType":"address"}],"stateMutability":"view"},{"type":"function","name":"performGelatoUpkeep","inputs":[],"outputs":[],"stateMutability":"nonpayable"},{"type":"function","name":"performGelatoUpkeepWithIds","inputs":[{"name":"expiredMarketIds","type":"uint256[]","internalType":"uint256[]"}],"outputs":[],"stateMutability":"nonpayable"},{"type":"function","name":"performUpkeep","inputs":[{"name":"performData","type":"bytes","internalType":"bytes"}],"outputs":[],"stateMutability":"nonpayable"},{"type":"function","name":"protocolFeeBasisPoints","inputs":[],"outputs":[{"name":"","type":"uint256","internalType":"uint256"}],"stateMutability":"view"},{"type":"function","name":"recordPrediction","inputs":[{"name":"_user","type":"address","internalType":"address"},{"name":"_marketId","type":"uint256","internalType":"uint256"},{"name":"_outcome","type":"uint8","internalType":"enum PredictionTypes.Outcome"},{"name":"_convictionStakeDeclared","type":"uint128","internalType":"uint128"}],"outputs":[],"stateMutability":"payable"},{"type":"function","name":"renounceOwnership","inputs":[],"outputs":[],"stateMutability":"nonpayable"},{"type":"function","name":"resolveMarket","inputs":[{"name":"_marketId","type":"uint256","internalType":"uint256"},{"name":"_winningOutcome","type":"uint8","internalType":"enum PredictionTypes.Outcome"},{"name":"_oraclePrice","type":"int256","internalType":"int256"}],"outputs":[],"stateMutability":"nonpayable"},{"type":"function","name":"resolveMarketManual","inputs":[{"name":"marketId","type":"uint256","internalType":"uint256"}],"outputs":[],"stateMutability":"nonpayable"},{"type":"function","name":"rewardDistributorAddress","inputs":[],"outputs":[{"name":"","type":"address","internalType":"address"}],"stateMutability":"view"},{"type":"function","name":"setDefaultMarketMinStake","inputs":[{"name":"_newDefaultMinStake","type":"uint256","internalType":"uint256"}],"outputs":[],"stateMutability":"nonpayable"},{"type":"function","name":"setFeeConfiguration","inputs":[{"name":"_newTreasuryAddress","type":"address","internalType":"address"},{"name":"_newFeeBasisPoints","type":"uint256","internalType":"uint256"}],"outputs":[],"stateMutability":"nonpayable"},{"type":"function","name":"setMarketMinStake","inputs":[{"name":"_marketId","type":"uint256","internalType":"uint256"},{"name":"_marketMinStake","type":"uint256","internalType":"uint256"}],"outputs":[],"stateMutability":"nonpayable"},{"type":"function","name":"setMaxPriceStaleness","inputs":[{"name":"_newStalenessSeconds","type":"uint256","internalType":"uint256"}],"outputs":[],"stateMutability":"nonpayable"},{"type":"function","name":"setMinStakeAmount","inputs":[{"name":"_newMinStakeAmount","type":"uint256","internalType":"uint256"}],"outputs":[],"stateMutability":"nonpayable"},{"type":"function","name":"setOracleResolverAddress","inputs":[{"name":"_newOracleResolverAddress","type":"address","internalType":"address"}],"outputs":[],"stateMutability":"nonpayable"},{"type":"function","name":"setRewardDistributorAddress","inputs":[{"name":"_newRewardDistributorAddress","type":"address","internalType":"address"}],"outputs":[],"stateMutability":"nonpayable"},{"type":"function","name":"swapCastNFT","inputs":[],"outputs":[{"name":"","type":"address","internalType":"contract ISwapCastNFT"}],"stateMutability":"view"},{"type":"function","name":"tokenIdToMarketId","inputs":[{"name":"","type":"uint256","internalType":"uint256"}],"outputs":[{"name":"","type":"uint256","internalType":"uint256"}],"stateMutability":"view"},{"type":"function","name":"transferOwnership","inputs":[{"name":"newOwner","type":"address","internalType":"address"}],"outputs":[],"stateMutability":"nonpayable"},{"type":"function","name":"treasuryAddress","inputs":[],"outputs":[{"name":"","type":"address","internalType":"address"}],"stateMutability":"view"},{"type":"event","name":"DefaultMarketMinStakeChanged","inputs":[{"name":"newDefaultMinStake","type":"uint256","indexed":false,"internalType":"uint256"}],"anonymous":false},{"type":"event","name":"FeeConfigurationChanged","inputs":[{"name":"newTreasuryAddress","type":"address","indexed":true,"internalType":"address"},{"name":"newFeeBasisPoints","type":"uint256","indexed":false,"internalType":"uint256"}],"anonymous":false},{"type":"event","name":"FeePaid","inputs":[{"name":"marketId","type":"uint256","indexed":true,"internalType":"uint256"},{"name":"user","type":"address","indexed":true,"internalType":"address"},{"name":"protocolFee","type":"uint256","indexed":false,"internalType":"uint256"}],"anonymous":false},{"type":"event","name":"MarketCreated","inputs":[{"name":"marketId","type":"uint256","indexed":true,"internalType":"uint256"},{"name":"name","type":"string","indexed":false,"internalType":"string"},{"name":"assetSymbol","type":"string","indexed":false,"internalType":"string"},{"name":"expirationTime","type":"uint256","indexed":false,"internalType":"uint256"},{"name":"priceAggregator","type":"address","indexed":false,"internalType":"address"},{"name":"priceThreshold","type":"uint256","indexed":false,"internalType":"uint256"}],"anonymous":false},{"type":"event","name":"MarketExpired","inputs":[{"name":"marketId","type":"uint256","indexed":true,"internalType":"uint256"},{"name":"expirationTimestamp","type":"uint256","indexed":false,"internalType":"uint256"}],"anonymous":false},{"type":"event","name":"MarketMinStakeChanged","inputs":[{"name":"marketId","type":"uint256","indexed":true,"internalType":"uint256"},{"name":"marketMinStake","type":"uint256","indexed":false,"internalType":"uint256"}],"anonymous":false},{"type":"event","name":"MarketResolutionFailed","inputs":[{"name":"marketId","type":"uint256","indexed":true,"internalType":"uint256"},{"name":"reason","type":"string","indexed":false,"internalType":"string"}],"anonymous":false},{"type":"event","name":"MarketResolved","inputs":[{"name":"marketId","type":"uint256","indexed":true,"internalType":"uint256"},{"name":"winningOutcome","type":"uint8","indexed":false,"internalType":"enum PredictionTypes.Outcome"},{"name":"price","type":"int256","indexed":false,"internalType":"int256"},{"name":"totalPrizePool","type":"uint256","indexed":false,"internalType":"uint256"}],"anonymous":false},{"type":"event","name":"MinStakeAmountChanged","inputs":[{"name":"newMinStakeAmount","type":"uint256","indexed":false,"internalType":"uint256"}],"anonymous":false},{"type":"event","name":"OracleResolverAddressSet","inputs":[{"name":"oldAddress","type":"address","indexed":true,"internalType":"address"},{"name":"newAddress","type":"address","indexed":true,"internalType":"address"}],"anonymous":false},{"type":"event","name":"OwnershipTransferred","inputs":[{"name":"previousOwner","type":"address","indexed":true,"internalType":"address"},{"name":"newOwner","type":"address","indexed":true,"internalType":"address"}],"anonymous":false},{"type":"event","name":"RewardClaimed","inputs":[{"name":"user","type":"address","indexed":true,"internalType":"address"},{"name":"tokenId","type":"uint256","indexed":true,"internalType":"uint256"},{"name":"rewardAmount","type":"uint256","indexed":false,"internalType":"uint256"}],"anonymous":false},{"type":"event","name":"RewardDistributorAddressSet","inputs":[{"name":"oldAddress","type":"address","indexed":true,"internalType":"address"},{"name":"newAddress","type":"address","indexed":true,"internalType":"address"}],"anonymous":false},{"type":"event","name":"StakeRecorded","inputs":[{"name":"marketId","type":"uint256","indexed":true,"internalType":"uint256"},{"name":"user","type":"address","indexed":true,"internalType":"address"},{"name":"outcome","type":"uint8","indexed":false,"internalType":"enum PredictionTypes.Outcome"},{"name":"amount","type":"uint256","indexed":false,"internalType":"uint256"},{"name":"tokenId","type":"uint256","indexed":false,"internalType":"uint256"}],"anonymous":false},{"type":"error","name":"AlreadyPredicted","inputs":[{"name":"marketId","type":"uint256","internalType":"uint256"},{"name":"user","type":"address","internalType":"address"}]},{"type":"error","name":"AlreadyPredictedL","inputs":[{"name":"user","type":"address","internalType":"address"},{"name":"marketId","type":"uint256","internalType":"uint256"}]},{"type":"error","name":"AmountCannotBeZero","inputs":[]},{"type":"error","name":"AmountCannotBeZeroL","inputs":[]},{"type":"error","name":"ClaimFailedNoStakeForOutcome","inputs":[{"name":"marketId","type":"uint256","internalType":"uint256"},{"name":"outcomeIndex","type":"uint8","internalType":"uint8"}]},{"type":"error","name":"ClaimFailedNoStakeForOutcomeL","inputs":[{"name":"marketId","type":"uint256","internalType":"uint256"},{"name":"outcome","type":"uint8","internalType":"uint8"}]},{"type":"error","name":"EmptyMarketName","inputs":[]},{"type":"error","name":"FeeTransferFailed","inputs":[{"name":"to","type":"address","internalType":"address"},{"name":"amount","type":"uint256","internalType":"uint256"}]},{"type":"error","name":"FeeTransferFailedL","inputs":[{"name":"treasuryAddress","type":"address","internalType":"address"},{"name":"amount","type":"uint256","internalType":"uint256"}]},{"type":"error","name":"InvalidAssetSymbol","inputs":[]},{"type":"error","name":"InvalidExpirationTime","inputs":[{"name":"expirationTime","type":"uint256","internalType":"uint256"},{"name":"currentTime","type":"uint256","internalType":"uint256"}]},{"type":"error","name":"InvalidFeeBasisPoints","inputs":[{"name":"feeBasisPoints","type":"uint256","internalType":"uint256"}]},{"type":"error","name":"InvalidMarketId","inputs":[]},{"type":"error","name":"InvalidMinStakeAmount","inputs":[{"name":"minStakeAmount","type":"uint256","internalType":"uint256"}]},{"type":"error","name":"InvalidPoolKey","inputs":[]},{"type":"error","name":"InvalidPriceAggregator","inputs":[]},{"type":"error","name":"InvalidPriceData","inputs":[]},{"type":"error","name":"InvalidPriceThreshold","inputs":[]},{"type":"error","name":"InvalidUpkeepData","inputs":[{"name":"reason","type":"string","internalType":"string"}]},{"type":"error","name":"MarketAlreadyExists","inputs":[{"name":"marketId","type":"uint256","internalType":"uint256"}]},{"type":"error","name":"MarketAlreadyResolved","inputs":[{"name":"marketId","type":"uint256","internalType":"uint256"}]},{"type":"error","name":"MarketAlreadyResolvedL","inputs":[{"name":"marketId","type":"uint256","internalType":"uint256"}]},{"type":"error","name":"MarketDoesNotExist","inputs":[{"name":"marketId","type":"uint256","internalType":"uint256"}]},{"type":"error","name":"MarketExpiredL","inputs":[{"name":"marketId","type":"uint256","internalType":"uint256"},{"name":"expirationTime","type":"uint256","internalType":"uint256"},{"name":"currentTime","type":"uint256","internalType":"uint256"}]},{"type":"error","name":"MarketNotResolved","inputs":[{"name":"marketId","type":"uint256","internalType":"uint256"}]},{"type":"error","name":"MarketNotResolvedL","inputs":[{"name":"marketId","type":"uint256","internalType":"uint256"}]},{"type":"error","name":"NotOracleResolver","inputs":[]},{"type":"error","name":"NotRewardDistributor","inputs":[]},{"type":"error","name":"NotWinningNFT","inputs":[{"name":"tokenId","type":"uint256","internalType":"uint256"},{"name":"predictedOutcome","type":"uint8","internalType":"uint8"},{"name":"winningOutcome","type":"uint8","internalType":"uint8"}]},{"type":"error","name":"NotWinningNFTL","inputs":[{"name":"tokenId","type":"uint256","internalType":"uint256"},{"name":"predictedOutcome","type":"uint8","internalType":"uint8"},{"name":"winningOutcome","type":"uint8","internalType":"uint8"}]},{"type":"error","name":"OnlyChainlinkAutomation","inputs":[]},{"type":"error","name":"OnlyGelatoAutomation","inputs":[]},{"type":"error","name":"OwnableInvalidOwner","inputs":[{"name":"owner","type":"address","internalType":"address"}]},{"type":"error","name":"OwnableUnauthorizedAccount","inputs":[{"name":"account","type":"address","internalType":"address"}]},{"type":"error","name":"PriceAtThreshold","inputs":[]},{"type":"error","name":"PriceOracleStale","inputs":[{"name":"lastUpdatedAt","type":"uint256","internalType":"uint256"},{"name":"currentTime","type":"uint256","internalType":"uint256"},{"name":"maxStaleness","type":"uint256","internalType":"uint256"}]},{"type":"error","name":"PriceOracleStaleL","inputs":[{"name":"lastUpdateTime","type":"uint256","internalType":"uint256"},{"name":"currentTime","type":"uint256","internalType":"uint256"},{"name":"maxStaleness","type":"uint256","internalType":"uint256"}]},{"type":"error","name":"ResolutionFailedOracleError","inputs":[]},{"type":"error","name":"RewardTransferFailed","inputs":[{"name":"to","type":"address","internalType":"address"},{"name":"amount","type":"uint256","internalType":"uint256"}]},{"type":"error","name":"RewardTransferFailedL","inputs":[{"name":"recipient","type":"address","internalType":"address"},{"name":"amount","type":"uint256","internalType":"uint256"}]},{"type":"error","name":"StakeBelowMinimum","inputs":[{"name":"sentAmount","type":"uint256","internalType":"uint256"},{"name":"minRequiredAmount","type":"uint256","internalType":"uint256"}]},{"type":"error","name":"StakeBelowMinimumL","inputs":[{"name":"sentAmount","type":"uint256","internalType":"uint256"},{"name":"minRequiredAmount","type":"uint256","internalType":"uint256"}]},{"type":"error","name":"StakeMismatch","inputs":[{"name":"actual","type":"uint256","internalType":"uint256"},{"name":"declared","type":"uint256","internalType":"uint256"}]},{"type":"error","name":"ZeroAddressInput","inputs":[]},{"type":"error","name":"ZeroAddressL","inputs":[{"name":"message","type":"string","internalType":"string"}]},{"type":"error","name":"ZeroNFTOwnerL","inputs":[{"name":"tokenId","type":"uint256","internalType":"uint256"}]},{"type":"error","name":"ZeroRewardAmountL","inputs":[{"name":"tokenId","type":"uint256","internalType":"uint256"}]}],"bytecode":{"object":"0x60803461024f57601f612c9738819003918201601f19168301916001600160401b03831184841017610253578084926101009460405283398101031261024f5761004881610267565b9061005560208201610267565b9061006260408201610267565b9260608201519160808101519460a08201519461008d60e061008660c08601610267565b9401610267565b936001600160a01b0316801561023c575f80546001600160a01b03198116831782556001600160a01b0316907f8be0079c531659141344cd1fd0a4f28419497f9722a3daafe3b4186f6b6457e09080a36001600f556001600160a01b03168015801561022b575b61021c5761271085116102095786156101f657600480546001600160a01b031990811690921790556001805482166001600160a01b03938416908117909155600586905560068890556007889055600896909655600280548216938316939093179092556003805490921692169190911790557fcfb041914d4719170dda8759042e9ebe4f34085e32cf31e09bcce455b53490c29260209290917f94796f39f9a92272c0bb1afb6daa9c9d778f2ebadf4a2407830fc5ef56bd875190849046620ba5ed036101e757600160ff1960095416176009555b604051908152a2604051908152a1604051612a1b908161027c8239f35b60ff19600954166009556101ca565b86638cb84caf60e01b5f5260045260245ffd5b84632749a67360e01b5f5260045260245ffd5b6321a945f160e11b5f5260045ffd5b506001600160a01b038216156100f4565b631e4fbdf760e01b5f525f60045260245ffd5b5f80fd5b634e487b7160e01b5f52604160045260245ffd5b51906001600160a01b038216820361024f5756fe60806040526004361015610011575f80fd5b5f803560e01c806307f9e20014611d985780630ca15c3c14611cfe57806314139b4d14611c4c578063150b7a0214611bf65780631630a27514611bcc57806328044f6114611ba55780632c5af7b714611b7d578063345a54be14611b375780633715ca93146115de5780633fa298d8146115b657806340691db4146115455780634585e33b146113655780635a82f6c7146112ed57806365b2d327146112cc5780636c3a4ba1146112245780636cc7b9b5146110f35780636e04ff0d14611097578063705b850b14611071578063715018a61461101a5780637444939914610f8757806375c5a9c714610f615780637e3e246114610f385780638da5cb5b14610f115780638e7e3a0114610ea3578063a5e973c314610e88578063a7a1bcb214610e60578063abcea3eb14610e43578063acdf82e414610d15578063ae169a5014610a04578063b06c1ba314610922578063b2b85d9314610904578063c5f956af146108db578063c8ec578b1461086a578063cf5303cf1461081c578063d9c1408b146107fe578063de0314391461031e578063e0a67c5414610401578063e7c2e298146103e3578063ead4f541146103af578063eb4af04514610348578063f03744e91461031e578063f188768414610300578063f2fde38b1461027a578063f4ea93d81461025d578063f8dc9b00146102345763fd69f3c214610214575f80fd5b346102315780600319360112610231576020600e54604051908152f35b80fd5b50346102315780600319360112610231576003546040516001600160a01b039091168152602090f35b503461023157806003193601126102315760206040516127108152f35b503461023157602036600319011261023157610294611e01565b61029c612598565b6001600160a01b031680156102ec5781546001600160a01b03198116821783556001600160a01b03167f8be0079c531659141344cd1fd0a4f28419497f9722a3daafe3b4186f6b6457e08380a380f35b631e4fbdf760e01b82526004829052602482fd5b50346102315780600319360112610231576020600654604051908152f35b50346102315760203660031901126102315760406020916004358152600d83522054604051908152f35b503461023157602036600319011261023157600435610365612598565b801561039d576020817fcfb041914d4719170dda8759042e9ebe4f34085e32cf31e09bcce455b53490c292600655604051908152a180f35b638cb84caf60e01b8252600452602490fd5b50346102315780600319360112610231576103df6103cb612835565b604051918291602083526020830190611f3a565b0390f35b50346102315780600319360112610231576020600754604051908152f35b50608036600319011261023157610416611e01565b6024356044359160038310156107fa57606435906fffffffffffffffffffffffffffffffff82168092036107f6576001600160a01b03169283156107e75781156107d8576005549161047561271061046e858461255a565b048261258b565b8034036107c25750838652600a6020526040862060038101549060ff8216156107ae57858852600b60205260408820549485156107a4575b60018060a01b03600454169160018060a01b03600154169360078201549260068301918b5f528260205260ff60405f2054169084549580421015610789575060081c60ff166107755761075e5785156107185761050d612710918861255a565b04978087106107015750908a959493929188151594856106c1575b5091608491602094938c5f52855260405f20600160ff1982541617905561054e89611f1c565b60ff89166106ac5760040161056487825461258b565b90555b60405196879384926353d35f4b60e11b84528d6004850152602484015261058d8a611f1c565b8960448401528760648401525af19283156106a157879187918a9561063e575b50907f1cbdfb36fecad8bdc913b23259c4f5801f59b1e1499af2697bb7c7d902c40d179685949392606097968c52600d6020528260408d205561060b575b505050604051926105fb81611f1c565b835260208301526040820152a380f35b60207f6fe296e805108cd514fea415210be4016149b01eeb08effbe130951b6a5f6c0b91604051908152a386865f6105eb565b959450929150506020843d602011610699575b8161065e60209383611e5a565b81010312610695579251919290869086907f1cbdfb36fecad8bdc913b23259c4f5801f59b1e1499af2697bb7c7d902c40d176105ad565b8780fd5b3d9150610651565b6040513d8a823e3d90fd5b6005016106ba87825461258b565b9055610567565b909192939495968080808c855af16106d761297f565b50156106ea57908b969594939291610528565b634f2b8d5760e11b8c52600452602488905260448bfd5b633530a80160e01b8c52600487905260245260448bfd5b6040516308ed21f560e11b815260206004820152601f60248201527f547265617375727920616464726573732063616e6e6f74206265207a65726f006044820152606490fd5b60448c858d630a35700f60e31b8352600452602452fd5b631436cd1b60e31b8d52600485905260248dfd5b63399b21eb60e01b8f5260048790526024524260445260648efd5b60065495506104ad565b630fff01a760e31b88526004869052602488fd5b63e18f366b60e01b875234600452602452604486fd5b63d11b25af60e01b8552600485fd5b6321a945f160e11b8552600485fd5b8480fd5b8380fd5b50346102315780600319360112610231576020600854604051908152f35b5034610231578060031936011261023157600160ff6009541661083e81611f1c565b0361085b5761084b61250e565b906103df60405192839283611f00565b63b320d6ab60e01b8152600490fd5b503461023157602036600319011261023157604060a0916004358152600c60205220600180831b03815416906001810154906002600180861b039101541690604051928352600180851b038116602084015262ffffff81851c16604084015260b81c60020b60608301526080820152f35b50346102315780600319360112610231576001546040516001600160a01b039091168152602090f35b50346102315780600319360112610231576020600554604051908152f35b50346102315760203660031901126102315760406020916004358152600a83522080549060038101549060ff8260101c166004820154600583015460078401549160018060a01b036008860154169360ff6109c06009880154976109b261099760026109906001850161246e565b930161246e565b916101606040519e8f9e8f90815201526101608d0190611edc565b908b820360408d0152611edc565b97818116151560608b015260081c16151560808901526109df81611f1c565b60a088015260c087015260e08601526101008501526101208401526101408301520390f35b5034610bb7576020366003190112610bb757600354600435906001600160a01b03163303610d0657600480546040516311f1106760e31b81529182018390526001600160a01b0316608082602481845afa908115610bac575f925f935f915f94610cce575b50805f52600a60205260405f209160038301549160ff831615610cbc5750825460ff8360101c169560ff600560048701549601549460081c1615610ca9576001600160a01b0316968715610c9657610ac087611f1c565b610ac981611f1c565b868103610c6657508115610c57578195610ae281611f1c565b610c0b578315610bf5575081610bce575b5050505b8115610bbb57803b15610bb7575f8091602460405180948193630852cd8d60e31b83528960048401525af18015610bac57610b97575b508380808084865af1610b3e61297f565b5015610b7f5760207ff01da32686223933d8a18a391060918c7f11a3648639edd87ae013e2e273174391848652600d8252856040812055604051908152a380f35b633dd94c1d60e01b8452600491909152602452604482fd5b610ba49194505f90611e5a565b5f925f610b2d565b6040513d5f823e3d90fd5b5f80fd5b836307d9cd4b60e21b5f5260045260245ffd5b91610be1610be692610bec95969461255a565b61256d565b9061258b565b905f8080610af3565b6302a7d58b60e31b5f526004525f60245260445ffd5b8293919315610c40575080610c23575b505050610af7565b610c3793945090610be1610be6928461255a565b905f8080610c1b565b6302a7d58b60e31b5f52600452600160245260445ffd5b631b98fc0360e11b5f5260045ffd5b60ff818a610c748a94611f1c565b610c7d84611f1c565b632c269f9160e21b5f526004521660245260445260645ffd5b886349d57c6d60e11b5f5260045260245ffd5b5063ce91248f60e01b5f5260045260245ffd5b630fff01a760e31b5f5260045260245ffd5b9294505050610cf5915060803d608011610cff575b610ced8183611e5a565b810190612434565b919391925f610a69565b503d610ce3565b63af216a6b60e01b5f5260045ffd5b34610bb7576020366003190112610bb7576024600435608060018060a01b0360045416604051938480926311f1106760e31b82528560048301525afa908115610bac575f915f915f945f92610e1d575b505f52600d6020528260405f205403610dd85760c09360ff91845f52600a602052600360405f20015491838360101c1694604051968752610da581611f1c565b602087015260408601526001600160a01b0316606085015260081c1615156080830152610dd181611f1c565b60a0820152f35b60405162461bcd60e51b815260206004820152601860248201527f546f6b656e4964206d617070696e67206d69736d6174636800000000000000006044820152606490fd5b9250935050610e3b915060803d608011610cff57610ced8183611e5a565b909385610d65565b34610bb7575f366003190112610bb7576020604051620ba5ed8152f35b34610bb7576020366003190112610bb7576020610e7e60043561292a565b6040519015158152f35b34610bb7575f366003190112610bb7576103df6103cb61236b565b34610bb7576020366003190112610bb757600435610ebf612598565b8015610eff576006548110610eff576020817f2420a4938e4e2e2b5357e91362cae26772e5f1ba5447cf9b35dcd9500d7175eb92600755604051908152a1005b638cb84caf60e01b5f5260045260245ffd5b34610bb7575f366003190112610bb7575f546040516001600160a01b039091168152602090f35b34610bb7575f366003190112610bb757602060ff6009541660405190610f5d81611f1c565b8152f35b34610bb7576020366003190112610bb757610f7a612598565b610f85600435612627565b005b34610bb7576040366003190112610bb757600435602435610fa6612598565b815f52600a60205260ff600360405f2001541615611007578015610eff576006548110610eff5760207f07ed2c84af5eb11c84f41c917bcd8e5cef20c987357377bd8757d6bf13ab0a7b91835f52600b82528060405f2055604051908152a2005b50630fff01a760e31b5f5260045260245ffd5b34610bb7575f366003190112610bb757611032612598565b5f80546001600160a01b0319811682556001600160a01b03167f8be0079c531659141344cd1fd0a4f28419497f9722a3daafe3b4186f6b6457e08280a3005b34610bb7576040366003190112610bb7576020610e7e61108f611e17565b600435612326565b34610bb7576020366003190112610bb7576004356001600160401b038111610bb7576110c7903690600401611e2d565b505060ff600954166110d881611f1c565b6110e45761084b6121e5565b630769377b60e51b5f5260045ffd5b34610bb7576020366003190112610bb7576004356001600160401b038111610bb75736602382011215610bb7578060040135906001600160401b038211610bb7576024810190602436918460051b010111610bb757600160ff6009541661115981611f1c565b036112155781156111d7575f5b82811061119657505f5b82811061117957005b8061119061118a6001938686612072565b35612627565b01611170565b806111a46001928585612072565b356111ae8161292a565b6111ba575b5001611166565b5f805160206129c68339815191526020604051428152a2846111b3565b604051630d9b7f0b60e21b81526020600482015260156024820152744e6f206d61726b65747320746f2070726f6365737360581b6044820152606490fd5b63b320d6ab60e01b5f5260045ffd5b34610bb7575f366003190112610bb757600160ff6009541661124581611f1c565b0361121557611252612835565b8051156111d7575f5b81518110156112a457806112716001928461219f565b5161127b8161292a565b611287575b500161125b565b5f805160206129c68339815191526020604051428152a283611280565b505f5b8151811015610f8557806112c66112c06001938561219f565b51612627565b016112a7565b34610bb7576020366003190112610bb7576112e5612598565b600435600855005b34610bb7576020366003190112610bb757611306611e01565b61130e612598565b6001600160a01b0316801561135657600380546001600160a01b03191682179055807fcc8aae7ba253fedbd5b35d2efc8fb982bb519976f812167c80d13f9e524d71a05f80a3005b6321a945f160e11b5f5260045ffd5b34610bb7576020366003190112610bb7576004356001600160401b038111610bb757611395903690600401611e2d565b81019080820360208112610bb75781359060038210159182610bb7576113ba81611f1c565b600181036114d65750604013610bb757610bb7576020810135906001600160401b038211610bb757019080601f83011215610bb75781356113fa81612188565b926114086040519485611e5a565b81845260208085019260051b820101928311610bb757602001905b8282106114c6575050505f5b8151811015610f8557806114456001928461219f565b51805f52600a60205260405f2060038101549060ff821691826114b7575b50816114a9575b8161149a575b5061147d575b500161142f565b5f805160206129c68339815191526020604051428152a283611476565b60079150015442101585611470565b60078101541515915061146a565b60081c60ff1615915086611463565b8135815260209182019101611423565b90929350600291506114e781611f1c565b0361150057604013610bb7576020610f85910135612627565b6064604051630d9b7f0b60e21b815260206004820152602060248201527f556e6b6e6f776e204c6f67416374696f6e20696e20706572666f726d446174616044820152fd5b34610bb7576040366003190112610bb7576004356001600160401b038111610bb7576101006003198236030112610bb7576024356001600160401b038111610bb757611595903690600401611e2d565b505060ff600954166115a681611f1c565b6110e45761084b90600401612082565b34610bb7575f366003190112610bb7576002546040516001600160a01b039091168152602090f35b34610bb757610140366003190112610bb7576004356001600160401b038111610bb75761160f903690600401611e96565b6024356001600160401b038111610bb75761162e903690600401611e96565b906064356001600160a01b0381169060443590829003610bb7576084359360a03660a3190112610bb757611660612598565b835115611b2857805115611b195742821115611b02578215611356578415611af35761168a611fb7565b6001600160a01b0361169a611fcd565b6001600160a01b03909216911614611ae457600f54936116b985611fe3565b600f55845f52600a60205260ff600360405f20015416611ad157845f52600a60205260405f208581556001810182516001600160401b03811161194a576117008254612005565b601f8111611a8c575b50806020601f8211600114611a2b575f91611a20575b508160011b915f199060031b1c19161790555b600281018351916001600160401b03831161194a57816117538a9354612005565b601f81116119ce575b50602093601f81116001146119695780600994955f9161195e575b508160011b915f199060031b1c19161790555b600381016001815462ffffff19161790555f60048201555f600582015585600782015560088101876bffffffffffffffffffffffff60a01b8254161790550155845f52600c60205260405f2060018060a01b036117e5611fb7565b82546001600160a01b0319169116178155600181016001600160a01b0361180a611fcd565b82546001600160a01b031916911617815560e43562ffffff81168103610bb7578154610104358060020b8103610bb75760b81b62ffffff60b81b169162ffffff60a01b9060a01b169065ffffffffffff60a01b191617179055610124359060018060a01b0382168203610bb75760020180546001600160a01b0319166001600160a01b039092169190911790556007545f868152600b6020526040902055600e54926801000000000000000084101561194a57602096869561192f611922956118fa8860017ff9a2e61c6954c7c1cdd45413e0488ca515bca71b77468f4de6e7fea6e556335e9a01600e55611f8b565b81549060031b908b821b915f19901b191617905560405196879660a0885260a0880190611edc565b908682038c880152611edc565b926040850152606084015260808301520390a2604051908152f35b634e487b7160e01b5f52604160045260245ffd5b90508701518c611777565b601f198116825f52855f20905f5b8181106119b35750906009959683600194931061199b575b5050811b01905561178a565b8901515f1960f88460031b161c191690558c8061198f565b8988015183556020978801978e975060019093019201611977565b90809293505f5260205f20601f850160051c81019160208610611a16575b90601f8c959493920160051c01905b818110611a08575061175c565b5f81558b94506001016119fb565b90915081906119ec565b90508401518a61171f565b5f8481528181209250601f198416905b818110611a7457509083600194939210611a5c575b5050811b019055611732565b8601515f1960f88460031b161c191690558a80611a50565b9192602060018192868b015181550194019201611a3b565b825f5260205f20601f830160051c81019160208410611ac7575b601f0160051c01905b818110611abc5750611709565b5f8155600101611aaf565b9091508190611aa6565b846311453d1960e31b5f5260045260245ffd5b63c256622b60e01b5f5260045ffd5b6309524aff60e41b5f5260045ffd5b5063f00605cf60e01b5f526004524260245260445ffd5b6308a37ecf60e31b5f5260045ffd5b6314b6f5db60e01b5f5260045ffd5b34610bb7576020366003190112610bb757600435600e54811015611b6f57611b60602091611f8b565b90549060031b1c604051908152f35b62320bd360e51b5f5260045ffd5b34610bb7575f366003190112610bb7576004546040516001600160a01b039091168152602090f35b34610bb7575f366003190112610bb75760206040515f805160206129c68339815191528152f35b34610bb7576020366003190112610bb7576004355f52600b602052602060405f2054604051908152f35b34610bb7576080366003190112610bb757611c0f611e01565b50611c18611e17565b506064356001600160401b038111610bb757611c38903690600401611e2d565b5050604051630a85bd0160e11b8152602090f35b34610bb7576060366003190112610bb7576004356024356003811015610bb7576002546001600160a01b03163303611cef57815f52600a60205260405f209060ff60038301541615611cdc57611cc3817fcc1bc25c4d52370e9824dcad12774be2826bee7223a1605ab5ca6e6f6899c33e936125be565b90611cd76040519283926044359084611f6d565b0390a2005b82630fff01a760e31b5f5260045260245ffd5b630dfb072160e31b5f5260045ffd5b34610bb7576040366003190112610bb757611d17611e01565b60243590611d23612598565b6001600160a01b0316908115611356576127108111611d865760207f94796f39f9a92272c0bb1afb6daa9c9d778f2ebadf4a2407830fc5ef56bd875191836bffffffffffffffffffffffff60a01b600154161760015580600555604051908152a2005b632749a67360e01b5f5260045260245ffd5b34610bb7576020366003190112610bb757611db1611e01565b611db9612598565b6001600160a01b0316801561135657600280546001600160a01b03191682179055807ff1235554094327f0c21ba4b6bf876055af684a7722366b3ccc0b3bb536535ec45f80a3005b600435906001600160a01b0382168203610bb757565b602435906001600160a01b0382168203610bb757565b9181601f84011215610bb7578235916001600160401b038311610bb75760208381860195010111610bb757565b90601f801991011681019081106001600160401b0382111761194a57604052565b6001600160401b03811161194a57601f01601f191660200190565b81601f82011215610bb757803590611ead82611e7b565b92611ebb6040519485611e5a565b82845260208383010111610bb757815f926020809301838601378301015290565b805180835260209291819084018484015e5f828201840152601f01601f1916010190565b604090611f199392151581528160208201520190611edc565b90565b60031115611f2657565b634e487b7160e01b5f52602160045260245ffd5b90602080835192838152019201905f5b818110611f575750505090565b8251845260209384019390920191600101611f4a565b60608101949392604092611f8081611f1c565b825260208201520152565b600e54811015611fa357600e5f5260205f2001905f90565b634e487b7160e01b5f52603260045260245ffd5b60a4356001600160a01b0381168103610bb75790565b60c4356001600160a01b0381168103610bb75790565b5f198114611ff15760010190565b634e487b7160e01b5f52601160045260245ffd5b90600182811c92168015612033575b602083101461201f57565b634e487b7160e01b5f52602260045260245ffd5b91607f1691612014565b903590601e1981360301821215610bb757018035906001600160401b038211610bb757602001918160051b36038313610bb757565b9190811015611fa35760051b0190565b60a08101356001600160a01b03811690818103610bb757503014801590612170575b8015612147575b612137578060c06120bd92019061203d565b60011015611fa3576020013590815f52600a602052600360405f20015460ff811615908115612129575b5061211157604051916002602084015260408301526040825261210b606083611e5a565b60019190565b6040519150612121602083611e5a565b5f82525f9190565b60ff915060081c165f6120e7565b5060405190612121602083611e5a565b5061215560c082018261203d565b15611fa357355f805160206129c683398151915214156120ab565b50600261218060c083018361203d565b9050106120a4565b6001600160401b03811161194a5760051b60200190565b8051821015611fa35760209160051b010190565b906121bd82612188565b6121ca6040519182611e5a565b82815280926121db601f1991612188565b0190602036910137565b600e54906121f2826121b3565b915f905f5b818110612287575b5050801561226f57612210816121b3565b905f5b818110612250575050612242925061210b90604051938491600160208401526040808401526060830190611f3a565b03601f198101845283611e5a565b8061225d6001928761219f565b51612268828661219f565b5201612213565b506040515f9250612281602082611e5a565b5f815290565b61229081611f8b565b90549060031b1c805f52600a60205260405f2060038101549060ff82169182612317575b5081612309575b816122fa575b506122dd575b50603283146122d8576001016121f7565b6121ff565b926122f391936122ed828861219f565b52611fe3565b915f6122c7565b6007915001544210155f6122c1565b6007810154151591506122bb565b60081c60ff161591505f6122b4565b805f52600a60205260ff600360405f2001541615612365575f52600a602052600660405f20019060018060a01b03165f5260205260ff60405f20541690565b50505f90565b600e5490612378826121b3565b915f80915f5b8181106123c75750146123c457612394816121b3565b905f5b8181106123a5575090925050565b806123b26001928761219f565b516123bd828661219f565b5201612397565b50565b9091506123d381611f8b565b90549060031b1c805f52600a60205260405f2060ff600382015460081c16159081612425575b5061240b575b5060010190829161237e565b83600192949161241c84938961219f565b520192906123ff565b9050600742910154115f6123f9565b9190826080910312610bb75781519160208101516003811015610bb757916060604083015192015160018060a01b0381168103610bb75790565b9060405191825f82549261248184612005565b80845293600181169081156124ec57506001146124a8575b506124a692500383611e5a565b565b90505f9291925260205f20905f915b8183106124d05750509060206124a6928201015f612499565b60209193508060019154838589010152019101909184926124b7565b9050602092506124a694915060ff191682840152151560051b8201015f612499565b612516612835565b805115612549579061210b61224292604051938491636cc7b9b560e01b6020840152602060248401526044830190611f3a565b505f90604051612281602082611e5a565b81810292918115918404141715611ff157565b8115612577570490565b634e487b7160e01b5f52601260045260245ffd5b91908201809211611ff157565b5f546001600160a01b031633036125ab57565b63118cdaa760e01b5f523360045260245ffd5b805460038201805494939091600886901c60ff166126155750610100611f19949561ff0019161782556125f081611f1c565b62ff000082549160101b169062ff00001916179055600560048201549101549061258b565b631436cd1b60e31b5f5260045260245ffd5b805f52600a60205260405f20600381015460ff811615908115612827575b508015612812575b61280e576007810154421061280e5760088054908201546001600160a01b03169081156127ff5760a060049260405193848092633fabe5a360e21b82525afa918215610bac575f925f935f925f926127a9575b50824203428111611ff157841061278e5769ffffffffffffffffffff8091169116106127755750505f8113156127665760098201548082131561272057507fcc1bc25c4d52370e9824dcad12774be2826bee7223a1605ab5ca6e6f6899c33e9161271b61270f600180936125be565b60405193849384611f6d565b0390a2565b811215612757577fcc1bc25c4d52370e9824dcad12774be2826bee7223a1605ab5ca6e6f6899c33e9161271b61270f5f80936125be565b6301b94aa160e01b5f5260045ffd5b63f45e167b60e01b5f5260045ffd5b630820851d60e11b5f526004524260245260445260645ffd5b5050630820851d60e11b5f526004524260245260445260645ffd5b945050505060a0823d60a0116127f7575b816127c760a09383611e5a565b81010312610bb7576127d8826129ae565b60208301516127ee6080606086015195016129ae565b9093915f6126a0565b3d91506127ba565b63f05c4dbd60e01b5f5260045ffd5b5050565b5060088101546001600160a01b03161561264d565b60ff915060081c165f612645565b600e5490612842826121b3565b915f906032811115612925575060325b5f5b818110612896575050612866816121b3565b905f5b818110612877575090925050565b806128846001928761219f565b5161288f828661219f565b5201612869565b61289f81611f8b565b90549060031b1c805f52600a60205260405f2060038101549060ff82169182612916575b5081612908575b816128f8575b506128df575b50600101612854565b836128f1916122ed600194968961219f565b92906128d6565b905060074291015411155f6128d0565b6007810154151591506128ca565b60081c60ff161591505f6128c3565b612852565b5f52600a60205260405f2060038101549060ff82169182612970575b5081612962575b81612956575090565b60079150015442101590565b60078101541515915061294d565b60081c60ff161591505f612946565b3d156129a9573d9061299082611e7b565b9161299e6040519384611e5a565b82523d5f602084013e565b606090565b519069ffffffffffffffffffff82168203610bb75756fef54828bb5a115e746bdf8fa1e2662db7e2d601f726731fa5019131b337c33ce0a2646970667358221220ceae36de88723c64990104883b9e70a4eed0e743be0ecfbb8855225df1661adb64736f6c634300081a0033","linkReferences":{}},"methodIdentifiers":{"INK_CHAIN_ID()":"abcea3eb","MARKET_EXPIRED_SIGNATURE()":"28044f61","MAX_BASIS_POINTS()":"f4ea93d8","automationProvider()":"7e3e2461","checkLog((uint256,uint256,bytes32,uint256,bytes32,address,bytes32[],bytes),bytes)":"40691db4","checkUpkeep(bytes)":"6e04ff0d","checker()":"cf5303cf","claimReward(uint256)":"ae169a50","createMarket(string,string,uint256,address,uint256,(address,address,uint24,int24,address))":"3715ca93","defaultMarketMinStake()":"e7c2e298","getActiveMarkets()":"a5e973c3","getExpiredMarkets()":"ead4f541","getMarketCount()":"fd69f3c2","getMarketDetails(uint256)":"b06c1ba3","getMarketIdAtIndex(uint256)":"345a54be","getMarketIdByTokenId(uint256)":"de031439","getPredictionDetailsByTokenId(uint256)":"acdf82e4","getUserHasPredicted(uint256,address)":"705b850b","isMarketExpired(uint256)":"a7a1bcb2","marketIdToPoolKey(uint256)":"c8ec578b","marketMinStakes(uint256)":"1630a275","maxPriceStalenessSeconds()":"d9c1408b","minStakeAmount()":"f1887684","onERC721Received(address,address,uint256,bytes)":"150b7a02","oracleResolverAddress()":"3fa298d8","owner()":"8da5cb5b","performGelatoUpkeep()":"6c3a4ba1","performGelatoUpkeepWithIds(uint256[])":"6cc7b9b5","performUpkeep(bytes)":"4585e33b","protocolFeeBasisPoints()":"b2b85d93","recordPrediction(address,uint256,uint8,uint128)":"e0a67c54","renounceOwnership()":"715018a6","resolveMarket(uint256,uint8,int256)":"14139b4d","resolveMarketManual(uint256)":"75c5a9c7","rewardDistributorAddress()":"f8dc9b00","setDefaultMarketMinStake(uint256)":"8e7e3a01","setFeeConfiguration(address,uint256)":"0ca15c3c","setMarketMinStake(uint256,uint256)":"74449399","setMaxPriceStaleness(uint256)":"65b2d327","setMinStakeAmount(uint256)":"eb4af045","setOracleResolverAddress(address)":"07f9e200","setRewardDistributorAddress(address)":"5a82f6c7","swapCastNFT()":"2c5af7b7","tokenIdToMarketId(uint256)":"f03744e9","transferOwnership(address)":"f2fde38b","treasuryAddress()":"c5f956af"},"id":135}